{"abi":[{"type":"constructor","inputs":[{"name":"_tokenAddress","type":"address","internalType":"address"}],"stateMutability":"nonpayable"},{"type":"function","name":"allTokens","inputs":[{"name":"","type":"uint256","internalType":"uint256"}],"outputs":[{"name":"","type":"uint256","internalType":"uint256"}],"stateMutability":"view"},{"type":"function","name":"balanceOf","inputs":[{"name":"account","type":"address","internalType":"address"},{"name":"id","type":"uint256","internalType":"uint256"}],"outputs":[{"name":"","type":"uint256","internalType":"uint256"}],"stateMutability":"view"},{"type":"function","name":"balanceOfBatch","inputs":[{"name":"accounts","type":"address[]","internalType":"address[]"},{"name":"ids","type":"uint256[]","internalType":"uint256[]"}],"outputs":[{"name":"","type":"uint256[]","internalType":"uint256[]"}],"stateMutability":"view"},{"type":"function","name":"bookMetaDatas","inputs":[{"name":"","type":"uint256","internalType":"uint256"}],"outputs":[{"name":"name","type":"string","internalType":"string"},{"name":"description","type":"string","internalType":"string"},{"name":"genre","type":"string","internalType":"string"},{"name":"price","type":"uint256","internalType":"uint256"},{"name":"author","type":"address","internalType":"address"},{"name":"isActive","type":"bool","internalType":"bool"},{"name":"tokenId","type":"uint256","internalType":"uint256"}],"stateMutability":"view"},{"type":"function","name":"booksByAuthor","inputs":[{"name":"","type":"address","internalType":"address"},{"name":"","type":"uint256","internalType":"uint256"}],"outputs":[{"name":"","type":"uint256","internalType":"uint256"}],"stateMutability":"view"},{"type":"function","name":"buyAccess","inputs":[{"name":"_tokenId","type":"uint256","internalType":"uint256"}],"outputs":[],"stateMutability":"nonpayable"},{"type":"function","name":"coins","inputs":[],"outputs":[{"name":"","type":"address","internalType":"contract IERC20"}],"stateMutability":"view"},{"type":"function","name":"getAllBooks","inputs":[],"outputs":[{"name":"","type":"tuple[]","internalType":"struct BookAccess.BookMetaData[]","components":[{"name":"name","type":"string","internalType":"string"},{"name":"description","type":"string","internalType":"string"},{"name":"genre","type":"string","internalType":"string"},{"name":"price","type":"uint256","internalType":"uint256"},{"name":"author","type":"address","internalType":"address"},{"name":"isActive","type":"bool","internalType":"bool"},{"name":"tokenId","type":"uint256","internalType":"uint256"}]}],"stateMutability":"view"},{"type":"function","name":"getNextTokenId","inputs":[],"outputs":[{"name":"","type":"uint256","internalType":"uint256"}],"stateMutability":"view"},{"type":"function","name":"isAllowed","inputs":[{"name":"user","type":"address","internalType":"address"},{"name":"tokenId","type":"uint256","internalType":"uint256"}],"outputs":[{"name":"","type":"bool","internalType":"bool"}],"stateMutability":"view"},{"type":"function","name":"isApprovedForAll","inputs":[{"name":"account","type":"address","internalType":"address"},{"name":"operator","type":"address","internalType":"address"}],"outputs":[{"name":"","type":"bool","internalType":"bool"}],"stateMutability":"view"},{"type":"function","name":"owner","inputs":[],"outputs":[{"name":"","type":"address","internalType":"address"}],"stateMutability":"view"},{"type":"function","name":"register","inputs":[{"name":"_name","type":"string","internalType":"string"},{"name":"_desc","type":"string","internalType":"string"},{"name":"_price","type":"uint256","internalType":"uint256"},{"name":"_genre","type":"string","internalType":"string"},{"name":"_author","type":"address","internalType":"address"}],"outputs":[{"name":"","type":"uint256","internalType":"uint256"}],"stateMutability":"nonpayable"},{"type":"function","name":"renounceOwnership","inputs":[],"outputs":[],"stateMutability":"nonpayable"},{"type":"function","name":"safeBatchTransferFrom","inputs":[{"name":"from","type":"address","internalType":"address"},{"name":"to","type":"address","internalType":"address"},{"name":"ids","type":"uint256[]","internalType":"uint256[]"},{"name":"values","type":"uint256[]","internalType":"uint256[]"},{"name":"data","type":"bytes","internalType":"bytes"}],"outputs":[],"stateMutability":"nonpayable"},{"type":"function","name":"safeTransferFrom","inputs":[{"name":"from","type":"address","internalType":"address"},{"name":"to","type":"address","internalType":"address"},{"name":"id","type":"uint256","internalType":"uint256"},{"name":"value","type":"uint256","internalType":"uint256"},{"name":"data","type":"bytes","internalType":"bytes"}],"outputs":[],"stateMutability":"nonpayable"},{"type":"function","name":"setApprovalForAll","inputs":[{"name":"operator","type":"address","internalType":"address"},{"name":"approved","type":"bool","internalType":"bool"}],"outputs":[],"stateMutability":"nonpayable"},{"type":"function","name":"supportsInterface","inputs":[{"name":"interfaceId","type":"bytes4","internalType":"bytes4"}],"outputs":[{"name":"","type":"bool","internalType":"bool"}],"stateMutability":"view"},{"type":"function","name":"transferOwnership","inputs":[{"name":"newOwner","type":"address","internalType":"address"}],"outputs":[],"stateMutability":"nonpayable"},{"type":"function","name":"uri","inputs":[{"name":"","type":"uint256","internalType":"uint256"}],"outputs":[{"name":"","type":"string","internalType":"string"}],"stateMutability":"view"},{"type":"event","name":"ApprovalForAll","inputs":[{"name":"account","type":"address","indexed":true,"internalType":"address"},{"name":"operator","type":"address","indexed":true,"internalType":"address"},{"name":"approved","type":"bool","indexed":false,"internalType":"bool"}],"anonymous":false},{"type":"event","name":"OwnershipTransferred","inputs":[{"name":"previousOwner","type":"address","indexed":true,"internalType":"address"},{"name":"newOwner","type":"address","indexed":true,"internalType":"address"}],"anonymous":false},{"type":"event","name":"TransferBatch","inputs":[{"name":"operator","type":"address","indexed":true,"internalType":"address"},{"name":"from","type":"address","indexed":true,"internalType":"address"},{"name":"to","type":"address","indexed":true,"internalType":"address"},{"name":"ids","type":"uint256[]","indexed":false,"internalType":"uint256[]"},{"name":"values","type":"uint256[]","indexed":false,"internalType":"uint256[]"}],"anonymous":false},{"type":"event","name":"TransferSingle","inputs":[{"name":"operator","type":"address","indexed":true,"internalType":"address"},{"name":"from","type":"address","indexed":true,"internalType":"address"},{"name":"to","type":"address","indexed":true,"internalType":"address"},{"name":"id","type":"uint256","indexed":false,"internalType":"uint256"},{"name":"value","type":"uint256","indexed":false,"internalType":"uint256"}],"anonymous":false},{"type":"event","name":"URI","inputs":[{"name":"value","type":"string","indexed":false,"internalType":"string"},{"name":"id","type":"uint256","indexed":true,"internalType":"uint256"}],"anonymous":false},{"type":"error","name":"ERC1155InsufficientBalance","inputs":[{"name":"sender","type":"address","internalType":"address"},{"name":"balance","type":"uint256","internalType":"uint256"},{"name":"needed","type":"uint256","internalType":"uint256"},{"name":"tokenId","type":"uint256","internalType":"uint256"}]},{"type":"error","name":"ERC1155InvalidApprover","inputs":[{"name":"approver","type":"address","internalType":"address"}]},{"type":"error","name":"ERC1155InvalidArrayLength","inputs":[{"name":"idsLength","type":"uint256","internalType":"uint256"},{"name":"valuesLength","type":"uint256","internalType":"uint256"}]},{"type":"error","name":"ERC1155InvalidOperator","inputs":[{"name":"operator","type":"address","internalType":"address"}]},{"type":"error","name":"ERC1155InvalidReceiver","inputs":[{"name":"receiver","type":"address","internalType":"address"}]},{"type":"error","name":"ERC1155InvalidSender","inputs":[{"name":"sender","type":"address","internalType":"address"}]},{"type":"error","name":"ERC1155MissingApprovalForAll","inputs":[{"name":"operator","type":"address","internalType":"address"},{"name":"owner","type":"address","internalType":"address"}]},{"type":"error","name":"OwnableInvalidOwner","inputs":[{"name":"owner","type":"address","internalType":"address"}]},{"type":"error","name":"OwnableUnauthorizedAccount","inputs":[{"name":"account","type":"address","internalType":"address"}]}],"bytecode":{"object":"0x608060405234801561000f575f5ffd5b50604051613f05380380613f0583398181016040528101906100319190610279565b336040518060400160405280600681526020017f426f6f6b496400000000000000000000000000000000000000000000000000008152506100778161014560201b60201c565b505f73ffffffffffffffffffffffffffffffffffffffff168173ffffffffffffffffffffffffffffffffffffffff16036100e8575f6040517f1e4fbdf70000000000000000000000000000000000000000000000000000000081526004016100df91906102b3565b60405180910390fd5b6100f78161015860201b60201c565b508060055f6101000a81548173ffffffffffffffffffffffffffffffffffffffff021916908373ffffffffffffffffffffffffffffffffffffffff1602179055505f600481905550506105d8565b80600290816101549190610509565b5050565b5f60035f9054906101000a900473ffffffffffffffffffffffffffffffffffffffff1690508160035f6101000a81548173ffffffffffffffffffffffffffffffffffffffff021916908373ffffffffffffffffffffffffffffffffffffffff1602179055508173ffffffffffffffffffffffffffffffffffffffff168173ffffffffffffffffffffffffffffffffffffffff167f8be0079c531659141344cd1fd0a4f28419497f9722a3daafe3b4186f6b6457e060405160405180910390a35050565b5f5ffd5b5f73ffffffffffffffffffffffffffffffffffffffff82169050919050565b5f6102488261021f565b9050919050565b6102588161023e565b8114610262575f5ffd5b50565b5f815190506102738161024f565b92915050565b5f6020828403121561028e5761028d61021b565b5b5f61029b84828501610265565b91505092915050565b6102ad8161023e565b82525050565b5f6020820190506102c65f8301846102a4565b92915050565b5f81519050919050565b7f4e487b71000000000000000000000000000000000000000000000000000000005f52604160045260245ffd5b7f4e487b71000000000000000000000000000000000000000000000000000000005f52602260045260245ffd5b5f600282049050600182168061034757607f821691505b60208210810361035a57610359610303565b5b50919050565b5f819050815f5260205f209050919050565b5f6020601f8301049050919050565b5f82821b905092915050565b5f600883026103bc7fffffffffffffffffffffffffffffffffffffffffffffffffffffffffffffffff82610381565b6103c68683610381565b95508019841693508086168417925050509392505050565b5f819050919050565b5f819050919050565b5f61040a610405610400846103de565b6103e7565b6103de565b9050919050565b5f819050919050565b610423836103f0565b61043761042f82610411565b84845461038d565b825550505050565b5f5f905090565b61044e61043f565b61045981848461041a565b505050565b5b8181101561047c576104715f82610446565b60018101905061045f565b5050565b601f8211156104c15761049281610360565b61049b84610372565b810160208510156104aa578190505b6104be6104b685610372565b83018261045e565b50505b505050565b5f82821c905092915050565b5f6104e15f19846008026104c6565b1980831691505092915050565b5f6104f983836104d2565b9150826002028217905092915050565b610512826102cc565b67ffffffffffffffff81111561052b5761052a6102d6565b5b6105358254610330565b610540828285610480565b5f60209050601f831160018114610571575f841561055f578287015190505b61056985826104ee565b8655506105d0565b601f19841661057f86610360565b5f5b828110156105a657848901518255600182019150602085019450602081019050610581565b868310156105c357848901516105bf601f8916826104d2565b8355505b6001600288020188555050505b505050505050565b613920806105e55f395ff3fe608060405234801561000f575f5ffd5b5060043610610129575f3560e01c80636bd37b03116100ab578063caa0f92a1161006f578063caa0f92a1461036b578063e985e9c514610389578063f242432a146103b9578063f2fde38b146103d5578063f8350ed0146103f157610129565b80636bd37b03146102c7578063715018a6146102f75780637c2bb5d3146103015780638da5cb5b14610331578063a22cb4651461034f57610129565b8063354528e8116100f2578063354528e8146101f75780634e1273f41461021557806350a1a264146102455780636059f7bc14610261578063634282af1461029757610129565b8062fdd58e1461012d57806301ffc9a71461015d5780630e89341c1461018d57806322fcefbe146101bd5780632eb2c2d6146101db575b5f5ffd5b6101476004803603810190610142919061247c565b610421565b60405161015491906124c9565b60405180910390f35b61017760048036038101906101729190612537565b610476565b604051610184919061257c565b60405180910390f35b6101a760048036038101906101a29190612595565b610557565b6040516101b49190612630565b60405180910390f35b6101c56105e9565b6040516101d291906126ab565b60405180910390f35b6101f560048036038101906101f091906128b4565b61060e565b005b6101ff6106b5565b60405161020c9190612b56565b60405180910390f35b61022f600480360381019061022a9190612c36565b6109c3565b60405161023c9190612d54565b60405180910390f35b61025f600480360381019061025a9190612595565b610acd565b005b61027b60048036038101906102769190612595565b610f96565b60405161028e9796959493929190612d83565b60405180910390f35b6102b160048036038101906102ac9190612595565b611192565b6040516102be91906124c9565b60405180910390f35b6102e160048036038101906102dc919061247c565b6111b2565b6040516102ee91906124c9565b60405180910390f35b6102ff6111dd565b005b61031b60048036038101906103169190612ea3565b6111f0565b60405161032891906124c9565b60405180910390f35b6103396113d3565b6040516103469190612f6e565b60405180910390f35b61036960048036038101906103649190612fb1565b6113fb565b005b610373611411565b60405161038091906124c9565b60405180910390f35b6103a3600480360381019061039e9190612fef565b61141a565b6040516103b0919061257c565b60405180910390f35b6103d360048036038101906103ce919061302d565b6114a8565b005b6103ef60048036038101906103ea91906130c0565b61154f565b005b61040b6004803603810190610406919061247c565b6115d3565b604051610418919061257c565b60405180910390f35b5f5f5f8381526020019081526020015f205f8473ffffffffffffffffffffffffffffffffffffffff1673ffffffffffffffffffffffffffffffffffffffff1681526020019081526020015f2054905092915050565b5f7fd9b67a26000000000000000000000000000000000000000000000000000000007bffffffffffffffffffffffffffffffffffffffffffffffffffffffff1916827bffffffffffffffffffffffffffffffffffffffffffffffffffffffff1916148061054057507f0e89341c000000000000000000000000000000000000000000000000000000007bffffffffffffffffffffffffffffffffffffffffffffffffffffffff1916827bffffffffffffffffffffffffffffffffffffffffffffffffffffffff1916145b80610550575061054f826115e8565b5b9050919050565b60606002805461056690613118565b80601f016020809104026020016040519081016040528092919081815260200182805461059290613118565b80156105dd5780601f106105b4576101008083540402835291602001916105dd565b820191905f5260205f20905b8154815290600101906020018083116105c057829003601f168201915b50505050509050919050565b60055f9054906101000a900473ffffffffffffffffffffffffffffffffffffffff1681565b5f610617611651565b90508073ffffffffffffffffffffffffffffffffffffffff168673ffffffffffffffffffffffffffffffffffffffff161415801561065c575061065a868261141a565b155b156106a05780866040517fe237d922000000000000000000000000000000000000000000000000000000008152600401610697929190613148565b60405180910390fd5b6106ad8686868686611658565b505050505050565b60605f60088054905090505f8167ffffffffffffffff8111156106db576106da6126c8565b5b60405190808252806020026020018201604052801561071457816020015b61070161238d565b8152602001906001900390816106f95790505b5090505f5f90505b828110156109ba5760065f6008838154811061073b5761073a61316f565b5b905f5260205f20015481526020019081526020015f206040518060e00160405290815f8201805461076b90613118565b80601f016020809104026020016040519081016040528092919081815260200182805461079790613118565b80156107e25780601f106107b9576101008083540402835291602001916107e2565b820191905f5260205f20905b8154815290600101906020018083116107c557829003601f168201915b505050505081526020016001820180546107fb90613118565b80601f016020809104026020016040519081016040528092919081815260200182805461082790613118565b80156108725780601f1061084957610100808354040283529160200191610872565b820191905f5260205f20905b81548152906001019060200180831161085557829003601f168201915b5050505050815260200160028201805461088b90613118565b80601f01602080910402602001604051908101604052809291908181526020018280546108b790613118565b80156109025780601f106108d957610100808354040283529160200191610902565b820191905f5260205f20905b8154815290600101906020018083116108e557829003601f168201915b5050505050815260200160038201548152602001600482015f9054906101000a900473ffffffffffffffffffffffffffffffffffffffff1673ffffffffffffffffffffffffffffffffffffffff1673ffffffffffffffffffffffffffffffffffffffff1681526020016004820160149054906101000a900460ff161515151581526020016005820154815250508282815181106109a2576109a161316f565b5b6020026020010181905250808060010191505061071c565b50809250505090565b60608151835114610a0f57815183516040517f5b059991000000000000000000000000000000000000000000000000000000008152600401610a0692919061319c565b60405180910390fd5b5f835167ffffffffffffffff811115610a2b57610a2a6126c8565b5b604051908082528060200260200182016040528015610a595781602001602082028036833780820191505090505b5090505f5f90505b8451811015610ac257610a98610a80828761174c90919063ffffffff16565b610a93838761175f90919063ffffffff16565b610421565b828281518110610aab57610aaa61316f565b5b602002602001018181525050806001019050610a61565b508091505092915050565b5f60065f8381526020019081526020015f206040518060e00160405290815f82018054610af990613118565b80601f0160208091040260200160405190810160405280929190818152602001828054610b2590613118565b8015610b705780601f10610b4757610100808354040283529160200191610b70565b820191905f5260205f20905b815481529060010190602001808311610b5357829003601f168201915b50505050508152602001600182018054610b8990613118565b80601f0160208091040260200160405190810160405280929190818152602001828054610bb590613118565b8015610c005780601f10610bd757610100808354040283529160200191610c00565b820191905f5260205f20905b815481529060010190602001808311610be357829003601f168201915b50505050508152602001600282018054610c1990613118565b80601f0160208091040260200160405190810160405280929190818152602001828054610c4590613118565b8015610c905780601f10610c6757610100808354040283529160200191610c90565b820191905f5260205f20905b815481529060010190602001808311610c7357829003601f168201915b5050505050815260200160038201548152602001600482015f9054906101000a900473ffffffffffffffffffffffffffffffffffffffff1673ffffffffffffffffffffffffffffffffffffffff1673ffffffffffffffffffffffffffffffffffffffff1681526020016004820160149054906101000a900460ff1615151515815260200160058201548152505090508060a00151610d63576040517f08c379a0000000000000000000000000000000000000000000000000000000008152600401610d5a9061320d565b60405180910390fd5b5f610d6e3384610421565b14610dae576040517f08c379a0000000000000000000000000000000000000000000000000000000008152600401610da590613275565b60405180910390fd5b806060015160055f9054906101000a900473ffffffffffffffffffffffffffffffffffffffff1673ffffffffffffffffffffffffffffffffffffffff166370a08231336040518263ffffffff1660e01b8152600401610e0d9190612f6e565b602060405180830381865afa158015610e28573d5f5f3e3d5ffd5b505050506040513d601f19601f82011682018060405250810190610e4c91906132a7565b1015610e8d576040517f08c379a0000000000000000000000000000000000000000000000000000000008152600401610e849061331c565b60405180910390fd5b5f60055f9054906101000a900473ffffffffffffffffffffffffffffffffffffffff1673ffffffffffffffffffffffffffffffffffffffff166323b872dd33846080015185606001516040518463ffffffff1660e01b8152600401610ef49392919061333a565b6020604051808303815f875af1158015610f10573d5f5f3e3d5ffd5b505050506040513d601f19601f82011682018060405250810190610f349190613383565b905080610f76576040517f08c379a0000000000000000000000000000000000000000000000000000000008152600401610f6d906133f8565b60405180910390fd5b610f913384600160405180602001604052805f815250611772565b505050565b6006602052805f5260405f205f91509050805f018054610fb590613118565b80601f0160208091040260200160405190810160405280929190818152602001828054610fe190613118565b801561102c5780601f106110035761010080835404028352916020019161102c565b820191905f5260205f20905b81548152906001019060200180831161100f57829003601f168201915b50505050509080600101805461104190613118565b80601f016020809104026020016040519081016040528092919081815260200182805461106d90613118565b80156110b85780601f1061108f576101008083540402835291602001916110b8565b820191905f5260205f20905b81548152906001019060200180831161109b57829003601f168201915b5050505050908060020180546110cd90613118565b80601f01602080910402602001604051908101604052809291908181526020018280546110f990613118565b80156111445780601f1061111b57610100808354040283529160200191611144565b820191905f5260205f20905b81548152906001019060200180831161112757829003601f168201915b505050505090806003015490806004015f9054906101000a900473ffffffffffffffffffffffffffffffffffffffff16908060040160149054906101000a900460ff16908060050154905087565b600881815481106111a1575f80fd5b905f5260205f20015f915090505481565b6007602052815f5260405f2081815481106111cb575f80fd5b905f5260205f20015f91509150505481565b6111e5611807565b6111ee5f61188e565b565b5f5f60045f81548092919061120490613443565b919050559050600881908060018154018082558091505060019003905f5260205f20015f90919091909150556040518060e001604052808881526020018781526020018581526020018681526020013373ffffffffffffffffffffffffffffffffffffffff1681526020016001151581526020018281525060065f8381526020019081526020015f205f820151815f0190816112a09190613621565b5060208201518160010190816112b69190613621565b5060408201518160020190816112cc9190613621565b50606082015181600301556080820151816004015f6101000a81548173ffffffffffffffffffffffffffffffffffffffff021916908373ffffffffffffffffffffffffffffffffffffffff16021790555060a08201518160040160146101000a81548160ff02191690831515021790555060c0820151816005015590505060075f3373ffffffffffffffffffffffffffffffffffffffff1673ffffffffffffffffffffffffffffffffffffffff1681526020019081526020015f2081908060018154018082558091505060019003905f5260205f20015f90919091909150556113c68382600160405180602001604052805f815250611772565b8091505095945050505050565b5f60035f9054906101000a900473ffffffffffffffffffffffffffffffffffffffff16905090565b61140d611406611651565b8383611951565b5050565b5f600454905090565b5f60015f8473ffffffffffffffffffffffffffffffffffffffff1673ffffffffffffffffffffffffffffffffffffffff1681526020019081526020015f205f8373ffffffffffffffffffffffffffffffffffffffff1673ffffffffffffffffffffffffffffffffffffffff1681526020019081526020015f205f9054906101000a900460ff16905092915050565b5f6114b1611651565b90508073ffffffffffffffffffffffffffffffffffffffff168673ffffffffffffffffffffffffffffffffffffffff16141580156114f657506114f4868261141a565b155b1561153a5780866040517fe237d922000000000000000000000000000000000000000000000000000000008152600401611531929190613148565b60405180910390fd5b6115478686868686611aba565b505050505050565b611557611807565b5f73ffffffffffffffffffffffffffffffffffffffff168173ffffffffffffffffffffffffffffffffffffffff16036115c7575f6040517f1e4fbdf70000000000000000000000000000000000000000000000000000000081526004016115be9190612f6e565b60405180910390fd5b6115d08161188e565b50565b5f5f6115df8484610421565b11905092915050565b5f7f01ffc9a7000000000000000000000000000000000000000000000000000000007bffffffffffffffffffffffffffffffffffffffffffffffffffffffff1916827bffffffffffffffffffffffffffffffffffffffffffffffffffffffff1916149050919050565b5f33905090565b5f73ffffffffffffffffffffffffffffffffffffffff168473ffffffffffffffffffffffffffffffffffffffff16036116c8575f6040517f57f447ce0000000000000000000000000000000000000000000000000000000081526004016116bf9190612f6e565b60405180910390fd5b5f73ffffffffffffffffffffffffffffffffffffffff168573ffffffffffffffffffffffffffffffffffffffff1603611738575f6040517f01a8351400000000000000000000000000000000000000000000000000000000815260040161172f9190612f6e565b60405180910390fd5b6117458585858585611bc0565b5050505050565b5f60208202602084010151905092915050565b5f60208202602084010151905092915050565b5f73ffffffffffffffffffffffffffffffffffffffff168473ffffffffffffffffffffffffffffffffffffffff16036117e2575f6040517f57f447ce0000000000000000000000000000000000000000000000000000000081526004016117d99190612f6e565b60405180910390fd5b5f5f6117ee8585611c6c565b915091506117ff5f87848487611bc0565b505050505050565b61180f611651565b73ffffffffffffffffffffffffffffffffffffffff1661182d6113d3565b73ffffffffffffffffffffffffffffffffffffffff161461188c57611850611651565b6040517f118cdaa70000000000000000000000000000000000000000000000000000000081526004016118839190612f6e565b60405180910390fd5b565b5f60035f9054906101000a900473ffffffffffffffffffffffffffffffffffffffff1690508160035f6101000a81548173ffffffffffffffffffffffffffffffffffffffff021916908373ffffffffffffffffffffffffffffffffffffffff1602179055508173ffffffffffffffffffffffffffffffffffffffff168173ffffffffffffffffffffffffffffffffffffffff167f8be0079c531659141344cd1fd0a4f28419497f9722a3daafe3b4186f6b6457e060405160405180910390a35050565b5f73ffffffffffffffffffffffffffffffffffffffff168273ffffffffffffffffffffffffffffffffffffffff16036119c1575f6040517fced3e1000000000000000000000000000000000000000000000000000000000081526004016119b89190612f6e565b60405180910390fd5b8060015f8573ffffffffffffffffffffffffffffffffffffffff1673ffffffffffffffffffffffffffffffffffffffff1681526020019081526020015f205f8473ffffffffffffffffffffffffffffffffffffffff1673ffffffffffffffffffffffffffffffffffffffff1681526020019081526020015f205f6101000a81548160ff0219169083151502179055508173ffffffffffffffffffffffffffffffffffffffff168373ffffffffffffffffffffffffffffffffffffffff167f17307eab39ab6107e8899845ad3d59bd9653f200f220920489ca2b5937696c3183604051611aad919061257c565b60405180910390a3505050565b5f73ffffffffffffffffffffffffffffffffffffffff168473ffffffffffffffffffffffffffffffffffffffff1603611b2a575f6040517f57f447ce000000000000000000000000000000000000000000000000000000008152600401611b219190612f6e565b60405180910390fd5b5f73ffffffffffffffffffffffffffffffffffffffff168573ffffffffffffffffffffffffffffffffffffffff1603611b9a575f6040517f01a83514000000000000000000000000000000000000000000000000000000008152600401611b919190612f6e565b60405180910390fd5b5f5f611ba68585611c6c565b91509150611bb78787848487611bc0565b50505050505050565b611bcc85858585611c9c565b5f73ffffffffffffffffffffffffffffffffffffffff168473ffffffffffffffffffffffffffffffffffffffff1614611c65575f611c08611651565b90506001845103611c54575f611c275f8661175f90919063ffffffff16565b90505f611c3d5f8661175f90919063ffffffff16565b9050611c4d83898985858961202f565b5050611c63565b611c628187878787876121de565b5b505b5050505050565b60608060405191506001825283602083015260408201905060018152826020820152604081016040529250929050565b8051825114611ce657815181516040517f5b059991000000000000000000000000000000000000000000000000000000008152600401611cdd92919061319c565b60405180910390fd5b5f611cef611651565b90505f5f90505b8351811015611eee575f611d13828661175f90919063ffffffff16565b90505f611d29838661175f90919063ffffffff16565b90505f73ffffffffffffffffffffffffffffffffffffffff168873ffffffffffffffffffffffffffffffffffffffff1614611e4c575f5f5f8481526020019081526020015f205f8a73ffffffffffffffffffffffffffffffffffffffff1673ffffffffffffffffffffffffffffffffffffffff1681526020019081526020015f2054905081811015611df857888183856040517f03dee4c5000000000000000000000000000000000000000000000000000000008152600401611def94939291906136f0565b60405180910390fd5b8181035f5f8581526020019081526020015f205f8b73ffffffffffffffffffffffffffffffffffffffff1673ffffffffffffffffffffffffffffffffffffffff1681526020019081526020015f2081905550505b5f73ffffffffffffffffffffffffffffffffffffffff168773ffffffffffffffffffffffffffffffffffffffff1614611ee157805f5f8481526020019081526020015f205f8973ffffffffffffffffffffffffffffffffffffffff1673ffffffffffffffffffffffffffffffffffffffff1681526020019081526020015f205f828254611ed99190613733565b925050819055505b5050806001019050611cf6565b506001835103611fa9575f611f0c5f8561175f90919063ffffffff16565b90505f611f225f8561175f90919063ffffffff16565b90508573ffffffffffffffffffffffffffffffffffffffff168773ffffffffffffffffffffffffffffffffffffffff168473ffffffffffffffffffffffffffffffffffffffff167fc3d58168c5ae7397731d063d5bbf3d657854427343f4c083240f7aacaa2d0f628585604051611f9a92919061319c565b60405180910390a45050612028565b8373ffffffffffffffffffffffffffffffffffffffff168573ffffffffffffffffffffffffffffffffffffffff168273ffffffffffffffffffffffffffffffffffffffff167f4a39dc06d4c0dbc64b70af90fd698a233a518aa5d07e595d983b8c0526c8f7fb868660405161201f929190613766565b60405180910390a45b5050505050565b5f8473ffffffffffffffffffffffffffffffffffffffff163b11156121d6578373ffffffffffffffffffffffffffffffffffffffff1663f23a6e6187878686866040518663ffffffff1660e01b815260040161208f9594939291906137ed565b6020604051808303815f875af19250505080156120ca57506040513d601f19601f820116820180604052508101906120c79190613859565b60015b61214b573d805f81146120f8576040519150601f19603f3d011682016040523d82523d5f602084013e6120fd565b606091505b505f81510361214357846040517f57f447ce00000000000000000000000000000000000000000000000000000000815260040161213a9190612f6e565b60405180910390fd5b805181602001fd5b63f23a6e6160e01b7bffffffffffffffffffffffffffffffffffffffffffffffffffffffff1916817bffffffffffffffffffffffffffffffffffffffffffffffffffffffff1916146121d457846040517f57f447ce0000000000000000000000000000000000000000000000000000000081526004016121cb9190612f6e565b60405180910390fd5b505b505050505050565b5f8473ffffffffffffffffffffffffffffffffffffffff163b1115612385578373ffffffffffffffffffffffffffffffffffffffff1663bc197c8187878686866040518663ffffffff1660e01b815260040161223e959493929190613884565b6020604051808303815f875af192505050801561227957506040513d601f19601f820116820180604052508101906122769190613859565b60015b6122fa573d805f81146122a7576040519150601f19603f3d011682016040523d82523d5f602084013e6122ac565b606091505b505f8151036122f257846040517f57f447ce0000000000000000000000000000000000000000000000000000000081526004016122e99190612f6e565b60405180910390fd5b805181602001fd5b63bc197c8160e01b7bffffffffffffffffffffffffffffffffffffffffffffffffffffffff1916817bffffffffffffffffffffffffffffffffffffffffffffffffffffffff19161461238357846040517f57f447ce00000000000000000000000000000000000000000000000000000000815260040161237a9190612f6e565b60405180910390fd5b505b505050505050565b6040518060e001604052806060815260200160608152602001606081526020015f81526020015f73ffffffffffffffffffffffffffffffffffffffff1681526020015f151581526020015f81525090565b5f604051905090565b5f5ffd5b5f5ffd5b5f73ffffffffffffffffffffffffffffffffffffffff82169050919050565b5f612418826123ef565b9050919050565b6124288161240e565b8114612432575f5ffd5b50565b5f813590506124438161241f565b92915050565b5f819050919050565b61245b81612449565b8114612465575f5ffd5b50565b5f8135905061247681612452565b92915050565b5f5f60408385031215612492576124916123e7565b5b5f61249f85828601612435565b92505060206124b085828601612468565b9150509250929050565b6124c381612449565b82525050565b5f6020820190506124dc5f8301846124ba565b92915050565b5f7fffffffff0000000000000000000000000000000000000000000000000000000082169050919050565b612516816124e2565b8114612520575f5ffd5b50565b5f813590506125318161250d565b92915050565b5f6020828403121561254c5761254b6123e7565b5b5f61255984828501612523565b91505092915050565b5f8115159050919050565b61257681612562565b82525050565b5f60208201905061258f5f83018461256d565b92915050565b5f602082840312156125aa576125a96123e7565b5b5f6125b784828501612468565b91505092915050565b5f81519050919050565b5f82825260208201905092915050565b8281835e5f83830152505050565b5f601f19601f8301169050919050565b5f612602826125c0565b61260c81856125ca565b935061261c8185602086016125da565b612625816125e8565b840191505092915050565b5f6020820190508181035f83015261264881846125f8565b905092915050565b5f819050919050565b5f61267361266e612669846123ef565b612650565b6123ef565b9050919050565b5f61268482612659565b9050919050565b5f6126958261267a565b9050919050565b6126a58161268b565b82525050565b5f6020820190506126be5f83018461269c565b92915050565b5f5ffd5b7f4e487b71000000000000000000000000000000000000000000000000000000005f52604160045260245ffd5b6126fe826125e8565b810181811067ffffffffffffffff8211171561271d5761271c6126c8565b5b80604052505050565b5f61272f6123de565b905061273b82826126f5565b919050565b5f67ffffffffffffffff82111561275a576127596126c8565b5b602082029050602081019050919050565b5f5ffd5b5f61278161277c84612740565b612726565b905080838252602082019050602084028301858111156127a4576127a361276b565b5b835b818110156127cd57806127b98882612468565b8452602084019350506020810190506127a6565b5050509392505050565b5f82601f8301126127eb576127ea6126c4565b5b81356127fb84826020860161276f565b91505092915050565b5f5ffd5b5f67ffffffffffffffff821115612822576128216126c8565b5b61282b826125e8565b9050602081019050919050565b828183375f83830152505050565b5f61285861285384612808565b612726565b90508281526020810184848401111561287457612873612804565b5b61287f848285612838565b509392505050565b5f82601f83011261289b5761289a6126c4565b5b81356128ab848260208601612846565b91505092915050565b5f5f5f5f5f60a086880312156128cd576128cc6123e7565b5b5f6128da88828901612435565b95505060206128eb88828901612435565b945050604086013567ffffffffffffffff81111561290c5761290b6123eb565b5b612918888289016127d7565b935050606086013567ffffffffffffffff811115612939576129386123eb565b5b612945888289016127d7565b925050608086013567ffffffffffffffff811115612966576129656123eb565b5b61297288828901612887565b9150509295509295909350565b5f81519050919050565b5f82825260208201905092915050565b5f819050602082019050919050565b5f82825260208201905092915050565b5f6129c2826125c0565b6129cc81856129a8565b93506129dc8185602086016125da565b6129e5816125e8565b840191505092915050565b6129f981612449565b82525050565b612a088161240e565b82525050565b612a1781612562565b82525050565b5f60e083015f8301518482035f860152612a3782826129b8565b91505060208301518482036020860152612a5182826129b8565b91505060408301518482036040860152612a6b82826129b8565b9150506060830151612a8060608601826129f0565b506080830151612a9360808601826129ff565b5060a0830151612aa660a0860182612a0e565b5060c0830151612ab960c08601826129f0565b508091505092915050565b5f612acf8383612a1d565b905092915050565b5f602082019050919050565b5f612aed8261297f565b612af78185612989565b935083602082028501612b0985612999565b805f5b85811015612b445784840389528151612b258582612ac4565b9450612b3083612ad7565b925060208a01995050600181019050612b0c565b50829750879550505050505092915050565b5f6020820190508181035f830152612b6e8184612ae3565b905092915050565b5f67ffffffffffffffff821115612b9057612b8f6126c8565b5b602082029050602081019050919050565b5f612bb3612bae84612b76565b612726565b90508083825260208201905060208402830185811115612bd657612bd561276b565b5b835b81811015612bff5780612beb8882612435565b845260208401935050602081019050612bd8565b5050509392505050565b5f82601f830112612c1d57612c1c6126c4565b5b8135612c2d848260208601612ba1565b91505092915050565b5f5f60408385031215612c4c57612c4b6123e7565b5b5f83013567ffffffffffffffff811115612c6957612c686123eb565b5b612c7585828601612c09565b925050602083013567ffffffffffffffff811115612c9657612c956123eb565b5b612ca2858286016127d7565b9150509250929050565b5f81519050919050565b5f82825260208201905092915050565b5f819050602082019050919050565b5f612ce083836129f0565b60208301905092915050565b5f602082019050919050565b5f612d0282612cac565b612d0c8185612cb6565b9350612d1783612cc6565b805f5b83811015612d47578151612d2e8882612cd5565b9750612d3983612cec565b925050600181019050612d1a565b5085935050505092915050565b5f6020820190508181035f830152612d6c8184612cf8565b905092915050565b612d7d8161240e565b82525050565b5f60e0820190508181035f830152612d9b818a6125f8565b90508181036020830152612daf81896125f8565b90508181036040830152612dc381886125f8565b9050612dd260608301876124ba565b612ddf6080830186612d74565b612dec60a083018561256d565b612df960c08301846124ba565b98975050505050505050565b5f67ffffffffffffffff821115612e1f57612e1e6126c8565b5b612e28826125e8565b9050602081019050919050565b5f612e47612e4284612e05565b612726565b905082815260208101848484011115612e6357612e62612804565b5b612e6e848285612838565b509392505050565b5f82601f830112612e8a57612e896126c4565b5b8135612e9a848260208601612e35565b91505092915050565b5f5f5f5f5f60a08688031215612ebc57612ebb6123e7565b5b5f86013567ffffffffffffffff811115612ed957612ed86123eb565b5b612ee588828901612e76565b955050602086013567ffffffffffffffff811115612f0657612f056123eb565b5b612f1288828901612e76565b9450506040612f2388828901612468565b935050606086013567ffffffffffffffff811115612f4457612f436123eb565b5b612f5088828901612e76565b9250506080612f6188828901612435565b9150509295509295909350565b5f602082019050612f815f830184612d74565b92915050565b612f9081612562565b8114612f9a575f5ffd5b50565b5f81359050612fab81612f87565b92915050565b5f5f60408385031215612fc757612fc66123e7565b5b5f612fd485828601612435565b9250506020612fe585828601612f9d565b9150509250929050565b5f5f60408385031215613005576130046123e7565b5b5f61301285828601612435565b925050602061302385828601612435565b9150509250929050565b5f5f5f5f5f60a08688031215613046576130456123e7565b5b5f61305388828901612435565b955050602061306488828901612435565b945050604061307588828901612468565b935050606061308688828901612468565b925050608086013567ffffffffffffffff8111156130a7576130a66123eb565b5b6130b388828901612887565b9150509295509295909350565b5f602082840312156130d5576130d46123e7565b5b5f6130e284828501612435565b91505092915050565b7f4e487b71000000000000000000000000000000000000000000000000000000005f52602260045260245ffd5b5f600282049050600182168061312f57607f821691505b602082108103613142576131416130eb565b5b50919050565b5f60408201905061315b5f830185612d74565b6131686020830184612d74565b9392505050565b7f4e487b71000000000000000000000000000000000000000000000000000000005f52603260045260245ffd5b5f6040820190506131af5f8301856124ba565b6131bc60208301846124ba565b9392505050565b7f426f6f6b20646f6573206e6f74206578697374000000000000000000000000005f82015250565b5f6131f76013836125ca565b9150613202826131c3565b602082019050919050565b5f6020820190508181035f830152613224816131eb565b9050919050565b7f416c7265616479206861766520616363657373000000000000000000000000005f82015250565b5f61325f6013836125ca565b915061326a8261322b565b602082019050919050565b5f6020820190508181035f83015261328c81613253565b9050919050565b5f815190506132a181612452565b92915050565b5f602082840312156132bc576132bb6123e7565b5b5f6132c984828501613293565b91505092915050565b7f496e73756666696369656e742062616c616e63650000000000000000000000005f82015250565b5f6133066014836125ca565b9150613311826132d2565b602082019050919050565b5f6020820190508181035f830152613333816132fa565b9050919050565b5f60608201905061334d5f830186612d74565b61335a6020830185612d74565b61336760408301846124ba565b949350505050565b5f8151905061337d81612f87565b92915050565b5f60208284031215613398576133976123e7565b5b5f6133a58482850161336f565b91505092915050565b7f546f6b656e207472616e73666572206661696c656400000000000000000000005f82015250565b5f6133e26015836125ca565b91506133ed826133ae565b602082019050919050565b5f6020820190508181035f83015261340f816133d6565b9050919050565b7f4e487b71000000000000000000000000000000000000000000000000000000005f52601160045260245ffd5b5f61344d82612449565b91507fffffffffffffffffffffffffffffffffffffffffffffffffffffffffffffffff820361347f5761347e613416565b5b600182019050919050565b5f819050815f5260205f209050919050565b5f6020601f8301049050919050565b5f82821b905092915050565b5f600883026134e67fffffffffffffffffffffffffffffffffffffffffffffffffffffffffffffffff826134ab565b6134f086836134ab565b95508019841693508086168417925050509392505050565b5f61352261351d61351884612449565b612650565b612449565b9050919050565b5f819050919050565b61353b83613508565b61354f61354782613529565b8484546134b7565b825550505050565b5f5f905090565b613566613557565b613571818484613532565b505050565b5b81811015613594576135895f8261355e565b600181019050613577565b5050565b601f8211156135d9576135aa8161348a565b6135b38461349c565b810160208510156135c2578190505b6135d66135ce8561349c565b830182613576565b50505b505050565b5f82821c905092915050565b5f6135f95f19846008026135de565b1980831691505092915050565b5f61361183836135ea565b9150826002028217905092915050565b61362a826125c0565b67ffffffffffffffff811115613643576136426126c8565b5b61364d8254613118565b613658828285613598565b5f60209050601f831160018114613689575f8415613677578287015190505b6136818582613606565b8655506136e8565b601f1984166136978661348a565b5f5b828110156136be57848901518255600182019150602085019450602081019050613699565b868310156136db57848901516136d7601f8916826135ea565b8355505b6001600288020188555050505b505050505050565b5f6080820190506137035f830187612d74565b61371060208301866124ba565b61371d60408301856124ba565b61372a60608301846124ba565b95945050505050565b5f61373d82612449565b915061374883612449565b92508282019050808211156137605761375f613416565b5b92915050565b5f6040820190508181035f83015261377e8185612cf8565b905081810360208301526137928184612cf8565b90509392505050565b5f81519050919050565b5f82825260208201905092915050565b5f6137bf8261379b565b6137c981856137a5565b93506137d98185602086016125da565b6137e2816125e8565b840191505092915050565b5f60a0820190506138005f830188612d74565b61380d6020830187612d74565b61381a60408301866124ba565b61382760608301856124ba565b818103608083015261383981846137b5565b90509695505050505050565b5f815190506138538161250d565b92915050565b5f6020828403121561386e5761386d6123e7565b5b5f61387b84828501613845565b91505092915050565b5f60a0820190506138975f830188612d74565b6138a46020830187612d74565b81810360408301526138b68186612cf8565b905081810360608301526138ca8185612cf8565b905081810360808301526138de81846137b5565b9050969550505050505056fea26469706673582212203b7e10596b921a93304162a398bbd2526ad06eb69ca1730a283e81bb764736c564736f6c634300081e0033","linkReferences":{}},"methodIdentifiers":{"allTokens(uint256)":"634282af","balanceOf(address,uint256)":"00fdd58e","balanceOfBatch(address[],uint256[])":"4e1273f4","bookMetaDatas(uint256)":"6059f7bc","booksByAuthor(address,uint256)":"6bd37b03","buyAccess(uint256)":"50a1a264","coins()":"22fcefbe","getAllBooks()":"354528e8","getNextTokenId()":"caa0f92a","isAllowed(address,uint256)":"f8350ed0","isApprovedForAll(address,address)":"e985e9c5","owner()":"8da5cb5b","register(string,string,uint256,string,address)":"7c2bb5d3","renounceOwnership()":"715018a6","safeBatchTransferFrom(address,address,uint256[],uint256[],bytes)":"2eb2c2d6","safeTransferFrom(address,address,uint256,uint256,bytes)":"f242432a","setApprovalForAll(address,bool)":"a22cb465","supportsInterface(bytes4)":"01ffc9a7","transferOwnership(address)":"f2fde38b","uri(uint256)":"0e89341c"},"id":36}