{"abi":[{"type":"constructor","inputs":[{"name":"_tokenAddress","type":"address","internalType":"address"}],"stateMutability":"nonpayable"},{"type":"function","name":"balanceOf","inputs":[{"name":"account","type":"address","internalType":"address"},{"name":"id","type":"uint256","internalType":"uint256"}],"outputs":[{"name":"","type":"uint256","internalType":"uint256"}],"stateMutability":"view"},{"type":"function","name":"balanceOfBatch","inputs":[{"name":"accounts","type":"address[]","internalType":"address[]"},{"name":"ids","type":"uint256[]","internalType":"uint256[]"}],"outputs":[{"name":"","type":"uint256[]","internalType":"uint256[]"}],"stateMutability":"view"},{"type":"function","name":"bookMetaDatas","inputs":[{"name":"","type":"uint256","internalType":"uint256"}],"outputs":[{"name":"name","type":"string","internalType":"string"},{"name":"description","type":"string","internalType":"string"},{"name":"author","type":"address","internalType":"address"},{"name":"price","type":"uint256","internalType":"uint256"}],"stateMutability":"view"},{"type":"function","name":"booksByAuthor","inputs":[{"name":"","type":"address","internalType":"address"},{"name":"","type":"uint256","internalType":"uint256"}],"outputs":[{"name":"","type":"uint256","internalType":"uint256"}],"stateMutability":"view"},{"type":"function","name":"buyBook","inputs":[{"name":"tokenId","type":"uint256","internalType":"uint256"}],"outputs":[],"stateMutability":"nonpayable"},{"type":"function","name":"coins","inputs":[],"outputs":[{"name":"","type":"address","internalType":"contract IERC20"}],"stateMutability":"view"},{"type":"function","name":"getBookURI","inputs":[{"name":"tokenId","type":"uint256","internalType":"uint256"}],"outputs":[{"name":"","type":"string","internalType":"string"}],"stateMutability":"view"},{"type":"function","name":"isApprovedForAll","inputs":[{"name":"account","type":"address","internalType":"address"},{"name":"operator","type":"address","internalType":"address"}],"outputs":[{"name":"","type":"bool","internalType":"bool"}],"stateMutability":"view"},{"type":"function","name":"nextTokenId","inputs":[],"outputs":[{"name":"","type":"uint256","internalType":"uint256"}],"stateMutability":"view"},{"type":"function","name":"owner","inputs":[],"outputs":[{"name":"","type":"address","internalType":"address"}],"stateMutability":"view"},{"type":"function","name":"renounceOwnership","inputs":[],"outputs":[],"stateMutability":"nonpayable"},{"type":"function","name":"safeBatchTransferFrom","inputs":[{"name":"from","type":"address","internalType":"address"},{"name":"to","type":"address","internalType":"address"},{"name":"ids","type":"uint256[]","internalType":"uint256[]"},{"name":"values","type":"uint256[]","internalType":"uint256[]"},{"name":"data","type":"bytes","internalType":"bytes"}],"outputs":[],"stateMutability":"nonpayable"},{"type":"function","name":"safeTransferFrom","inputs":[{"name":"from","type":"address","internalType":"address"},{"name":"to","type":"address","internalType":"address"},{"name":"id","type":"uint256","internalType":"uint256"},{"name":"value","type":"uint256","internalType":"uint256"},{"name":"data","type":"bytes","internalType":"bytes"}],"outputs":[],"stateMutability":"nonpayable"},{"type":"function","name":"setApprovalForAll","inputs":[{"name":"operator","type":"address","internalType":"address"},{"name":"approved","type":"bool","internalType":"bool"}],"outputs":[],"stateMutability":"nonpayable"},{"type":"function","name":"supportsInterface","inputs":[{"name":"interfaceId","type":"bytes4","internalType":"bytes4"}],"outputs":[{"name":"","type":"bool","internalType":"bool"}],"stateMutability":"view"},{"type":"function","name":"tokenURIs","inputs":[{"name":"","type":"uint256","internalType":"uint256"}],"outputs":[{"name":"","type":"string","internalType":"string"}],"stateMutability":"view"},{"type":"function","name":"transferOwnership","inputs":[{"name":"newOwner","type":"address","internalType":"address"}],"outputs":[],"stateMutability":"nonpayable"},{"type":"function","name":"upload","inputs":[{"name":"_cid","type":"string","internalType":"string"},{"name":"_name","type":"string","internalType":"string"},{"name":"_desc","type":"string","internalType":"string"},{"name":"_price","type":"uint256","internalType":"uint256"}],"outputs":[{"name":"tokenId","type":"uint256","internalType":"uint256"}],"stateMutability":"nonpayable"},{"type":"function","name":"uri","inputs":[{"name":"","type":"uint256","internalType":"uint256"}],"outputs":[{"name":"","type":"string","internalType":"string"}],"stateMutability":"view"},{"type":"event","name":"ApprovalForAll","inputs":[{"name":"account","type":"address","indexed":true,"internalType":"address"},{"name":"operator","type":"address","indexed":true,"internalType":"address"},{"name":"approved","type":"bool","indexed":false,"internalType":"bool"}],"anonymous":false},{"type":"event","name":"OwnershipTransferred","inputs":[{"name":"previousOwner","type":"address","indexed":true,"internalType":"address"},{"name":"newOwner","type":"address","indexed":true,"internalType":"address"}],"anonymous":false},{"type":"event","name":"TransferBatch","inputs":[{"name":"operator","type":"address","indexed":true,"internalType":"address"},{"name":"from","type":"address","indexed":true,"internalType":"address"},{"name":"to","type":"address","indexed":true,"internalType":"address"},{"name":"ids","type":"uint256[]","indexed":false,"internalType":"uint256[]"},{"name":"values","type":"uint256[]","indexed":false,"internalType":"uint256[]"}],"anonymous":false},{"type":"event","name":"TransferSingle","inputs":[{"name":"operator","type":"address","indexed":true,"internalType":"address"},{"name":"from","type":"address","indexed":true,"internalType":"address"},{"name":"to","type":"address","indexed":true,"internalType":"address"},{"name":"id","type":"uint256","indexed":false,"internalType":"uint256"},{"name":"value","type":"uint256","indexed":false,"internalType":"uint256"}],"anonymous":false},{"type":"event","name":"URI","inputs":[{"name":"value","type":"string","indexed":false,"internalType":"string"},{"name":"id","type":"uint256","indexed":true,"internalType":"uint256"}],"anonymous":false},{"type":"error","name":"ERC1155InsufficientBalance","inputs":[{"name":"sender","type":"address","internalType":"address"},{"name":"balance","type":"uint256","internalType":"uint256"},{"name":"needed","type":"uint256","internalType":"uint256"},{"name":"tokenId","type":"uint256","internalType":"uint256"}]},{"type":"error","name":"ERC1155InvalidApprover","inputs":[{"name":"approver","type":"address","internalType":"address"}]},{"type":"error","name":"ERC1155InvalidArrayLength","inputs":[{"name":"idsLength","type":"uint256","internalType":"uint256"},{"name":"valuesLength","type":"uint256","internalType":"uint256"}]},{"type":"error","name":"ERC1155InvalidOperator","inputs":[{"name":"operator","type":"address","internalType":"address"}]},{"type":"error","name":"ERC1155InvalidReceiver","inputs":[{"name":"receiver","type":"address","internalType":"address"}]},{"type":"error","name":"ERC1155InvalidSender","inputs":[{"name":"sender","type":"address","internalType":"address"}]},{"type":"error","name":"ERC1155MissingApprovalForAll","inputs":[{"name":"operator","type":"address","internalType":"address"},{"name":"owner","type":"address","internalType":"address"}]},{"type":"error","name":"OwnableInvalidOwner","inputs":[{"name":"owner","type":"address","internalType":"address"}]},{"type":"error","name":"OwnableUnauthorizedAccount","inputs":[{"name":"account","type":"address","internalType":"address"}]}],"bytecode":{"object":"0x608060405234801561000f575f5ffd5b5060405161395838038061395883398181016040528101906100319190610272565b336040518060400160405280600681526020017f426f6f6b496400000000000000000000000000000000000000000000000000008152506100778161013e60201b60201c565b505f73ffffffffffffffffffffffffffffffffffffffff168173ffffffffffffffffffffffffffffffffffffffff16036100e8575f6040517f1e4fbdf70000000000000000000000000000000000000000000000000000000081526004016100df91906102ac565b60405180910390fd5b6100f78161015160201b60201c565b508060055f6101000a81548173ffffffffffffffffffffffffffffffffffffffff021916908373ffffffffffffffffffffffffffffffffffffffff160217905550506105d1565b806002908161014d9190610502565b5050565b5f60035f9054906101000a900473ffffffffffffffffffffffffffffffffffffffff1690508160035f6101000a81548173ffffffffffffffffffffffffffffffffffffffff021916908373ffffffffffffffffffffffffffffffffffffffff1602179055508173ffffffffffffffffffffffffffffffffffffffff168173ffffffffffffffffffffffffffffffffffffffff167f8be0079c531659141344cd1fd0a4f28419497f9722a3daafe3b4186f6b6457e060405160405180910390a35050565b5f5ffd5b5f73ffffffffffffffffffffffffffffffffffffffff82169050919050565b5f61024182610218565b9050919050565b61025181610237565b811461025b575f5ffd5b50565b5f8151905061026c81610248565b92915050565b5f6020828403121561028757610286610214565b5b5f6102948482850161025e565b91505092915050565b6102a681610237565b82525050565b5f6020820190506102bf5f83018461029d565b92915050565b5f81519050919050565b7f4e487b71000000000000000000000000000000000000000000000000000000005f52604160045260245ffd5b7f4e487b71000000000000000000000000000000000000000000000000000000005f52602260045260245ffd5b5f600282049050600182168061034057607f821691505b602082108103610353576103526102fc565b5b50919050565b5f819050815f5260205f209050919050565b5f6020601f8301049050919050565b5f82821b905092915050565b5f600883026103b57fffffffffffffffffffffffffffffffffffffffffffffffffffffffffffffffff8261037a565b6103bf868361037a565b95508019841693508086168417925050509392505050565b5f819050919050565b5f819050919050565b5f6104036103fe6103f9846103d7565b6103e0565b6103d7565b9050919050565b5f819050919050565b61041c836103e9565b6104306104288261040a565b848454610386565b825550505050565b5f5f905090565b610447610438565b610452818484610413565b505050565b5b818110156104755761046a5f8261043f565b600181019050610458565b5050565b601f8211156104ba5761048b81610359565b6104948461036b565b810160208510156104a3578190505b6104b76104af8561036b565b830182610457565b50505b505050565b5f82821c905092915050565b5f6104da5f19846008026104bf565b1980831691505092915050565b5f6104f283836104cb565b9150826002028217905092915050565b61050b826102c5565b67ffffffffffffffff811115610524576105236102cf565b5b61052e8254610329565b610539828285610479565b5f60209050601f83116001811461056a575f8415610558578287015190505b61056285826104e7565b8655506105c9565b601f19841661057886610359565b5f5b8281101561059f5784890151825560018201915060208501945060208101905061057a565b868310156105bc57848901516105b8601f8916826104cb565b8355505b6001600288020188555050505b505050505050565b61337a806105de5f395ff3fe608060405234801561000f575f5ffd5b506004361061011e575f3560e01c80636ee26566116100ab5780638da5cb5b1161006f5780638da5cb5b14610353578063a22cb46514610371578063e985e9c51461038d578063f242432a146103bd578063f2fde38b146103d95761011e565b80636ee26566146102af578063715018a6146102cb57806375794a3c146102d557806381d41c95146102f3578063898f8b1a146103235761011e565b80632eb2c2d6116100f25780632eb2c2d6146101d05780634e1273f4146101ec5780636059f7bc1461021c5780636bd37b031461024f5780636c8b703f1461027f5761011e565b8062fdd58e1461012257806301ffc9a7146101525780630e89341c1461018257806322fcefbe146101b2575b5f5ffd5b61013c60048036038101906101379190611fe7565b6103f5565b6040516101499190612034565b60405180910390f35b61016c600480360381019061016791906120a2565b61044a565b60405161017991906120e7565b60405180910390f35b61019c60048036038101906101979190612100565b61052b565b6040516101a9919061219b565b60405180910390f35b6101ba6105bd565b6040516101c79190612216565b60405180910390f35b6101ea60048036038101906101e5919061241f565b6105e2565b005b610206600480360381019061020191906125aa565b610689565b60405161021391906126d7565b60405180910390f35b61023660048036038101906102319190612100565b610793565b6040516102469493929190612706565b60405180910390f35b61026960048036038101906102649190611fe7565b6108ea565b6040516102769190612034565b60405180910390f35b61029960048036038101906102949190612100565b610915565b6040516102a6919061219b565b60405180910390f35b6102c960048036038101906102c49190612100565b6109b0565b005b6102d3610d8f565b005b6102dd610da2565b6040516102ea9190612034565b60405180910390f35b61030d600480360381019061030891906127f5565b610da8565b60405161031a9190612034565b60405180910390f35b61033d60048036038101906103389190612100565b610f29565b60405161034a919061219b565b60405180910390f35b61035b610fad565b60405161036891906128ad565b60405180910390f35b61038b600480360381019061038691906128f0565b610fd5565b005b6103a760048036038101906103a2919061292e565b610feb565b6040516103b491906120e7565b60405180910390f35b6103d760048036038101906103d2919061296c565b611079565b005b6103f360048036038101906103ee91906129ff565b611120565b005b5f5f5f8381526020019081526020015f205f8473ffffffffffffffffffffffffffffffffffffffff1673ffffffffffffffffffffffffffffffffffffffff1681526020019081526020015f2054905092915050565b5f7fd9b67a26000000000000000000000000000000000000000000000000000000007bffffffffffffffffffffffffffffffffffffffffffffffffffffffff1916827bffffffffffffffffffffffffffffffffffffffffffffffffffffffff1916148061051457507f0e89341c000000000000000000000000000000000000000000000000000000007bffffffffffffffffffffffffffffffffffffffffffffffffffffffff1916827bffffffffffffffffffffffffffffffffffffffffffffffffffffffff1916145b806105245750610523826111a4565b5b9050919050565b60606002805461053a90612a57565b80601f016020809104026020016040519081016040528092919081815260200182805461056690612a57565b80156105b15780601f10610588576101008083540402835291602001916105b1565b820191905f5260205f20905b81548152906001019060200180831161059457829003601f168201915b50505050509050919050565b60055f9054906101000a900473ffffffffffffffffffffffffffffffffffffffff1681565b5f6105eb61120d565b90508073ffffffffffffffffffffffffffffffffffffffff168673ffffffffffffffffffffffffffffffffffffffff1614158015610630575061062e8682610feb565b155b156106745780866040517fe237d92200000000000000000000000000000000000000000000000000000000815260040161066b929190612a87565b60405180910390fd5b6106818686868686611214565b505050505050565b606081518351146106d557815183516040517f5b0599910000000000000000000000000000000000000000000000000000000081526004016106cc929190612aae565b60405180910390fd5b5f835167ffffffffffffffff8111156106f1576106f0612233565b5b60405190808252806020026020018201604052801561071f5781602001602082028036833780820191505090505b5090505f5f90505b84518110156107885761075e610746828761130890919063ffffffff16565b610759838761131b90919063ffffffff16565b6103f5565b82828151811061077157610770612ad5565b5b602002602001018181525050806001019050610727565b508091505092915050565b6007602052805f5260405f205f91509050805f0180546107b290612a57565b80601f01602080910402602001604051908101604052809291908181526020018280546107de90612a57565b80156108295780601f1061080057610100808354040283529160200191610829565b820191905f5260205f20905b81548152906001019060200180831161080c57829003601f168201915b50505050509080600101805461083e90612a57565b80601f016020809104026020016040519081016040528092919081815260200182805461086a90612a57565b80156108b55780601f1061088c576101008083540402835291602001916108b5565b820191905f5260205f20905b81548152906001019060200180831161089857829003601f168201915b505050505090806002015f9054906101000a900473ffffffffffffffffffffffffffffffffffffffff16908060030154905084565b6008602052815f5260405f208181548110610903575f80fd5b905f5260205f20015f91509150505481565b6006602052805f5260405f205f91509050805461093190612a57565b80601f016020809104026020016040519081016040528092919081815260200182805461095d90612a57565b80156109a85780601f1061097f576101008083540402835291602001916109a8565b820191905f5260205f20905b81548152906001019060200180831161098b57829003601f168201915b505050505081565b5f60065f8381526020019081526020015f2080546109cd90612a57565b905003610a0f576040517f08c379a0000000000000000000000000000000000000000000000000000000008152600401610a0690612b4c565b60405180910390fd5b5f60075f8381526020019081526020015f206040518060800160405290815f82018054610a3b90612a57565b80601f0160208091040260200160405190810160405280929190818152602001828054610a6790612a57565b8015610ab25780601f10610a8957610100808354040283529160200191610ab2565b820191905f5260205f20905b815481529060010190602001808311610a9557829003601f168201915b50505050508152602001600182018054610acb90612a57565b80601f0160208091040260200160405190810160405280929190818152602001828054610af790612a57565b8015610b425780601f10610b1957610100808354040283529160200191610b42565b820191905f5260205f20905b815481529060010190602001808311610b2557829003601f168201915b50505050508152602001600282015f9054906101000a900473ffffffffffffffffffffffffffffffffffffffff1673ffffffffffffffffffffffffffffffffffffffff1673ffffffffffffffffffffffffffffffffffffffff1681526020016003820154815250509050806060015160055f9054906101000a900473ffffffffffffffffffffffffffffffffffffffff1673ffffffffffffffffffffffffffffffffffffffff166370a08231336040518263ffffffff1660e01b8152600401610c0b91906128ad565b602060405180830381865afa158015610c26573d5f5f3e3d5ffd5b505050506040513d601f19601f82011682018060405250810190610c4a9190612b7e565b1015610c8b576040517f08c379a0000000000000000000000000000000000000000000000000000000008152600401610c8290612bf3565b60405180910390fd5b60055f9054906101000a900473ffffffffffffffffffffffffffffffffffffffff1673ffffffffffffffffffffffffffffffffffffffff166323b872dd33836040015184606001516040518463ffffffff1660e01b8152600401610cf193929190612c11565b6020604051808303815f875af1158015610d0d573d5f5f3e3d5ffd5b505050506040513d601f19601f82011682018060405250810190610d319190612c5a565b610d70576040517f08c379a0000000000000000000000000000000000000000000000000000000008152600401610d6790612ccf565b60405180910390fd5b610d8b3383600160405180602001604052805f81525061132e565b5050565b610d976113c3565b610da05f61144a565b565b60045481565b5f60045f815480929190610dbb90612d1a565b9190505590508460065f8381526020019081526020015f209081610ddf9190612ef8565b5060405180608001604052808581526020018481526020013373ffffffffffffffffffffffffffffffffffffffff1681526020018381525060075f8381526020019081526020015f205f820151815f019081610e3b9190612ef8565b506020820151816001019081610e519190612ef8565b506040820151816002015f6101000a81548173ffffffffffffffffffffffffffffffffffffffff021916908373ffffffffffffffffffffffffffffffffffffffff1602179055506060820151816003015590505060085f3373ffffffffffffffffffffffffffffffffffffffff1673ffffffffffffffffffffffffffffffffffffffff1681526020019081526020015f2081908060018154018082558091505060019003905f5260205f20015f9091909190915055610f213382600160405180602001604052805f81525061132e565b949350505050565b60605f610f3633846103f5565b11610f76576040517f08c379a0000000000000000000000000000000000000000000000000000000008152600401610f6d90613037565b60405180910390fd5b60065f8381526020019081526020015f20604051602001610f979190613129565b6040516020818303038152906040529050919050565b5f60035f9054906101000a900473ffffffffffffffffffffffffffffffffffffffff16905090565b610fe7610fe061120d565b838361150d565b5050565b5f60015f8473ffffffffffffffffffffffffffffffffffffffff1673ffffffffffffffffffffffffffffffffffffffff1681526020019081526020015f205f8373ffffffffffffffffffffffffffffffffffffffff1673ffffffffffffffffffffffffffffffffffffffff1681526020019081526020015f205f9054906101000a900460ff16905092915050565b5f61108261120d565b90508073ffffffffffffffffffffffffffffffffffffffff168673ffffffffffffffffffffffffffffffffffffffff16141580156110c757506110c58682610feb565b155b1561110b5780866040517fe237d922000000000000000000000000000000000000000000000000000000008152600401611102929190612a87565b60405180910390fd5b6111188686868686611676565b505050505050565b6111286113c3565b5f73ffffffffffffffffffffffffffffffffffffffff168173ffffffffffffffffffffffffffffffffffffffff1603611198575f6040517f1e4fbdf700000000000000000000000000000000000000000000000000000000815260040161118f91906128ad565b60405180910390fd5b6111a18161144a565b50565b5f7f01ffc9a7000000000000000000000000000000000000000000000000000000007bffffffffffffffffffffffffffffffffffffffffffffffffffffffff1916827bffffffffffffffffffffffffffffffffffffffffffffffffffffffff1916149050919050565b5f33905090565b5f73ffffffffffffffffffffffffffffffffffffffff168473ffffffffffffffffffffffffffffffffffffffff1603611284575f6040517f57f447ce00000000000000000000000000000000000000000000000000000000815260040161127b91906128ad565b60405180910390fd5b5f73ffffffffffffffffffffffffffffffffffffffff168573ffffffffffffffffffffffffffffffffffffffff16036112f4575f6040517f01a835140000000000000000000000000000000000000000000000000000000081526004016112eb91906128ad565b60405180910390fd5b611301858585858561177c565b5050505050565b5f60208202602084010151905092915050565b5f60208202602084010151905092915050565b5f73ffffffffffffffffffffffffffffffffffffffff168473ffffffffffffffffffffffffffffffffffffffff160361139e575f6040517f57f447ce00000000000000000000000000000000000000000000000000000000815260040161139591906128ad565b60405180910390fd5b5f5f6113aa8585611828565b915091506113bb5f8784848761177c565b505050505050565b6113cb61120d565b73ffffffffffffffffffffffffffffffffffffffff166113e9610fad565b73ffffffffffffffffffffffffffffffffffffffff16146114485761140c61120d565b6040517f118cdaa700000000000000000000000000000000000000000000000000000000815260040161143f91906128ad565b60405180910390fd5b565b5f60035f9054906101000a900473ffffffffffffffffffffffffffffffffffffffff1690508160035f6101000a81548173ffffffffffffffffffffffffffffffffffffffff021916908373ffffffffffffffffffffffffffffffffffffffff1602179055508173ffffffffffffffffffffffffffffffffffffffff168173ffffffffffffffffffffffffffffffffffffffff167f8be0079c531659141344cd1fd0a4f28419497f9722a3daafe3b4186f6b6457e060405160405180910390a35050565b5f73ffffffffffffffffffffffffffffffffffffffff168273ffffffffffffffffffffffffffffffffffffffff160361157d575f6040517fced3e10000000000000000000000000000000000000000000000000000000000815260040161157491906128ad565b60405180910390fd5b8060015f8573ffffffffffffffffffffffffffffffffffffffff1673ffffffffffffffffffffffffffffffffffffffff1681526020019081526020015f205f8473ffffffffffffffffffffffffffffffffffffffff1673ffffffffffffffffffffffffffffffffffffffff1681526020019081526020015f205f6101000a81548160ff0219169083151502179055508173ffffffffffffffffffffffffffffffffffffffff168373ffffffffffffffffffffffffffffffffffffffff167f17307eab39ab6107e8899845ad3d59bd9653f200f220920489ca2b5937696c318360405161166991906120e7565b60405180910390a3505050565b5f73ffffffffffffffffffffffffffffffffffffffff168473ffffffffffffffffffffffffffffffffffffffff16036116e6575f6040517f57f447ce0000000000000000000000000000000000000000000000000000000081526004016116dd91906128ad565b60405180910390fd5b5f73ffffffffffffffffffffffffffffffffffffffff168573ffffffffffffffffffffffffffffffffffffffff1603611756575f6040517f01a8351400000000000000000000000000000000000000000000000000000000815260040161174d91906128ad565b60405180910390fd5b5f5f6117628585611828565b91509150611773878784848761177c565b50505050505050565b61178885858585611858565b5f73ffffffffffffffffffffffffffffffffffffffff168473ffffffffffffffffffffffffffffffffffffffff1614611821575f6117c461120d565b90506001845103611810575f6117e35f8661131b90919063ffffffff16565b90505f6117f95f8661131b90919063ffffffff16565b9050611809838989858589611beb565b505061181f565b61181e818787878787611d9a565b5b505b5050505050565b60608060405191506001825283602083015260408201905060018152826020820152604081016040529250929050565b80518251146118a257815181516040517f5b059991000000000000000000000000000000000000000000000000000000008152600401611899929190612aae565b60405180910390fd5b5f6118ab61120d565b90505f5f90505b8351811015611aaa575f6118cf828661131b90919063ffffffff16565b90505f6118e5838661131b90919063ffffffff16565b90505f73ffffffffffffffffffffffffffffffffffffffff168873ffffffffffffffffffffffffffffffffffffffff1614611a08575f5f5f8481526020019081526020015f205f8a73ffffffffffffffffffffffffffffffffffffffff1673ffffffffffffffffffffffffffffffffffffffff1681526020019081526020015f20549050818110156119b457888183856040517f03dee4c50000000000000000000000000000000000000000000000000000000081526004016119ab949392919061314a565b60405180910390fd5b8181035f5f8581526020019081526020015f205f8b73ffffffffffffffffffffffffffffffffffffffff1673ffffffffffffffffffffffffffffffffffffffff1681526020019081526020015f2081905550505b5f73ffffffffffffffffffffffffffffffffffffffff168773ffffffffffffffffffffffffffffffffffffffff1614611a9d57805f5f8481526020019081526020015f205f8973ffffffffffffffffffffffffffffffffffffffff1673ffffffffffffffffffffffffffffffffffffffff1681526020019081526020015f205f828254611a95919061318d565b925050819055505b50508060010190506118b2565b506001835103611b65575f611ac85f8561131b90919063ffffffff16565b90505f611ade5f8561131b90919063ffffffff16565b90508573ffffffffffffffffffffffffffffffffffffffff168773ffffffffffffffffffffffffffffffffffffffff168473ffffffffffffffffffffffffffffffffffffffff167fc3d58168c5ae7397731d063d5bbf3d657854427343f4c083240f7aacaa2d0f628585604051611b56929190612aae565b60405180910390a45050611be4565b8373ffffffffffffffffffffffffffffffffffffffff168573ffffffffffffffffffffffffffffffffffffffff168273ffffffffffffffffffffffffffffffffffffffff167f4a39dc06d4c0dbc64b70af90fd698a233a518aa5d07e595d983b8c0526c8f7fb8686604051611bdb9291906131c0565b60405180910390a45b5050505050565b5f8473ffffffffffffffffffffffffffffffffffffffff163b1115611d92578373ffffffffffffffffffffffffffffffffffffffff1663f23a6e6187878686866040518663ffffffff1660e01b8152600401611c4b959493929190613247565b6020604051808303815f875af1925050508015611c8657506040513d601f19601f82011682018060405250810190611c8391906132b3565b60015b611d07573d805f8114611cb4576040519150601f19603f3d011682016040523d82523d5f602084013e611cb9565b606091505b505f815103611cff57846040517f57f447ce000000000000000000000000000000000000000000000000000000008152600401611cf691906128ad565b60405180910390fd5b805181602001fd5b63f23a6e6160e01b7bffffffffffffffffffffffffffffffffffffffffffffffffffffffff1916817bffffffffffffffffffffffffffffffffffffffffffffffffffffffff191614611d9057846040517f57f447ce000000000000000000000000000000000000000000000000000000008152600401611d8791906128ad565b60405180910390fd5b505b505050505050565b5f8473ffffffffffffffffffffffffffffffffffffffff163b1115611f41578373ffffffffffffffffffffffffffffffffffffffff1663bc197c8187878686866040518663ffffffff1660e01b8152600401611dfa9594939291906132de565b6020604051808303815f875af1925050508015611e3557506040513d601f19601f82011682018060405250810190611e3291906132b3565b60015b611eb6573d805f8114611e63576040519150601f19603f3d011682016040523d82523d5f602084013e611e68565b606091505b505f815103611eae57846040517f57f447ce000000000000000000000000000000000000000000000000000000008152600401611ea591906128ad565b60405180910390fd5b805181602001fd5b63bc197c8160e01b7bffffffffffffffffffffffffffffffffffffffffffffffffffffffff1916817bffffffffffffffffffffffffffffffffffffffffffffffffffffffff191614611f3f57846040517f57f447ce000000000000000000000000000000000000000000000000000000008152600401611f3691906128ad565b60405180910390fd5b505b505050505050565b5f604051905090565b5f5ffd5b5f5ffd5b5f73ffffffffffffffffffffffffffffffffffffffff82169050919050565b5f611f8382611f5a565b9050919050565b611f9381611f79565b8114611f9d575f5ffd5b50565b5f81359050611fae81611f8a565b92915050565b5f819050919050565b611fc681611fb4565b8114611fd0575f5ffd5b50565b5f81359050611fe181611fbd565b92915050565b5f5f60408385031215611ffd57611ffc611f52565b5b5f61200a85828601611fa0565b925050602061201b85828601611fd3565b9150509250929050565b61202e81611fb4565b82525050565b5f6020820190506120475f830184612025565b92915050565b5f7fffffffff0000000000000000000000000000000000000000000000000000000082169050919050565b6120818161204d565b811461208b575f5ffd5b50565b5f8135905061209c81612078565b92915050565b5f602082840312156120b7576120b6611f52565b5b5f6120c48482850161208e565b91505092915050565b5f8115159050919050565b6120e1816120cd565b82525050565b5f6020820190506120fa5f8301846120d8565b92915050565b5f6020828403121561211557612114611f52565b5b5f61212284828501611fd3565b91505092915050565b5f81519050919050565b5f82825260208201905092915050565b8281835e5f83830152505050565b5f601f19601f8301169050919050565b5f61216d8261212b565b6121778185612135565b9350612187818560208601612145565b61219081612153565b840191505092915050565b5f6020820190508181035f8301526121b38184612163565b905092915050565b5f819050919050565b5f6121de6121d96121d484611f5a565b6121bb565b611f5a565b9050919050565b5f6121ef826121c4565b9050919050565b5f612200826121e5565b9050919050565b612210816121f6565b82525050565b5f6020820190506122295f830184612207565b92915050565b5f5ffd5b7f4e487b71000000000000000000000000000000000000000000000000000000005f52604160045260245ffd5b61226982612153565b810181811067ffffffffffffffff8211171561228857612287612233565b5b80604052505050565b5f61229a611f49565b90506122a68282612260565b919050565b5f67ffffffffffffffff8211156122c5576122c4612233565b5b602082029050602081019050919050565b5f5ffd5b5f6122ec6122e7846122ab565b612291565b9050808382526020820190506020840283018581111561230f5761230e6122d6565b5b835b8181101561233857806123248882611fd3565b845260208401935050602081019050612311565b5050509392505050565b5f82601f8301126123565761235561222f565b5b81356123668482602086016122da565b91505092915050565b5f5ffd5b5f67ffffffffffffffff82111561238d5761238c612233565b5b61239682612153565b9050602081019050919050565b828183375f83830152505050565b5f6123c36123be84612373565b612291565b9050828152602081018484840111156123df576123de61236f565b5b6123ea8482856123a3565b509392505050565b5f82601f8301126124065761240561222f565b5b81356124168482602086016123b1565b91505092915050565b5f5f5f5f5f60a0868803121561243857612437611f52565b5b5f61244588828901611fa0565b955050602061245688828901611fa0565b945050604086013567ffffffffffffffff81111561247757612476611f56565b5b61248388828901612342565b935050606086013567ffffffffffffffff8111156124a4576124a3611f56565b5b6124b088828901612342565b925050608086013567ffffffffffffffff8111156124d1576124d0611f56565b5b6124dd888289016123f2565b9150509295509295909350565b5f67ffffffffffffffff82111561250457612503612233565b5b602082029050602081019050919050565b5f612527612522846124ea565b612291565b9050808382526020820190506020840283018581111561254a576125496122d6565b5b835b81811015612573578061255f8882611fa0565b84526020840193505060208101905061254c565b5050509392505050565b5f82601f8301126125915761259061222f565b5b81356125a1848260208601612515565b91505092915050565b5f5f604083850312156125c0576125bf611f52565b5b5f83013567ffffffffffffffff8111156125dd576125dc611f56565b5b6125e98582860161257d565b925050602083013567ffffffffffffffff81111561260a57612609611f56565b5b61261685828601612342565b9150509250929050565b5f81519050919050565b5f82825260208201905092915050565b5f819050602082019050919050565b61265281611fb4565b82525050565b5f6126638383612649565b60208301905092915050565b5f602082019050919050565b5f61268582612620565b61268f818561262a565b935061269a8361263a565b805f5b838110156126ca5781516126b18882612658565b97506126bc8361266f565b92505060018101905061269d565b5085935050505092915050565b5f6020820190508181035f8301526126ef818461267b565b905092915050565b61270081611f79565b82525050565b5f6080820190508181035f83015261271e8187612163565b905081810360208301526127328186612163565b905061274160408301856126f7565b61274e6060830184612025565b95945050505050565b5f67ffffffffffffffff82111561277157612770612233565b5b61277a82612153565b9050602081019050919050565b5f61279961279484612757565b612291565b9050828152602081018484840111156127b5576127b461236f565b5b6127c08482856123a3565b509392505050565b5f82601f8301126127dc576127db61222f565b5b81356127ec848260208601612787565b91505092915050565b5f5f5f5f6080858703121561280d5761280c611f52565b5b5f85013567ffffffffffffffff81111561282a57612829611f56565b5b612836878288016127c8565b945050602085013567ffffffffffffffff81111561285757612856611f56565b5b612863878288016127c8565b935050604085013567ffffffffffffffff81111561288457612883611f56565b5b612890878288016127c8565b92505060606128a187828801611fd3565b91505092959194509250565b5f6020820190506128c05f8301846126f7565b92915050565b6128cf816120cd565b81146128d9575f5ffd5b50565b5f813590506128ea816128c6565b92915050565b5f5f6040838503121561290657612905611f52565b5b5f61291385828601611fa0565b9250506020612924858286016128dc565b9150509250929050565b5f5f6040838503121561294457612943611f52565b5b5f61295185828601611fa0565b925050602061296285828601611fa0565b9150509250929050565b5f5f5f5f5f60a0868803121561298557612984611f52565b5b5f61299288828901611fa0565b95505060206129a388828901611fa0565b94505060406129b488828901611fd3565b93505060606129c588828901611fd3565b925050608086013567ffffffffffffffff8111156129e6576129e5611f56565b5b6129f2888289016123f2565b9150509295509295909350565b5f60208284031215612a1457612a13611f52565b5b5f612a2184828501611fa0565b91505092915050565b7f4e487b71000000000000000000000000000000000000000000000000000000005f52602260045260245ffd5b5f6002820490506001821680612a6e57607f821691505b602082108103612a8157612a80612a2a565b5b50919050565b5f604082019050612a9a5f8301856126f7565b612aa760208301846126f7565b9392505050565b5f604082019050612ac15f830185612025565b612ace6020830184612025565b9392505050565b7f4e487b71000000000000000000000000000000000000000000000000000000005f52603260045260245ffd5b7f426f6f6b20646f6573206e6f74206578697374000000000000000000000000005f82015250565b5f612b36601383612135565b9150612b4182612b02565b602082019050919050565b5f6020820190508181035f830152612b6381612b2a565b9050919050565b5f81519050612b7881611fbd565b92915050565b5f60208284031215612b9357612b92611f52565b5b5f612ba084828501612b6a565b91505092915050565b7f496e73756666696369656e7420746f6b656e2062616c616e63650000000000005f82015250565b5f612bdd601a83612135565b9150612be882612ba9565b602082019050919050565b5f6020820190508181035f830152612c0a81612bd1565b9050919050565b5f606082019050612c245f8301866126f7565b612c3160208301856126f7565b612c3e6040830184612025565b949350505050565b5f81519050612c54816128c6565b92915050565b5f60208284031215612c6f57612c6e611f52565b5b5f612c7c84828501612c46565b91505092915050565b7f5061796d656e74206661696c65640000000000000000000000000000000000005f82015250565b5f612cb9600e83612135565b9150612cc482612c85565b602082019050919050565b5f6020820190508181035f830152612ce681612cad565b9050919050565b7f4e487b71000000000000000000000000000000000000000000000000000000005f52601160045260245ffd5b5f612d2482611fb4565b91507fffffffffffffffffffffffffffffffffffffffffffffffffffffffffffffffff8203612d5657612d55612ced565b5b600182019050919050565b5f819050815f5260205f209050919050565b5f6020601f8301049050919050565b5f82821b905092915050565b5f60088302612dbd7fffffffffffffffffffffffffffffffffffffffffffffffffffffffffffffffff82612d82565b612dc78683612d82565b95508019841693508086168417925050509392505050565b5f612df9612df4612def84611fb4565b6121bb565b611fb4565b9050919050565b5f819050919050565b612e1283612ddf565b612e26612e1e82612e00565b848454612d8e565b825550505050565b5f5f905090565b612e3d612e2e565b612e48818484612e09565b505050565b5b81811015612e6b57612e605f82612e35565b600181019050612e4e565b5050565b601f821115612eb057612e8181612d61565b612e8a84612d73565b81016020851015612e99578190505b612ead612ea585612d73565b830182612e4d565b50505b505050565b5f82821c905092915050565b5f612ed05f1984600802612eb5565b1980831691505092915050565b5f612ee88383612ec1565b9150826002028217905092915050565b612f018261212b565b67ffffffffffffffff811115612f1a57612f19612233565b5b612f248254612a57565b612f2f828285612e6f565b5f60209050601f831160018114612f60575f8415612f4e578287015190505b612f588582612edd565b865550612fbf565b601f198416612f6e86612d61565b5f5b82811015612f9557848901518255600182019150602085019450602081019050612f70565b86831015612fb25784890151612fae601f891682612ec1565b8355505b6001600288020188555050505b505050505050565b7f4163636573732064656e6965643a204275792074686520626f6f6b20666972735f8201527f7400000000000000000000000000000000000000000000000000000000000000602082015250565b5f613021602183612135565b915061302c82612fc7565b604082019050919050565b5f6020820190508181035f83015261304e81613015565b9050919050565b5f81905092915050565b7f697066733a2f2f000000000000000000000000000000000000000000000000005f82015250565b5f613093600783613055565b915061309e8261305f565b600782019050919050565b5f81546130b581612a57565b6130bf8186613055565b9450600182165f81146130d957600181146130ee57613120565b60ff1983168652811515820286019350613120565b6130f785612d61565b5f5b83811015613118578154818901526001820191506020810190506130f9565b838801955050505b50505092915050565b5f61313382613087565b915061313f82846130a9565b915081905092915050565b5f60808201905061315d5f8301876126f7565b61316a6020830186612025565b6131776040830185612025565b6131846060830184612025565b95945050505050565b5f61319782611fb4565b91506131a283611fb4565b92508282019050808211156131ba576131b9612ced565b5b92915050565b5f6040820190508181035f8301526131d8818561267b565b905081810360208301526131ec818461267b565b90509392505050565b5f81519050919050565b5f82825260208201905092915050565b5f613219826131f5565b61322381856131ff565b9350613233818560208601612145565b61323c81612153565b840191505092915050565b5f60a08201905061325a5f8301886126f7565b61326760208301876126f7565b6132746040830186612025565b6132816060830185612025565b8181036080830152613293818461320f565b90509695505050505050565b5f815190506132ad81612078565b92915050565b5f602082840312156132c8576132c7611f52565b5b5f6132d58482850161329f565b91505092915050565b5f60a0820190506132f15f8301886126f7565b6132fe60208301876126f7565b8181036040830152613310818661267b565b90508181036060830152613324818561267b565b90508181036080830152613338818461320f565b9050969550505050505056fea2646970667358221220f30c6d4176dd8f3ba5f59aa778f243408e26fc04d4492da4d3cfeea1fa46035864736f6c634300081e0033","linkReferences":{}},"methodIdentifiers":{"balanceOf(address,uint256)":"00fdd58e","balanceOfBatch(address[],uint256[])":"4e1273f4","bookMetaDatas(uint256)":"6059f7bc","booksByAuthor(address,uint256)":"6bd37b03","buyBook(uint256)":"6ee26566","coins()":"22fcefbe","getBookURI(uint256)":"898f8b1a","isApprovedForAll(address,address)":"e985e9c5","nextTokenId()":"75794a3c","owner()":"8da5cb5b","renounceOwnership()":"715018a6","safeBatchTransferFrom(address,address,uint256[],uint256[],bytes)":"2eb2c2d6","safeTransferFrom(address,address,uint256,uint256,bytes)":"f242432a","setApprovalForAll(address,bool)":"a22cb465","supportsInterface(bytes4)":"01ffc9a7","tokenURIs(uint256)":"6c8b703f","transferOwnership(address)":"f2fde38b","upload(string,string,string,uint256)":"81d41c95","uri(uint256)":"0e89341c"},"id":36}