{"abi":[{"type":"constructor","inputs":[{"name":"_tokenAddress","type":"address","internalType":"address"}],"stateMutability":"nonpayable"},{"type":"function","name":"allTokens","inputs":[{"name":"","type":"uint256","internalType":"uint256"}],"outputs":[{"name":"","type":"uint256","internalType":"uint256"}],"stateMutability":"view"},{"type":"function","name":"balanceOf","inputs":[{"name":"account","type":"address","internalType":"address"},{"name":"id","type":"uint256","internalType":"uint256"}],"outputs":[{"name":"","type":"uint256","internalType":"uint256"}],"stateMutability":"view"},{"type":"function","name":"balanceOfBatch","inputs":[{"name":"accounts","type":"address[]","internalType":"address[]"},{"name":"ids","type":"uint256[]","internalType":"uint256[]"}],"outputs":[{"name":"","type":"uint256[]","internalType":"uint256[]"}],"stateMutability":"view"},{"type":"function","name":"bookMetaDatas","inputs":[{"name":"","type":"uint256","internalType":"uint256"}],"outputs":[{"name":"name","type":"string","internalType":"string"},{"name":"description","type":"string","internalType":"string"},{"name":"genre","type":"string","internalType":"string"},{"name":"price","type":"uint256","internalType":"uint256"},{"name":"author","type":"address","internalType":"address"},{"name":"isActive","type":"bool","internalType":"bool"},{"name":"tokenId","type":"uint256","internalType":"uint256"}],"stateMutability":"view"},{"type":"function","name":"booksByAuthor","inputs":[{"name":"","type":"address","internalType":"address"},{"name":"","type":"uint256","internalType":"uint256"}],"outputs":[{"name":"","type":"uint256","internalType":"uint256"}],"stateMutability":"view"},{"type":"function","name":"buyAccess","inputs":[{"name":"_tokenId","type":"uint256","internalType":"uint256"}],"outputs":[],"stateMutability":"nonpayable"},{"type":"function","name":"coins","inputs":[],"outputs":[{"name":"","type":"address","internalType":"contract IERC20"}],"stateMutability":"view"},{"type":"function","name":"getAllBooks","inputs":[],"outputs":[{"name":"","type":"tuple[]","internalType":"struct BookAccess.BookMetaData[]","components":[{"name":"name","type":"string","internalType":"string"},{"name":"description","type":"string","internalType":"string"},{"name":"genre","type":"string","internalType":"string"},{"name":"price","type":"uint256","internalType":"uint256"},{"name":"author","type":"address","internalType":"address"},{"name":"isActive","type":"bool","internalType":"bool"},{"name":"tokenId","type":"uint256","internalType":"uint256"}]}],"stateMutability":"view"},{"type":"function","name":"isAllowed","inputs":[{"name":"user","type":"address","internalType":"address"},{"name":"tokenId","type":"uint256","internalType":"uint256"}],"outputs":[{"name":"","type":"bool","internalType":"bool"}],"stateMutability":"view"},{"type":"function","name":"isApprovedForAll","inputs":[{"name":"account","type":"address","internalType":"address"},{"name":"operator","type":"address","internalType":"address"}],"outputs":[{"name":"","type":"bool","internalType":"bool"}],"stateMutability":"view"},{"type":"function","name":"owner","inputs":[],"outputs":[{"name":"","type":"address","internalType":"address"}],"stateMutability":"view"},{"type":"function","name":"register","inputs":[{"name":"_name","type":"string","internalType":"string"},{"name":"_desc","type":"string","internalType":"string"},{"name":"_price","type":"uint256","internalType":"uint256"},{"name":"_genre","type":"string","internalType":"string"},{"name":"_author","type":"address","internalType":"address"}],"outputs":[{"name":"","type":"uint256","internalType":"uint256"}],"stateMutability":"nonpayable"},{"type":"function","name":"renounceOwnership","inputs":[],"outputs":[],"stateMutability":"nonpayable"},{"type":"function","name":"safeBatchTransferFrom","inputs":[{"name":"from","type":"address","internalType":"address"},{"name":"to","type":"address","internalType":"address"},{"name":"ids","type":"uint256[]","internalType":"uint256[]"},{"name":"values","type":"uint256[]","internalType":"uint256[]"},{"name":"data","type":"bytes","internalType":"bytes"}],"outputs":[],"stateMutability":"nonpayable"},{"type":"function","name":"safeTransferFrom","inputs":[{"name":"from","type":"address","internalType":"address"},{"name":"to","type":"address","internalType":"address"},{"name":"id","type":"uint256","internalType":"uint256"},{"name":"value","type":"uint256","internalType":"uint256"},{"name":"data","type":"bytes","internalType":"bytes"}],"outputs":[],"stateMutability":"nonpayable"},{"type":"function","name":"setApprovalForAll","inputs":[{"name":"operator","type":"address","internalType":"address"},{"name":"approved","type":"bool","internalType":"bool"}],"outputs":[],"stateMutability":"nonpayable"},{"type":"function","name":"supportsInterface","inputs":[{"name":"interfaceId","type":"bytes4","internalType":"bytes4"}],"outputs":[{"name":"","type":"bool","internalType":"bool"}],"stateMutability":"view"},{"type":"function","name":"transferOwnership","inputs":[{"name":"newOwner","type":"address","internalType":"address"}],"outputs":[],"stateMutability":"nonpayable"},{"type":"function","name":"uri","inputs":[{"name":"","type":"uint256","internalType":"uint256"}],"outputs":[{"name":"","type":"string","internalType":"string"}],"stateMutability":"view"},{"type":"event","name":"ApprovalForAll","inputs":[{"name":"account","type":"address","indexed":true,"internalType":"address"},{"name":"operator","type":"address","indexed":true,"internalType":"address"},{"name":"approved","type":"bool","indexed":false,"internalType":"bool"}],"anonymous":false},{"type":"event","name":"OwnershipTransferred","inputs":[{"name":"previousOwner","type":"address","indexed":true,"internalType":"address"},{"name":"newOwner","type":"address","indexed":true,"internalType":"address"}],"anonymous":false},{"type":"event","name":"TransferBatch","inputs":[{"name":"operator","type":"address","indexed":true,"internalType":"address"},{"name":"from","type":"address","indexed":true,"internalType":"address"},{"name":"to","type":"address","indexed":true,"internalType":"address"},{"name":"ids","type":"uint256[]","indexed":false,"internalType":"uint256[]"},{"name":"values","type":"uint256[]","indexed":false,"internalType":"uint256[]"}],"anonymous":false},{"type":"event","name":"TransferSingle","inputs":[{"name":"operator","type":"address","indexed":true,"internalType":"address"},{"name":"from","type":"address","indexed":true,"internalType":"address"},{"name":"to","type":"address","indexed":true,"internalType":"address"},{"name":"id","type":"uint256","indexed":false,"internalType":"uint256"},{"name":"value","type":"uint256","indexed":false,"internalType":"uint256"}],"anonymous":false},{"type":"event","name":"URI","inputs":[{"name":"value","type":"string","indexed":false,"internalType":"string"},{"name":"id","type":"uint256","indexed":true,"internalType":"uint256"}],"anonymous":false},{"type":"error","name":"ERC1155InsufficientBalance","inputs":[{"name":"sender","type":"address","internalType":"address"},{"name":"balance","type":"uint256","internalType":"uint256"},{"name":"needed","type":"uint256","internalType":"uint256"},{"name":"tokenId","type":"uint256","internalType":"uint256"}]},{"type":"error","name":"ERC1155InvalidApprover","inputs":[{"name":"approver","type":"address","internalType":"address"}]},{"type":"error","name":"ERC1155InvalidArrayLength","inputs":[{"name":"idsLength","type":"uint256","internalType":"uint256"},{"name":"valuesLength","type":"uint256","internalType":"uint256"}]},{"type":"error","name":"ERC1155InvalidOperator","inputs":[{"name":"operator","type":"address","internalType":"address"}]},{"type":"error","name":"ERC1155InvalidReceiver","inputs":[{"name":"receiver","type":"address","internalType":"address"}]},{"type":"error","name":"ERC1155InvalidSender","inputs":[{"name":"sender","type":"address","internalType":"address"}]},{"type":"error","name":"ERC1155MissingApprovalForAll","inputs":[{"name":"operator","type":"address","internalType":"address"},{"name":"owner","type":"address","internalType":"address"}]},{"type":"error","name":"OwnableInvalidOwner","inputs":[{"name":"owner","type":"address","internalType":"address"}]},{"type":"error","name":"OwnableUnauthorizedAccount","inputs":[{"name":"account","type":"address","internalType":"address"}]}],"bytecode":{"object":"0x608060405234801561000f575f5ffd5b50604051613ed3380380613ed383398181016040528101906100319190610279565b336040518060400160405280600681526020017f426f6f6b496400000000000000000000000000000000000000000000000000008152506100778161014560201b60201c565b505f73ffffffffffffffffffffffffffffffffffffffff168173ffffffffffffffffffffffffffffffffffffffff16036100e8575f6040517f1e4fbdf70000000000000000000000000000000000000000000000000000000081526004016100df91906102b3565b60405180910390fd5b6100f78161015860201b60201c565b508060055f6101000a81548173ffffffffffffffffffffffffffffffffffffffff021916908373ffffffffffffffffffffffffffffffffffffffff1602179055505f600481905550506105d8565b80600290816101549190610509565b5050565b5f60035f9054906101000a900473ffffffffffffffffffffffffffffffffffffffff1690508160035f6101000a81548173ffffffffffffffffffffffffffffffffffffffff021916908373ffffffffffffffffffffffffffffffffffffffff1602179055508173ffffffffffffffffffffffffffffffffffffffff168173ffffffffffffffffffffffffffffffffffffffff167f8be0079c531659141344cd1fd0a4f28419497f9722a3daafe3b4186f6b6457e060405160405180910390a35050565b5f5ffd5b5f73ffffffffffffffffffffffffffffffffffffffff82169050919050565b5f6102488261021f565b9050919050565b6102588161023e565b8114610262575f5ffd5b50565b5f815190506102738161024f565b92915050565b5f6020828403121561028e5761028d61021b565b5b5f61029b84828501610265565b91505092915050565b6102ad8161023e565b82525050565b5f6020820190506102c65f8301846102a4565b92915050565b5f81519050919050565b7f4e487b71000000000000000000000000000000000000000000000000000000005f52604160045260245ffd5b7f4e487b71000000000000000000000000000000000000000000000000000000005f52602260045260245ffd5b5f600282049050600182168061034757607f821691505b60208210810361035a57610359610303565b5b50919050565b5f819050815f5260205f209050919050565b5f6020601f8301049050919050565b5f82821b905092915050565b5f600883026103bc7fffffffffffffffffffffffffffffffffffffffffffffffffffffffffffffffff82610381565b6103c68683610381565b95508019841693508086168417925050509392505050565b5f819050919050565b5f819050919050565b5f61040a610405610400846103de565b6103e7565b6103de565b9050919050565b5f819050919050565b610423836103f0565b61043761042f82610411565b84845461038d565b825550505050565b5f5f905090565b61044e61043f565b61045981848461041a565b505050565b5b8181101561047c576104715f82610446565b60018101905061045f565b5050565b601f8211156104c15761049281610360565b61049b84610372565b810160208510156104aa578190505b6104be6104b685610372565b83018261045e565b50505b505050565b5f82821c905092915050565b5f6104e15f19846008026104c6565b1980831691505092915050565b5f6104f983836104d2565b9150826002028217905092915050565b610512826102cc565b67ffffffffffffffff81111561052b5761052a6102d6565b5b6105358254610330565b610540828285610480565b5f60209050601f831160018114610571575f841561055f578287015190505b61056985826104ee565b8655506105d0565b601f19841661057f86610360565b5f5b828110156105a657848901518255600182019150602085019450602081019050610581565b868310156105c357848901516105bf601f8916826104d2565b8355505b6001600288020188555050505b505050505050565b6138ee806105e55f395ff3fe608060405234801561000f575f5ffd5b506004361061011e575f3560e01c8063634282af116100ab578063a22cb4651161006f578063a22cb46514610344578063e985e9c514610360578063f242432a14610390578063f2fde38b146103ac578063f8350ed0146103c85761011e565b8063634282af1461028c5780636bd37b03146102bc578063715018a6146102ec5780637c2bb5d3146102f65780638da5cb5b146103265761011e565b80632eb2c2d6116100f25780632eb2c2d6146101d0578063354528e8146101ec5780634e1273f41461020a57806350a1a2641461023a5780636059f7bc146102565761011e565b8062fdd58e1461012257806301ffc9a7146101525780630e89341c1461018257806322fcefbe146101b2575b5f5ffd5b61013c6004803603810190610137919061244a565b6103f8565b6040516101499190612497565b60405180910390f35b61016c60048036038101906101679190612505565b61044d565b604051610179919061254a565b60405180910390f35b61019c60048036038101906101979190612563565b61052e565b6040516101a991906125fe565b60405180910390f35b6101ba6105c0565b6040516101c79190612679565b60405180910390f35b6101ea60048036038101906101e59190612882565b6105e5565b005b6101f461068c565b6040516102019190612b24565b60405180910390f35b610224600480360381019061021f9190612c04565b61099a565b6040516102319190612d22565b60405180910390f35b610254600480360381019061024f9190612563565b610aa4565b005b610270600480360381019061026b9190612563565b610f6d565b6040516102839796959493929190612d51565b60405180910390f35b6102a660048036038101906102a19190612563565b611169565b6040516102b39190612497565b60405180910390f35b6102d660048036038101906102d1919061244a565b611189565b6040516102e39190612497565b60405180910390f35b6102f46111b4565b005b610310600480360381019061030b9190612e71565b6111c7565b60405161031d9190612497565b60405180910390f35b61032e6113aa565b60405161033b9190612f3c565b60405180910390f35b61035e60048036038101906103599190612f7f565b6113d2565b005b61037a60048036038101906103759190612fbd565b6113e8565b604051610387919061254a565b60405180910390f35b6103aa60048036038101906103a59190612ffb565b611476565b005b6103c660048036038101906103c1919061308e565b61151d565b005b6103e260048036038101906103dd919061244a565b6115a1565b6040516103ef919061254a565b60405180910390f35b5f5f5f8381526020019081526020015f205f8473ffffffffffffffffffffffffffffffffffffffff1673ffffffffffffffffffffffffffffffffffffffff1681526020019081526020015f2054905092915050565b5f7fd9b67a26000000000000000000000000000000000000000000000000000000007bffffffffffffffffffffffffffffffffffffffffffffffffffffffff1916827bffffffffffffffffffffffffffffffffffffffffffffffffffffffff1916148061051757507f0e89341c000000000000000000000000000000000000000000000000000000007bffffffffffffffffffffffffffffffffffffffffffffffffffffffff1916827bffffffffffffffffffffffffffffffffffffffffffffffffffffffff1916145b806105275750610526826115b6565b5b9050919050565b60606002805461053d906130e6565b80601f0160208091040260200160405190810160405280929190818152602001828054610569906130e6565b80156105b45780601f1061058b576101008083540402835291602001916105b4565b820191905f5260205f20905b81548152906001019060200180831161059757829003601f168201915b50505050509050919050565b60055f9054906101000a900473ffffffffffffffffffffffffffffffffffffffff1681565b5f6105ee61161f565b90508073ffffffffffffffffffffffffffffffffffffffff168673ffffffffffffffffffffffffffffffffffffffff1614158015610633575061063186826113e8565b155b156106775780866040517fe237d92200000000000000000000000000000000000000000000000000000000815260040161066e929190613116565b60405180910390fd5b6106848686868686611626565b505050505050565b60605f60088054905090505f8167ffffffffffffffff8111156106b2576106b1612696565b5b6040519080825280602002602001820160405280156106eb57816020015b6106d861235b565b8152602001906001900390816106d05790505b5090505f5f90505b828110156109915760065f600883815481106107125761071161313d565b5b905f5260205f20015481526020019081526020015f206040518060e00160405290815f82018054610742906130e6565b80601f016020809104026020016040519081016040528092919081815260200182805461076e906130e6565b80156107b95780601f10610790576101008083540402835291602001916107b9565b820191905f5260205f20905b81548152906001019060200180831161079c57829003601f168201915b505050505081526020016001820180546107d2906130e6565b80601f01602080910402602001604051908101604052809291908181526020018280546107fe906130e6565b80156108495780601f1061082057610100808354040283529160200191610849565b820191905f5260205f20905b81548152906001019060200180831161082c57829003601f168201915b50505050508152602001600282018054610862906130e6565b80601f016020809104026020016040519081016040528092919081815260200182805461088e906130e6565b80156108d95780601f106108b0576101008083540402835291602001916108d9565b820191905f5260205f20905b8154815290600101906020018083116108bc57829003601f168201915b5050505050815260200160038201548152602001600482015f9054906101000a900473ffffffffffffffffffffffffffffffffffffffff1673ffffffffffffffffffffffffffffffffffffffff1673ffffffffffffffffffffffffffffffffffffffff1681526020016004820160149054906101000a900460ff161515151581526020016005820154815250508282815181106109795761097861313d565b5b602002602001018190525080806001019150506106f3565b50809250505090565b606081518351146109e657815183516040517f5b0599910000000000000000000000000000000000000000000000000000000081526004016109dd92919061316a565b60405180910390fd5b5f835167ffffffffffffffff811115610a0257610a01612696565b5b604051908082528060200260200182016040528015610a305781602001602082028036833780820191505090505b5090505f5f90505b8451811015610a9957610a6f610a57828761171a90919063ffffffff16565b610a6a838761172d90919063ffffffff16565b6103f8565b828281518110610a8257610a8161313d565b5b602002602001018181525050806001019050610a38565b508091505092915050565b5f60065f8381526020019081526020015f206040518060e00160405290815f82018054610ad0906130e6565b80601f0160208091040260200160405190810160405280929190818152602001828054610afc906130e6565b8015610b475780601f10610b1e57610100808354040283529160200191610b47565b820191905f5260205f20905b815481529060010190602001808311610b2a57829003601f168201915b50505050508152602001600182018054610b60906130e6565b80601f0160208091040260200160405190810160405280929190818152602001828054610b8c906130e6565b8015610bd75780601f10610bae57610100808354040283529160200191610bd7565b820191905f5260205f20905b815481529060010190602001808311610bba57829003601f168201915b50505050508152602001600282018054610bf0906130e6565b80601f0160208091040260200160405190810160405280929190818152602001828054610c1c906130e6565b8015610c675780601f10610c3e57610100808354040283529160200191610c67565b820191905f5260205f20905b815481529060010190602001808311610c4a57829003601f168201915b5050505050815260200160038201548152602001600482015f9054906101000a900473ffffffffffffffffffffffffffffffffffffffff1673ffffffffffffffffffffffffffffffffffffffff1673ffffffffffffffffffffffffffffffffffffffff1681526020016004820160149054906101000a900460ff1615151515815260200160058201548152505090508060a00151610d3a576040517f08c379a0000000000000000000000000000000000000000000000000000000008152600401610d31906131db565b60405180910390fd5b5f610d4533846103f8565b14610d85576040517f08c379a0000000000000000000000000000000000000000000000000000000008152600401610d7c90613243565b60405180910390fd5b806060015160055f9054906101000a900473ffffffffffffffffffffffffffffffffffffffff1673ffffffffffffffffffffffffffffffffffffffff166370a08231336040518263ffffffff1660e01b8152600401610de49190612f3c565b602060405180830381865afa158015610dff573d5f5f3e3d5ffd5b505050506040513d601f19601f82011682018060405250810190610e239190613275565b1015610e64576040517f08c379a0000000000000000000000000000000000000000000000000000000008152600401610e5b906132ea565b60405180910390fd5b5f60055f9054906101000a900473ffffffffffffffffffffffffffffffffffffffff1673ffffffffffffffffffffffffffffffffffffffff166323b872dd33846080015185606001516040518463ffffffff1660e01b8152600401610ecb93929190613308565b6020604051808303815f875af1158015610ee7573d5f5f3e3d5ffd5b505050506040513d601f19601f82011682018060405250810190610f0b9190613351565b905080610f4d576040517f08c379a0000000000000000000000000000000000000000000000000000000008152600401610f44906133c6565b60405180910390fd5b610f683384600160405180602001604052805f815250611740565b505050565b6006602052805f5260405f205f91509050805f018054610f8c906130e6565b80601f0160208091040260200160405190810160405280929190818152602001828054610fb8906130e6565b80156110035780601f10610fda57610100808354040283529160200191611003565b820191905f5260205f20905b815481529060010190602001808311610fe657829003601f168201915b505050505090806001018054611018906130e6565b80601f0160208091040260200160405190810160405280929190818152602001828054611044906130e6565b801561108f5780601f106110665761010080835404028352916020019161108f565b820191905f5260205f20905b81548152906001019060200180831161107257829003601f168201915b5050505050908060020180546110a4906130e6565b80601f01602080910402602001604051908101604052809291908181526020018280546110d0906130e6565b801561111b5780601f106110f25761010080835404028352916020019161111b565b820191905f5260205f20905b8154815290600101906020018083116110fe57829003601f168201915b505050505090806003015490806004015f9054906101000a900473ffffffffffffffffffffffffffffffffffffffff16908060040160149054906101000a900460ff16908060050154905087565b60088181548110611178575f80fd5b905f5260205f20015f915090505481565b6007602052815f5260405f2081815481106111a2575f80fd5b905f5260205f20015f91509150505481565b6111bc6117d5565b6111c55f61185c565b565b5f5f60045f8154809291906111db90613411565b919050559050600881908060018154018082558091505060019003905f5260205f20015f90919091909150556040518060e001604052808881526020018781526020018581526020018681526020013373ffffffffffffffffffffffffffffffffffffffff1681526020016001151581526020018281525060065f8381526020019081526020015f205f820151815f01908161127791906135ef565b50602082015181600101908161128d91906135ef565b5060408201518160020190816112a391906135ef565b50606082015181600301556080820151816004015f6101000a81548173ffffffffffffffffffffffffffffffffffffffff021916908373ffffffffffffffffffffffffffffffffffffffff16021790555060a08201518160040160146101000a81548160ff02191690831515021790555060c0820151816005015590505060075f3373ffffffffffffffffffffffffffffffffffffffff1673ffffffffffffffffffffffffffffffffffffffff1681526020019081526020015f2081908060018154018082558091505060019003905f5260205f20015f909190919091505561139d8382600160405180602001604052805f815250611740565b8091505095945050505050565b5f60035f9054906101000a900473ffffffffffffffffffffffffffffffffffffffff16905090565b6113e46113dd61161f565b838361191f565b5050565b5f60015f8473ffffffffffffffffffffffffffffffffffffffff1673ffffffffffffffffffffffffffffffffffffffff1681526020019081526020015f205f8373ffffffffffffffffffffffffffffffffffffffff1673ffffffffffffffffffffffffffffffffffffffff1681526020019081526020015f205f9054906101000a900460ff16905092915050565b5f61147f61161f565b90508073ffffffffffffffffffffffffffffffffffffffff168673ffffffffffffffffffffffffffffffffffffffff16141580156114c457506114c286826113e8565b155b156115085780866040517fe237d9220000000000000000000000000000000000000000000000000000000081526004016114ff929190613116565b60405180910390fd5b6115158686868686611a88565b505050505050565b6115256117d5565b5f73ffffffffffffffffffffffffffffffffffffffff168173ffffffffffffffffffffffffffffffffffffffff1603611595575f6040517f1e4fbdf700000000000000000000000000000000000000000000000000000000815260040161158c9190612f3c565b60405180910390fd5b61159e8161185c565b50565b5f5f6115ad84846103f8565b11905092915050565b5f7f01ffc9a7000000000000000000000000000000000000000000000000000000007bffffffffffffffffffffffffffffffffffffffffffffffffffffffff1916827bffffffffffffffffffffffffffffffffffffffffffffffffffffffff1916149050919050565b5f33905090565b5f73ffffffffffffffffffffffffffffffffffffffff168473ffffffffffffffffffffffffffffffffffffffff1603611696575f6040517f57f447ce00000000000000000000000000000000000000000000000000000000815260040161168d9190612f3c565b60405180910390fd5b5f73ffffffffffffffffffffffffffffffffffffffff168573ffffffffffffffffffffffffffffffffffffffff1603611706575f6040517f01a835140000000000000000000000000000000000000000000000000000000081526004016116fd9190612f3c565b60405180910390fd5b6117138585858585611b8e565b5050505050565b5f60208202602084010151905092915050565b5f60208202602084010151905092915050565b5f73ffffffffffffffffffffffffffffffffffffffff168473ffffffffffffffffffffffffffffffffffffffff16036117b0575f6040517f57f447ce0000000000000000000000000000000000000000000000000000000081526004016117a79190612f3c565b60405180910390fd5b5f5f6117bc8585611c3a565b915091506117cd5f87848487611b8e565b505050505050565b6117dd61161f565b73ffffffffffffffffffffffffffffffffffffffff166117fb6113aa565b73ffffffffffffffffffffffffffffffffffffffff161461185a5761181e61161f565b6040517f118cdaa70000000000000000000000000000000000000000000000000000000081526004016118519190612f3c565b60405180910390fd5b565b5f60035f9054906101000a900473ffffffffffffffffffffffffffffffffffffffff1690508160035f6101000a81548173ffffffffffffffffffffffffffffffffffffffff021916908373ffffffffffffffffffffffffffffffffffffffff1602179055508173ffffffffffffffffffffffffffffffffffffffff168173ffffffffffffffffffffffffffffffffffffffff167f8be0079c531659141344cd1fd0a4f28419497f9722a3daafe3b4186f6b6457e060405160405180910390a35050565b5f73ffffffffffffffffffffffffffffffffffffffff168273ffffffffffffffffffffffffffffffffffffffff160361198f575f6040517fced3e1000000000000000000000000000000000000000000000000000000000081526004016119869190612f3c565b60405180910390fd5b8060015f8573ffffffffffffffffffffffffffffffffffffffff1673ffffffffffffffffffffffffffffffffffffffff1681526020019081526020015f205f8473ffffffffffffffffffffffffffffffffffffffff1673ffffffffffffffffffffffffffffffffffffffff1681526020019081526020015f205f6101000a81548160ff0219169083151502179055508173ffffffffffffffffffffffffffffffffffffffff168373ffffffffffffffffffffffffffffffffffffffff167f17307eab39ab6107e8899845ad3d59bd9653f200f220920489ca2b5937696c3183604051611a7b919061254a565b60405180910390a3505050565b5f73ffffffffffffffffffffffffffffffffffffffff168473ffffffffffffffffffffffffffffffffffffffff1603611af8575f6040517f57f447ce000000000000000000000000000000000000000000000000000000008152600401611aef9190612f3c565b60405180910390fd5b5f73ffffffffffffffffffffffffffffffffffffffff168573ffffffffffffffffffffffffffffffffffffffff1603611b68575f6040517f01a83514000000000000000000000000000000000000000000000000000000008152600401611b5f9190612f3c565b60405180910390fd5b5f5f611b748585611c3a565b91509150611b858787848487611b8e565b50505050505050565b611b9a85858585611c6a565b5f73ffffffffffffffffffffffffffffffffffffffff168473ffffffffffffffffffffffffffffffffffffffff1614611c33575f611bd661161f565b90506001845103611c22575f611bf55f8661172d90919063ffffffff16565b90505f611c0b5f8661172d90919063ffffffff16565b9050611c1b838989858589611ffd565b5050611c31565b611c308187878787876121ac565b5b505b5050505050565b60608060405191506001825283602083015260408201905060018152826020820152604081016040529250929050565b8051825114611cb457815181516040517f5b059991000000000000000000000000000000000000000000000000000000008152600401611cab92919061316a565b60405180910390fd5b5f611cbd61161f565b90505f5f90505b8351811015611ebc575f611ce1828661172d90919063ffffffff16565b90505f611cf7838661172d90919063ffffffff16565b90505f73ffffffffffffffffffffffffffffffffffffffff168873ffffffffffffffffffffffffffffffffffffffff1614611e1a575f5f5f8481526020019081526020015f205f8a73ffffffffffffffffffffffffffffffffffffffff1673ffffffffffffffffffffffffffffffffffffffff1681526020019081526020015f2054905081811015611dc657888183856040517f03dee4c5000000000000000000000000000000000000000000000000000000008152600401611dbd94939291906136be565b60405180910390fd5b8181035f5f8581526020019081526020015f205f8b73ffffffffffffffffffffffffffffffffffffffff1673ffffffffffffffffffffffffffffffffffffffff1681526020019081526020015f2081905550505b5f73ffffffffffffffffffffffffffffffffffffffff168773ffffffffffffffffffffffffffffffffffffffff1614611eaf57805f5f8481526020019081526020015f205f8973ffffffffffffffffffffffffffffffffffffffff1673ffffffffffffffffffffffffffffffffffffffff1681526020019081526020015f205f828254611ea79190613701565b925050819055505b5050806001019050611cc4565b506001835103611f77575f611eda5f8561172d90919063ffffffff16565b90505f611ef05f8561172d90919063ffffffff16565b90508573ffffffffffffffffffffffffffffffffffffffff168773ffffffffffffffffffffffffffffffffffffffff168473ffffffffffffffffffffffffffffffffffffffff167fc3d58168c5ae7397731d063d5bbf3d657854427343f4c083240f7aacaa2d0f628585604051611f6892919061316a565b60405180910390a45050611ff6565b8373ffffffffffffffffffffffffffffffffffffffff168573ffffffffffffffffffffffffffffffffffffffff168273ffffffffffffffffffffffffffffffffffffffff167f4a39dc06d4c0dbc64b70af90fd698a233a518aa5d07e595d983b8c0526c8f7fb8686604051611fed929190613734565b60405180910390a45b5050505050565b5f8473ffffffffffffffffffffffffffffffffffffffff163b11156121a4578373ffffffffffffffffffffffffffffffffffffffff1663f23a6e6187878686866040518663ffffffff1660e01b815260040161205d9594939291906137bb565b6020604051808303815f875af192505050801561209857506040513d601f19601f820116820180604052508101906120959190613827565b60015b612119573d805f81146120c6576040519150601f19603f3d011682016040523d82523d5f602084013e6120cb565b606091505b505f81510361211157846040517f57f447ce0000000000000000000000000000000000000000000000000000000081526004016121089190612f3c565b60405180910390fd5b805181602001fd5b63f23a6e6160e01b7bffffffffffffffffffffffffffffffffffffffffffffffffffffffff1916817bffffffffffffffffffffffffffffffffffffffffffffffffffffffff1916146121a257846040517f57f447ce0000000000000000000000000000000000000000000000000000000081526004016121999190612f3c565b60405180910390fd5b505b505050505050565b5f8473ffffffffffffffffffffffffffffffffffffffff163b1115612353578373ffffffffffffffffffffffffffffffffffffffff1663bc197c8187878686866040518663ffffffff1660e01b815260040161220c959493929190613852565b6020604051808303815f875af192505050801561224757506040513d601f19601f820116820180604052508101906122449190613827565b60015b6122c8573d805f8114612275576040519150601f19603f3d011682016040523d82523d5f602084013e61227a565b606091505b505f8151036122c057846040517f57f447ce0000000000000000000000000000000000000000000000000000000081526004016122b79190612f3c565b60405180910390fd5b805181602001fd5b63bc197c8160e01b7bffffffffffffffffffffffffffffffffffffffffffffffffffffffff1916817bffffffffffffffffffffffffffffffffffffffffffffffffffffffff19161461235157846040517f57f447ce0000000000000000000000000000000000000000000000000000000081526004016123489190612f3c565b60405180910390fd5b505b505050505050565b6040518060e001604052806060815260200160608152602001606081526020015f81526020015f73ffffffffffffffffffffffffffffffffffffffff1681526020015f151581526020015f81525090565b5f604051905090565b5f5ffd5b5f5ffd5b5f73ffffffffffffffffffffffffffffffffffffffff82169050919050565b5f6123e6826123bd565b9050919050565b6123f6816123dc565b8114612400575f5ffd5b50565b5f81359050612411816123ed565b92915050565b5f819050919050565b61242981612417565b8114612433575f5ffd5b50565b5f8135905061244481612420565b92915050565b5f5f604083850312156124605761245f6123b5565b5b5f61246d85828601612403565b925050602061247e85828601612436565b9150509250929050565b61249181612417565b82525050565b5f6020820190506124aa5f830184612488565b92915050565b5f7fffffffff0000000000000000000000000000000000000000000000000000000082169050919050565b6124e4816124b0565b81146124ee575f5ffd5b50565b5f813590506124ff816124db565b92915050565b5f6020828403121561251a576125196123b5565b5b5f612527848285016124f1565b91505092915050565b5f8115159050919050565b61254481612530565b82525050565b5f60208201905061255d5f83018461253b565b92915050565b5f60208284031215612578576125776123b5565b5b5f61258584828501612436565b91505092915050565b5f81519050919050565b5f82825260208201905092915050565b8281835e5f83830152505050565b5f601f19601f8301169050919050565b5f6125d08261258e565b6125da8185612598565b93506125ea8185602086016125a8565b6125f3816125b6565b840191505092915050565b5f6020820190508181035f83015261261681846125c6565b905092915050565b5f819050919050565b5f61264161263c612637846123bd565b61261e565b6123bd565b9050919050565b5f61265282612627565b9050919050565b5f61266382612648565b9050919050565b61267381612659565b82525050565b5f60208201905061268c5f83018461266a565b92915050565b5f5ffd5b7f4e487b71000000000000000000000000000000000000000000000000000000005f52604160045260245ffd5b6126cc826125b6565b810181811067ffffffffffffffff821117156126eb576126ea612696565b5b80604052505050565b5f6126fd6123ac565b905061270982826126c3565b919050565b5f67ffffffffffffffff82111561272857612727612696565b5b602082029050602081019050919050565b5f5ffd5b5f61274f61274a8461270e565b6126f4565b9050808382526020820190506020840283018581111561277257612771612739565b5b835b8181101561279b57806127878882612436565b845260208401935050602081019050612774565b5050509392505050565b5f82601f8301126127b9576127b8612692565b5b81356127c984826020860161273d565b91505092915050565b5f5ffd5b5f67ffffffffffffffff8211156127f0576127ef612696565b5b6127f9826125b6565b9050602081019050919050565b828183375f83830152505050565b5f612826612821846127d6565b6126f4565b905082815260208101848484011115612842576128416127d2565b5b61284d848285612806565b509392505050565b5f82601f83011261286957612868612692565b5b8135612879848260208601612814565b91505092915050565b5f5f5f5f5f60a0868803121561289b5761289a6123b5565b5b5f6128a888828901612403565b95505060206128b988828901612403565b945050604086013567ffffffffffffffff8111156128da576128d96123b9565b5b6128e6888289016127a5565b935050606086013567ffffffffffffffff811115612907576129066123b9565b5b612913888289016127a5565b925050608086013567ffffffffffffffff811115612934576129336123b9565b5b61294088828901612855565b9150509295509295909350565b5f81519050919050565b5f82825260208201905092915050565b5f819050602082019050919050565b5f82825260208201905092915050565b5f6129908261258e565b61299a8185612976565b93506129aa8185602086016125a8565b6129b3816125b6565b840191505092915050565b6129c781612417565b82525050565b6129d6816123dc565b82525050565b6129e581612530565b82525050565b5f60e083015f8301518482035f860152612a058282612986565b91505060208301518482036020860152612a1f8282612986565b91505060408301518482036040860152612a398282612986565b9150506060830151612a4e60608601826129be565b506080830151612a6160808601826129cd565b5060a0830151612a7460a08601826129dc565b5060c0830151612a8760c08601826129be565b508091505092915050565b5f612a9d83836129eb565b905092915050565b5f602082019050919050565b5f612abb8261294d565b612ac58185612957565b935083602082028501612ad785612967565b805f5b85811015612b125784840389528151612af38582612a92565b9450612afe83612aa5565b925060208a01995050600181019050612ada565b50829750879550505050505092915050565b5f6020820190508181035f830152612b3c8184612ab1565b905092915050565b5f67ffffffffffffffff821115612b5e57612b5d612696565b5b602082029050602081019050919050565b5f612b81612b7c84612b44565b6126f4565b90508083825260208201905060208402830185811115612ba457612ba3612739565b5b835b81811015612bcd5780612bb98882612403565b845260208401935050602081019050612ba6565b5050509392505050565b5f82601f830112612beb57612bea612692565b5b8135612bfb848260208601612b6f565b91505092915050565b5f5f60408385031215612c1a57612c196123b5565b5b5f83013567ffffffffffffffff811115612c3757612c366123b9565b5b612c4385828601612bd7565b925050602083013567ffffffffffffffff811115612c6457612c636123b9565b5b612c70858286016127a5565b9150509250929050565b5f81519050919050565b5f82825260208201905092915050565b5f819050602082019050919050565b5f612cae83836129be565b60208301905092915050565b5f602082019050919050565b5f612cd082612c7a565b612cda8185612c84565b9350612ce583612c94565b805f5b83811015612d15578151612cfc8882612ca3565b9750612d0783612cba565b925050600181019050612ce8565b5085935050505092915050565b5f6020820190508181035f830152612d3a8184612cc6565b905092915050565b612d4b816123dc565b82525050565b5f60e0820190508181035f830152612d69818a6125c6565b90508181036020830152612d7d81896125c6565b90508181036040830152612d9181886125c6565b9050612da06060830187612488565b612dad6080830186612d42565b612dba60a083018561253b565b612dc760c0830184612488565b98975050505050505050565b5f67ffffffffffffffff821115612ded57612dec612696565b5b612df6826125b6565b9050602081019050919050565b5f612e15612e1084612dd3565b6126f4565b905082815260208101848484011115612e3157612e306127d2565b5b612e3c848285612806565b509392505050565b5f82601f830112612e5857612e57612692565b5b8135612e68848260208601612e03565b91505092915050565b5f5f5f5f5f60a08688031215612e8a57612e896123b5565b5b5f86013567ffffffffffffffff811115612ea757612ea66123b9565b5b612eb388828901612e44565b955050602086013567ffffffffffffffff811115612ed457612ed36123b9565b5b612ee088828901612e44565b9450506040612ef188828901612436565b935050606086013567ffffffffffffffff811115612f1257612f116123b9565b5b612f1e88828901612e44565b9250506080612f2f88828901612403565b9150509295509295909350565b5f602082019050612f4f5f830184612d42565b92915050565b612f5e81612530565b8114612f68575f5ffd5b50565b5f81359050612f7981612f55565b92915050565b5f5f60408385031215612f9557612f946123b5565b5b5f612fa285828601612403565b9250506020612fb385828601612f6b565b9150509250929050565b5f5f60408385031215612fd357612fd26123b5565b5b5f612fe085828601612403565b9250506020612ff185828601612403565b9150509250929050565b5f5f5f5f5f60a08688031215613014576130136123b5565b5b5f61302188828901612403565b955050602061303288828901612403565b945050604061304388828901612436565b935050606061305488828901612436565b925050608086013567ffffffffffffffff811115613075576130746123b9565b5b61308188828901612855565b9150509295509295909350565b5f602082840312156130a3576130a26123b5565b5b5f6130b084828501612403565b91505092915050565b7f4e487b71000000000000000000000000000000000000000000000000000000005f52602260045260245ffd5b5f60028204905060018216806130fd57607f821691505b6020821081036131105761310f6130b9565b5b50919050565b5f6040820190506131295f830185612d42565b6131366020830184612d42565b9392505050565b7f4e487b71000000000000000000000000000000000000000000000000000000005f52603260045260245ffd5b5f60408201905061317d5f830185612488565b61318a6020830184612488565b9392505050565b7f426f6f6b20646f6573206e6f74206578697374000000000000000000000000005f82015250565b5f6131c5601383612598565b91506131d082613191565b602082019050919050565b5f6020820190508181035f8301526131f2816131b9565b9050919050565b7f416c7265616479206861766520616363657373000000000000000000000000005f82015250565b5f61322d601383612598565b9150613238826131f9565b602082019050919050565b5f6020820190508181035f83015261325a81613221565b9050919050565b5f8151905061326f81612420565b92915050565b5f6020828403121561328a576132896123b5565b5b5f61329784828501613261565b91505092915050565b7f496e73756666696369656e742062616c616e63650000000000000000000000005f82015250565b5f6132d4601483612598565b91506132df826132a0565b602082019050919050565b5f6020820190508181035f830152613301816132c8565b9050919050565b5f60608201905061331b5f830186612d42565b6133286020830185612d42565b6133356040830184612488565b949350505050565b5f8151905061334b81612f55565b92915050565b5f60208284031215613366576133656123b5565b5b5f6133738482850161333d565b91505092915050565b7f546f6b656e207472616e73666572206661696c656400000000000000000000005f82015250565b5f6133b0601583612598565b91506133bb8261337c565b602082019050919050565b5f6020820190508181035f8301526133dd816133a4565b9050919050565b7f4e487b71000000000000000000000000000000000000000000000000000000005f52601160045260245ffd5b5f61341b82612417565b91507fffffffffffffffffffffffffffffffffffffffffffffffffffffffffffffffff820361344d5761344c6133e4565b5b600182019050919050565b5f819050815f5260205f209050919050565b5f6020601f8301049050919050565b5f82821b905092915050565b5f600883026134b47fffffffffffffffffffffffffffffffffffffffffffffffffffffffffffffffff82613479565b6134be8683613479565b95508019841693508086168417925050509392505050565b5f6134f06134eb6134e684612417565b61261e565b612417565b9050919050565b5f819050919050565b613509836134d6565b61351d613515826134f7565b848454613485565b825550505050565b5f5f905090565b613534613525565b61353f818484613500565b505050565b5b81811015613562576135575f8261352c565b600181019050613545565b5050565b601f8211156135a75761357881613458565b6135818461346a565b81016020851015613590578190505b6135a461359c8561346a565b830182613544565b50505b505050565b5f82821c905092915050565b5f6135c75f19846008026135ac565b1980831691505092915050565b5f6135df83836135b8565b9150826002028217905092915050565b6135f88261258e565b67ffffffffffffffff81111561361157613610612696565b5b61361b82546130e6565b613626828285613566565b5f60209050601f831160018114613657575f8415613645578287015190505b61364f85826135d4565b8655506136b6565b601f19841661366586613458565b5f5b8281101561368c57848901518255600182019150602085019450602081019050613667565b868310156136a957848901516136a5601f8916826135b8565b8355505b6001600288020188555050505b505050505050565b5f6080820190506136d15f830187612d42565b6136de6020830186612488565b6136eb6040830185612488565b6136f86060830184612488565b95945050505050565b5f61370b82612417565b915061371683612417565b925082820190508082111561372e5761372d6133e4565b5b92915050565b5f6040820190508181035f83015261374c8185612cc6565b905081810360208301526137608184612cc6565b90509392505050565b5f81519050919050565b5f82825260208201905092915050565b5f61378d82613769565b6137978185613773565b93506137a78185602086016125a8565b6137b0816125b6565b840191505092915050565b5f60a0820190506137ce5f830188612d42565b6137db6020830187612d42565b6137e86040830186612488565b6137f56060830185612488565b81810360808301526138078184613783565b90509695505050505050565b5f81519050613821816124db565b92915050565b5f6020828403121561383c5761383b6123b5565b5b5f61384984828501613813565b91505092915050565b5f60a0820190506138655f830188612d42565b6138726020830187612d42565b81810360408301526138848186612cc6565b905081810360608301526138988185612cc6565b905081810360808301526138ac8184613783565b9050969550505050505056fea2646970667358221220abfca01071ef4d769a15250bd2343dd944e113a505adb96cc83457ef834ce78464736f6c634300081e0033","linkReferences":{}},"methodIdentifiers":{"allTokens(uint256)":"634282af","balanceOf(address,uint256)":"00fdd58e","balanceOfBatch(address[],uint256[])":"4e1273f4","bookMetaDatas(uint256)":"6059f7bc","booksByAuthor(address,uint256)":"6bd37b03","buyAccess(uint256)":"50a1a264","coins()":"22fcefbe","getAllBooks()":"354528e8","isAllowed(address,uint256)":"f8350ed0","isApprovedForAll(address,address)":"e985e9c5","owner()":"8da5cb5b","register(string,string,uint256,string,address)":"7c2bb5d3","renounceOwnership()":"715018a6","safeBatchTransferFrom(address,address,uint256[],uint256[],bytes)":"2eb2c2d6","safeTransferFrom(address,address,uint256,uint256,bytes)":"f242432a","setApprovalForAll(address,bool)":"a22cb465","supportsInterface(bytes4)":"01ffc9a7","transferOwnership(address)":"f2fde38b","uri(uint256)":"0e89341c"},"id":36}