{"abi":[{"type":"constructor","inputs":[],"stateMutability":"nonpayable"},{"type":"fallback","stateMutability":"payable"},{"type":"receive","stateMutability":"payable"},{"type":"function","name":"MINIMUM_STAKE_VALUE","inputs":[],"outputs":[{"name":"","type":"uint256","internalType":"uint256"}],"stateMutability":"view"},{"type":"function","name":"allowance","inputs":[{"name":"owner","type":"address","internalType":"address"},{"name":"spender","type":"address","internalType":"address"}],"outputs":[{"name":"","type":"uint256","internalType":"uint256"}],"stateMutability":"view"},{"type":"function","name":"approve","inputs":[{"name":"spender","type":"address","internalType":"address"},{"name":"value","type":"uint256","internalType":"uint256"}],"outputs":[{"name":"","type":"bool","internalType":"bool"}],"stateMutability":"nonpayable"},{"type":"function","name":"balanceOf","inputs":[{"name":"account","type":"address","internalType":"address"}],"outputs":[{"name":"","type":"uint256","internalType":"uint256"}],"stateMutability":"view"},{"type":"function","name":"decimals","inputs":[],"outputs":[{"name":"","type":"uint8","internalType":"uint8"}],"stateMutability":"view"},{"type":"function","name":"getCoins","inputs":[],"outputs":[],"stateMutability":"payable"},{"type":"function","name":"name","inputs":[],"outputs":[{"name":"","type":"string","internalType":"string"}],"stateMutability":"view"},{"type":"function","name":"owner","inputs":[],"outputs":[{"name":"","type":"address","internalType":"address"}],"stateMutability":"view"},{"type":"function","name":"renounceOwnership","inputs":[],"outputs":[],"stateMutability":"nonpayable"},{"type":"function","name":"stake","inputs":[{"name":"amount","type":"uint256","internalType":"uint256"}],"outputs":[],"stateMutability":"nonpayable"},{"type":"function","name":"stakedAmounts","inputs":[{"name":"","type":"address","internalType":"address"}],"outputs":[{"name":"","type":"uint256","internalType":"uint256"}],"stateMutability":"view"},{"type":"function","name":"symbol","inputs":[],"outputs":[{"name":"","type":"string","internalType":"string"}],"stateMutability":"view"},{"type":"function","name":"totalSupply","inputs":[],"outputs":[{"name":"","type":"uint256","internalType":"uint256"}],"stateMutability":"view"},{"type":"function","name":"transfer","inputs":[{"name":"to","type":"address","internalType":"address"},{"name":"value","type":"uint256","internalType":"uint256"}],"outputs":[{"name":"","type":"bool","internalType":"bool"}],"stateMutability":"nonpayable"},{"type":"function","name":"transferFrom","inputs":[{"name":"from","type":"address","internalType":"address"},{"name":"to","type":"address","internalType":"address"},{"name":"value","type":"uint256","internalType":"uint256"}],"outputs":[{"name":"","type":"bool","internalType":"bool"}],"stateMutability":"nonpayable"},{"type":"function","name":"transferOwnership","inputs":[{"name":"newOwner","type":"address","internalType":"address"}],"outputs":[],"stateMutability":"nonpayable"},{"type":"function","name":"unStake","inputs":[],"outputs":[],"stateMutability":"nonpayable"},{"type":"function","name":"weif","inputs":[],"outputs":[{"name":"","type":"uint256","internalType":"uint256"}],"stateMutability":"view"},{"type":"function","name":"weii","inputs":[],"outputs":[{"name":"","type":"uint256","internalType":"uint256"}],"stateMutability":"view"},{"type":"function","name":"withdrawCoin","inputs":[{"name":"noOfCoins","type":"uint256","internalType":"uint256"}],"outputs":[],"stateMutability":"nonpayable"},{"type":"event","name":"Approval","inputs":[{"name":"owner","type":"address","indexed":true,"internalType":"address"},{"name":"spender","type":"address","indexed":true,"internalType":"address"},{"name":"value","type":"uint256","indexed":false,"internalType":"uint256"}],"anonymous":false},{"type":"event","name":"OwnershipTransferred","inputs":[{"name":"previousOwner","type":"address","indexed":true,"internalType":"address"},{"name":"newOwner","type":"address","indexed":true,"internalType":"address"}],"anonymous":false},{"type":"event","name":"Transfer","inputs":[{"name":"from","type":"address","indexed":true,"internalType":"address"},{"name":"to","type":"address","indexed":true,"internalType":"address"},{"name":"value","type":"uint256","indexed":false,"internalType":"uint256"}],"anonymous":false},{"type":"event","name":"coinsBought","inputs":[{"name":"recipient","type":"address","indexed":false,"internalType":"address"},{"name":"amount","type":"uint256","indexed":false,"internalType":"uint256"}],"anonymous":false},{"type":"event","name":"staked","inputs":[{"name":"user","type":"address","indexed":false,"internalType":"address"},{"name":"amount","type":"uint256","indexed":false,"internalType":"uint256"}],"anonymous":false},{"type":"event","name":"unStaked","inputs":[{"name":"user","type":"address","indexed":false,"internalType":"address"},{"name":"amount","type":"uint256","indexed":false,"internalType":"uint256"}],"anonymous":false},{"type":"event","name":"withdrawn","inputs":[{"name":"recipient","type":"address","indexed":false,"internalType":"address"},{"name":"amount","type":"uint256","indexed":false,"internalType":"uint256"}],"anonymous":false},{"type":"error","name":"ERC20InsufficientAllowance","inputs":[{"name":"spender","type":"address","internalType":"address"},{"name":"allowance","type":"uint256","internalType":"uint256"},{"name":"needed","type":"uint256","internalType":"uint256"}]},{"type":"error","name":"ERC20InsufficientBalance","inputs":[{"name":"sender","type":"address","internalType":"address"},{"name":"balance","type":"uint256","internalType":"uint256"},{"name":"needed","type":"uint256","internalType":"uint256"}]},{"type":"error","name":"ERC20InvalidApprover","inputs":[{"name":"approver","type":"address","internalType":"address"}]},{"type":"error","name":"ERC20InvalidReceiver","inputs":[{"name":"receiver","type":"address","internalType":"address"}]},{"type":"error","name":"ERC20InvalidSender","inputs":[{"name":"sender","type":"address","internalType":"address"}]},{"type":"error","name":"ERC20InvalidSpender","inputs":[{"name":"spender","type":"address","internalType":"address"}]},{"type":"error","name":"OwnableInvalidOwner","inputs":[{"name":"owner","type":"address","internalType":"address"}]},{"type":"error","name":"OwnableUnauthorizedAccount","inputs":[{"name":"account","type":"address","internalType":"address"}]}],"bytecode":{"object":"0x608060405234801561000f575f5ffd5b50336040518060400160405280600481526020017f434f494e000000000000000000000000000000000000000000000000000000008152506040518060400160405280600481526020017f434f494e00000000000000000000000000000000000000000000000000000000815250816003908161008c9190610531565b50806004908161009c9190610531565b5050505f73ffffffffffffffffffffffffffffffffffffffff168173ffffffffffffffffffffffffffffffffffffffff160361010f575f6040517f1e4fbdf7000000000000000000000000000000000000000000000000000000008152600401610106919061063f565b60405180910390fd5b61011e8161013360201b60201c565b5061012e306101f660201b60201c565b610685565b5f60055f9054906101000a900473ffffffffffffffffffffffffffffffffffffffff1690508160055f6101000a81548173ffffffffffffffffffffffffffffffffffffffff021916908373ffffffffffffffffffffffffffffffffffffffff1602179055508173ffffffffffffffffffffffffffffffffffffffff168173ffffffffffffffffffffffffffffffffffffffff167f8be0079c531659141344cd1fd0a4f28419497f9722a3daafe3b4186f6b6457e060405160405180910390a35050565b6102928160405160240161020a919061063f565b6040516020818303038152906040527f2c2ecbc2000000000000000000000000000000000000000000000000000000007bffffffffffffffffffffffffffffffffffffffffffffffffffffffff19166020820180517bffffffffffffffffffffffffffffffffffffffffffffffffffffffff838183161783525050505061029560201b60201c565b50565b6102b6816102b16102b960201b610c11176102d860201b60201c565b60201c565b50565b5f6a636f6e736f6c652e6c6f6790505f5f835160208501845afa505050565b6102ea60201b6114bd17819050919050565b6102f2610658565b565b5f81519050919050565b7f4e487b71000000000000000000000000000000000000000000000000000000005f52604160045260245ffd5b7f4e487b71000000000000000000000000000000000000000000000000000000005f52602260045260245ffd5b5f600282049050600182168061036f57607f821691505b6020821081036103825761038161032b565b5b50919050565b5f819050815f5260205f209050919050565b5f6020601f8301049050919050565b5f82821b905092915050565b5f600883026103e47fffffffffffffffffffffffffffffffffffffffffffffffffffffffffffffffff826103a9565b6103ee86836103a9565b95508019841693508086168417925050509392505050565b5f819050919050565b5f819050919050565b5f61043261042d61042884610406565b61040f565b610406565b9050919050565b5f819050919050565b61044b83610418565b61045f61045782610439565b8484546103b5565b825550505050565b5f5f905090565b610476610467565b610481818484610442565b505050565b5b818110156104a4576104995f8261046e565b600181019050610487565b5050565b601f8211156104e9576104ba81610388565b6104c38461039a565b810160208510156104d2578190505b6104e66104de8561039a565b830182610486565b50505b505050565b5f82821c905092915050565b5f6105095f19846008026104ee565b1980831691505092915050565b5f61052183836104fa565b9150826002028217905092915050565b61053a826102f4565b67ffffffffffffffff811115610553576105526102fe565b5b61055d8254610358565b6105688282856104a8565b5f60209050601f831160018114610599575f8415610587578287015190505b6105918582610516565b8655506105f8565b601f1984166105a786610388565b5f5b828110156105ce578489015182556001820191506020850194506020810190506105a9565b868310156105eb57848901516105e7601f8916826104fa565b8355505b6001600288020188555050505b505050505050565b5f73ffffffffffffffffffffffffffffffffffffffff82169050919050565b5f61062982610600565b9050919050565b6106398161061f565b82525050565b5f6020820190506106525f830184610630565b92915050565b7f4e487b71000000000000000000000000000000000000000000000000000000005f52605160045260245ffd5b611bff806106925f395ff3fe608060405260043610610122575f3560e01c8063715018a61161009f578063a806f26011610063578063a806f26014610397578063a9059cbb146103c1578063ae1f60e5146103fd578063dd62ed3e14610427578063f2fde38b1461046357610123565b8063715018a6146102ef57806373cf575a146103055780638da5cb5b1461031b57806395d89b4114610345578063a694fc3a1461036f57610123565b806323b872dd116100e657806323b872dd146101fb578063313ce567146102375780633435835b146102615780634eb264e81461028b57806370a08231146102b357610123565b806306fdde0314610125578063095ea7b31461014f57806310c1c1031461018b57806313c390ef146101c757806318160ddd146101d157610123565b5b005b348015610130575f5ffd5b5061013961048b565b6040516101469190611537565b60405180910390f35b34801561015a575f5ffd5b50610175600480360381019061017091906115e8565b61051b565b6040516101829190611640565b60405180910390f35b348015610196575f5ffd5b506101b160048036038101906101ac9190611659565b61053d565b6040516101be9190611693565b60405180910390f35b6101cf610552565b005b3480156101dc575f5ffd5b506101e5610632565b6040516101f29190611693565b60405180910390f35b348015610206575f5ffd5b50610221600480360381019061021c91906116ac565b61063b565b60405161022e9190611640565b60405180910390f35b348015610242575f5ffd5b5061024b610669565b6040516102589190611717565b60405180910390f35b34801561026c575f5ffd5b50610275610671565b6040516102829190611693565b60405180910390f35b348015610296575f5ffd5b506102b160048036038101906102ac9190611730565b610676565b005b3480156102be575f5ffd5b506102d960048036038101906102d49190611659565b6107ed565b6040516102e69190611693565b60405180910390f35b3480156102fa575f5ffd5b50610303610832565b005b348015610310575f5ffd5b50610319610845565b005b348015610326575f5ffd5b5061032f610947565b60405161033c919061176a565b60405180910390f35b348015610350575f5ffd5b5061035961096f565b6040516103669190611537565b60405180910390f35b34801561037a575f5ffd5b5061039560048036038101906103909190611730565b6109ff565b005b3480156103a2575f5ffd5b506103ab610ade565b6040516103b89190611693565b60405180910390f35b3480156103cc575f5ffd5b506103e760048036038101906103e291906115e8565b610ae4565b6040516103f49190611640565b60405180910390f35b348015610408575f5ffd5b50610411610b06565b60405161041e9190611693565b60405180910390f35b348015610432575f5ffd5b5061044d60048036038101906104489190611783565b610b0b565b60405161045a9190611693565b60405180910390f35b34801561046e575f5ffd5b5061048960048036038101906104849190611659565b610b8d565b005b60606003805461049a906117ee565b80601f01602080910402602001604051908101604052809291908181526020018280546104c6906117ee565b80156105115780601f106104e857610100808354040283529160200191610511565b820191905f5260205f20905b8154815290600101906020018083116104f457829003601f168201915b5050505050905090565b5f5f610525610c30565b9050610532818585610c37565b600191505092915050565b6006602052805f5260405f205f915090505481565b6105916040518060400160405280600a81526020017f6d73672e76616c75653a0000000000000000000000000000000000000000000081525034610c49565b6105dc6040518060400160405280600a81526020017f77696c6c206d696e743a000000000000000000000000000000000000000000008152506003346105d7919061184b565b610c49565b5f6003346105ea919061184b565b90506105f63382610ce5565b7f2f67ba4de0bf6711b41f163145e4e86e69c7111bceda998bc7cf59f6fc7d8551338260405161062792919061188c565b60405180910390a150565b5f600254905090565b5f5f610645610c30565b9050610652858285610d64565b61065d858585610df7565b60019150509392505050565b5f6012905090565b600481565b80610680336107ed565b10156106c1576040517f08c379a00000000000000000000000000000000000000000000000000000000081526004016106b8906118fd565b60405180910390fd5b5f6004826106cf9190611948565b1461070f576040517f08c379a0000000000000000000000000000000000000000000000000000000008152600401610706906119e8565b60405180910390fd5b5f60048261071d9190611a06565b905080471015610762576040517f08c379a000000000000000000000000000000000000000000000000000000000815260040161075990611a80565b60405180910390fd5b61076c3383610ee7565b3373ffffffffffffffffffffffffffffffffffffffff166108fc8290811502906040515f60405180830381858888f193505050501580156107af573d5f5f3e3d5ffd5b507f6fb24f3ad0678f9d138e80b17293be051d87911eb34e9e60f0d1b9c3805e885a33826040516107e192919061188c565b60405180910390a15050565b5f5f5f8373ffffffffffffffffffffffffffffffffffffffff1673ffffffffffffffffffffffffffffffffffffffff1681526020019081526020015f20549050919050565b61083a610f66565b6108435f610fed565b565b61088d303360065f3373ffffffffffffffffffffffffffffffffffffffff1673ffffffffffffffffffffffffffffffffffffffff1681526020019081526020015f2054610df7565b7f4422f6ee26bc9bf257a2a195c5dc2ce10475a4680b47c473b2bfed7f92a782253360065f3373ffffffffffffffffffffffffffffffffffffffff1673ffffffffffffffffffffffffffffffffffffffff1681526020019081526020015f20546040516108fb92919061188c565b60405180910390a15f60065f3373ffffffffffffffffffffffffffffffffffffffff1673ffffffffffffffffffffffffffffffffffffffff1681526020019081526020015f2081905550565b5f60055f9054906101000a900473ffffffffffffffffffffffffffffffffffffffff16905090565b60606004805461097e906117ee565b80601f01602080910402602001604051908101604052809291908181526020018280546109aa906117ee565b80156109f55780601f106109cc576101008083540402835291602001916109f5565b820191905f5260205f20905b8154815290600101906020018083116109d857829003601f168201915b5050505050905090565b6103e8811015610a44576040517f08c379a0000000000000000000000000000000000000000000000000000000008152600401610a3b90611ae8565b60405180910390fd5b610a4f333083610df7565b8060065f3373ffffffffffffffffffffffffffffffffffffffff1673ffffffffffffffffffffffffffffffffffffffff1681526020019081526020015f205f828254610a9b9190611b06565b925050819055507f8f169816223f856d6f6a5945e3f7c520efe6c139d4152b6bb65e454babb2f2cb3382604051610ad392919061188c565b60405180910390a150565b6103e881565b5f5f610aee610c30565b9050610afb818585610df7565b600191505092915050565b600381565b5f60015f8473ffffffffffffffffffffffffffffffffffffffff1673ffffffffffffffffffffffffffffffffffffffff1681526020019081526020015f205f8373ffffffffffffffffffffffffffffffffffffffff1673ffffffffffffffffffffffffffffffffffffffff1681526020019081526020015f2054905092915050565b610b95610f66565b5f73ffffffffffffffffffffffffffffffffffffffff168173ffffffffffffffffffffffffffffffffffffffff1603610c05575f6040517f1e4fbdf7000000000000000000000000000000000000000000000000000000008152600401610bfc919061176a565b60405180910390fd5b610c0e81610fed565b50565b5f6a636f6e736f6c652e6c6f6790505f5f835160208501845afa505050565b5f33905090565b610c4483838360016110b0565b505050565b610ce18282604051602401610c5f929190611b39565b6040516020818303038152906040527fb60e72cc000000000000000000000000000000000000000000000000000000007bffffffffffffffffffffffffffffffffffffffffffffffffffffffff19166020820180517bffffffffffffffffffffffffffffffffffffffffffffffffffffffff838183161783525050505061127f565b5050565b5f73ffffffffffffffffffffffffffffffffffffffff168273ffffffffffffffffffffffffffffffffffffffff1603610d55575f6040517fec442f05000000000000000000000000000000000000000000000000000000008152600401610d4c919061176a565b60405180910390fd5b610d605f8383611299565b5050565b5f610d6f8484610b0b565b90507fffffffffffffffffffffffffffffffffffffffffffffffffffffffffffffffff811015610df15781811015610de2578281836040517ffb8f41b2000000000000000000000000000000000000000000000000000000008152600401610dd993929190611b67565b60405180910390fd5b610df084848484035f6110b0565b5b50505050565b5f73ffffffffffffffffffffffffffffffffffffffff168373ffffffffffffffffffffffffffffffffffffffff1603610e67575f6040517f96c6fd1e000000000000000000000000000000000000000000000000000000008152600401610e5e919061176a565b60405180910390fd5b5f73ffffffffffffffffffffffffffffffffffffffff168273ffffffffffffffffffffffffffffffffffffffff1603610ed7575f6040517fec442f05000000000000000000000000000000000000000000000000000000008152600401610ece919061176a565b60405180910390fd5b610ee2838383611299565b505050565b5f73ffffffffffffffffffffffffffffffffffffffff168273ffffffffffffffffffffffffffffffffffffffff1603610f57575f6040517f96c6fd1e000000000000000000000000000000000000000000000000000000008152600401610f4e919061176a565b60405180910390fd5b610f62825f83611299565b5050565b610f6e610c30565b73ffffffffffffffffffffffffffffffffffffffff16610f8c610947565b73ffffffffffffffffffffffffffffffffffffffff1614610feb57610faf610c30565b6040517f118cdaa7000000000000000000000000000000000000000000000000000000008152600401610fe2919061176a565b60405180910390fd5b565b5f60055f9054906101000a900473ffffffffffffffffffffffffffffffffffffffff1690508160055f6101000a81548173ffffffffffffffffffffffffffffffffffffffff021916908373ffffffffffffffffffffffffffffffffffffffff1602179055508173ffffffffffffffffffffffffffffffffffffffff168173ffffffffffffffffffffffffffffffffffffffff167f8be0079c531659141344cd1fd0a4f28419497f9722a3daafe3b4186f6b6457e060405160405180910390a35050565b5f73ffffffffffffffffffffffffffffffffffffffff168473ffffffffffffffffffffffffffffffffffffffff1603611120575f6040517fe602df05000000000000000000000000000000000000000000000000000000008152600401611117919061176a565b60405180910390fd5b5f73ffffffffffffffffffffffffffffffffffffffff168373ffffffffffffffffffffffffffffffffffffffff1603611190575f6040517f94280d62000000000000000000000000000000000000000000000000000000008152600401611187919061176a565b60405180910390fd5b8160015f8673ffffffffffffffffffffffffffffffffffffffff1673ffffffffffffffffffffffffffffffffffffffff1681526020019081526020015f205f8573ffffffffffffffffffffffffffffffffffffffff1673ffffffffffffffffffffffffffffffffffffffff1681526020019081526020015f20819055508015611279578273ffffffffffffffffffffffffffffffffffffffff168473ffffffffffffffffffffffffffffffffffffffff167f8c5be1e5ebec7d5bd14f71427d1e84f3dd0314c0f7b2291e5b200ac8c7c3b925846040516112709190611693565b60405180910390a35b50505050565b6112968161128e610c116114b2565b63ffffffff16565b50565b5f73ffffffffffffffffffffffffffffffffffffffff168373ffffffffffffffffffffffffffffffffffffffff16036112e9578060025f8282546112dd9190611b06565b925050819055506113b7565b5f5f5f8573ffffffffffffffffffffffffffffffffffffffff1673ffffffffffffffffffffffffffffffffffffffff1681526020019081526020015f2054905081811015611372578381836040517fe450d38c00000000000000000000000000000000000000000000000000000000815260040161136993929190611b67565b60405180910390fd5b8181035f5f8673ffffffffffffffffffffffffffffffffffffffff1673ffffffffffffffffffffffffffffffffffffffff1681526020019081526020015f2081905550505b5f73ffffffffffffffffffffffffffffffffffffffff168273ffffffffffffffffffffffffffffffffffffffff16036113fe578060025f8282540392505081905550611448565b805f5f8473ffffffffffffffffffffffffffffffffffffffff1673ffffffffffffffffffffffffffffffffffffffff1681526020019081526020015f205f82825401925050819055505b8173ffffffffffffffffffffffffffffffffffffffff168373ffffffffffffffffffffffffffffffffffffffff167fddf252ad1be2c89b69c2b068fc378daa952ba7f163c4a11628f55a4df523b3ef836040516114a59190611693565b60405180910390a3505050565b6114bd819050919050565b6114c5611b9c565b565b5f81519050919050565b5f82825260208201905092915050565b8281835e5f83830152505050565b5f601f19601f8301169050919050565b5f611509826114c7565b61151381856114d1565b93506115238185602086016114e1565b61152c816114ef565b840191505092915050565b5f6020820190508181035f83015261154f81846114ff565b905092915050565b5f5ffd5b5f73ffffffffffffffffffffffffffffffffffffffff82169050919050565b5f6115848261155b565b9050919050565b6115948161157a565b811461159e575f5ffd5b50565b5f813590506115af8161158b565b92915050565b5f819050919050565b6115c7816115b5565b81146115d1575f5ffd5b50565b5f813590506115e2816115be565b92915050565b5f5f604083850312156115fe576115fd611557565b5b5f61160b858286016115a1565b925050602061161c858286016115d4565b9150509250929050565b5f8115159050919050565b61163a81611626565b82525050565b5f6020820190506116535f830184611631565b92915050565b5f6020828403121561166e5761166d611557565b5b5f61167b848285016115a1565b91505092915050565b61168d816115b5565b82525050565b5f6020820190506116a65f830184611684565b92915050565b5f5f5f606084860312156116c3576116c2611557565b5b5f6116d0868287016115a1565b93505060206116e1868287016115a1565b92505060406116f2868287016115d4565b9150509250925092565b5f60ff82169050919050565b611711816116fc565b82525050565b5f60208201905061172a5f830184611708565b92915050565b5f6020828403121561174557611744611557565b5b5f611752848285016115d4565b91505092915050565b6117648161157a565b82525050565b5f60208201905061177d5f83018461175b565b92915050565b5f5f6040838503121561179957611798611557565b5b5f6117a6858286016115a1565b92505060206117b7858286016115a1565b9150509250929050565b7f4e487b71000000000000000000000000000000000000000000000000000000005f52602260045260245ffd5b5f600282049050600182168061180557607f821691505b602082108103611818576118176117c1565b5b50919050565b7f4e487b71000000000000000000000000000000000000000000000000000000005f52601160045260245ffd5b5f611855826115b5565b9150611860836115b5565b925082820261186e816115b5565b915082820484148315176118855761188461181e565b5b5092915050565b5f60408201905061189f5f83018561175b565b6118ac6020830184611684565b9392505050565b7f496e73756666696369656e7420746f6b656e73000000000000000000000000005f82015250565b5f6118e76013836114d1565b91506118f2826118b3565b602082019050919050565b5f6020820190508181035f830152611914816118db565b9050919050565b7f4e487b71000000000000000000000000000000000000000000000000000000005f52601260045260245ffd5b5f611952826115b5565b915061195d836115b5565b92508261196d5761196c61191b565b5b828206905092915050565b7f6f6e6c7920646976697369626c6520627920776569662063616e2062652077695f8201527f7468647261776e00000000000000000000000000000000000000000000000000602082015250565b5f6119d26027836114d1565b91506119dd82611978565b604082019050919050565b5f6020820190508181035f8301526119ff816119c6565b9050919050565b5f611a10826115b5565b9150611a1b836115b5565b925082611a2b57611a2a61191b565b5b828204905092915050565b7f696e73756666696369656e7420457468657220696e20636f6e747261637400005f82015250565b5f611a6a601e836114d1565b9150611a7582611a36565b602082019050919050565b5f6020820190508181035f830152611a9781611a5e565b9050919050565b7f6d696e696d756d207374616b652076616c7565000000000000000000000000005f82015250565b5f611ad26013836114d1565b9150611add82611a9e565b602082019050919050565b5f6020820190508181035f830152611aff81611ac6565b9050919050565b5f611b10826115b5565b9150611b1b836115b5565b9250828201905080821115611b3357611b3261181e565b5b92915050565b5f6040820190508181035f830152611b5181856114ff565b9050611b606020830184611684565b9392505050565b5f606082019050611b7a5f83018661175b565b611b876020830185611684565b611b946040830184611684565b949350505050565b7f4e487b71000000000000000000000000000000000000000000000000000000005f52605160045260245ffdfea26469706673582212208ceeefd7fd99101ad92816a322f58509bc622ff6dcc879763632a5d07635c1c364736f6c634300081e0033","linkReferences":{}},"methodIdentifiers":{"MINIMUM_STAKE_VALUE()":"a806f260","allowance(address,address)":"dd62ed3e","approve(address,uint256)":"095ea7b3","balanceOf(address)":"70a08231","decimals()":"313ce567","getCoins()":"13c390ef","name()":"06fdde03","owner()":"8da5cb5b","renounceOwnership()":"715018a6","stake(uint256)":"a694fc3a","stakedAmounts(address)":"10c1c103","symbol()":"95d89b41","totalSupply()":"18160ddd","transfer(address,uint256)":"a9059cbb","transferFrom(address,address,uint256)":"23b872dd","transferOwnership(address)":"f2fde38b","unStake()":"73cf575a","weif()":"3435835b","weii()":"ae1f60e5","withdrawCoin(uint256)":"4eb264e8"},"id":37}