{"abi":[{"type":"constructor","inputs":[],"stateMutability":"nonpayable"},{"type":"fallback","stateMutability":"payable"},{"type":"receive","stateMutability":"payable"},{"type":"function","name":"MINIMUM_STAKE_VALUE","inputs":[],"outputs":[{"name":"","type":"uint256","internalType":"uint256"}],"stateMutability":"view"},{"type":"function","name":"allowance","inputs":[{"name":"owner","type":"address","internalType":"address"},{"name":"spender","type":"address","internalType":"address"}],"outputs":[{"name":"","type":"uint256","internalType":"uint256"}],"stateMutability":"view"},{"type":"function","name":"approve","inputs":[{"name":"spender","type":"address","internalType":"address"},{"name":"value","type":"uint256","internalType":"uint256"}],"outputs":[{"name":"","type":"bool","internalType":"bool"}],"stateMutability":"nonpayable"},{"type":"function","name":"balanceOf","inputs":[{"name":"account","type":"address","internalType":"address"}],"outputs":[{"name":"","type":"uint256","internalType":"uint256"}],"stateMutability":"view"},{"type":"function","name":"decimals","inputs":[],"outputs":[{"name":"","type":"uint8","internalType":"uint8"}],"stateMutability":"view"},{"type":"function","name":"getCoins","inputs":[],"outputs":[],"stateMutability":"payable"},{"type":"function","name":"name","inputs":[],"outputs":[{"name":"","type":"string","internalType":"string"}],"stateMutability":"view"},{"type":"function","name":"owner","inputs":[],"outputs":[{"name":"","type":"address","internalType":"address"}],"stateMutability":"view"},{"type":"function","name":"renounceOwnership","inputs":[],"outputs":[],"stateMutability":"nonpayable"},{"type":"function","name":"stakedAmounts","inputs":[{"name":"","type":"address","internalType":"address"}],"outputs":[{"name":"","type":"uint256","internalType":"uint256"}],"stateMutability":"view"},{"type":"function","name":"symbol","inputs":[],"outputs":[{"name":"","type":"string","internalType":"string"}],"stateMutability":"view"},{"type":"function","name":"totalSupply","inputs":[],"outputs":[{"name":"","type":"uint256","internalType":"uint256"}],"stateMutability":"view"},{"type":"function","name":"transfer","inputs":[{"name":"to","type":"address","internalType":"address"},{"name":"value","type":"uint256","internalType":"uint256"}],"outputs":[{"name":"","type":"bool","internalType":"bool"}],"stateMutability":"nonpayable"},{"type":"function","name":"transferFrom","inputs":[{"name":"from","type":"address","internalType":"address"},{"name":"to","type":"address","internalType":"address"},{"name":"value","type":"uint256","internalType":"uint256"}],"outputs":[{"name":"","type":"bool","internalType":"bool"}],"stateMutability":"nonpayable"},{"type":"function","name":"transferOwnership","inputs":[{"name":"newOwner","type":"address","internalType":"address"}],"outputs":[],"stateMutability":"nonpayable"},{"type":"function","name":"weif","inputs":[],"outputs":[{"name":"","type":"uint256","internalType":"uint256"}],"stateMutability":"view"},{"type":"function","name":"weii","inputs":[],"outputs":[{"name":"","type":"uint256","internalType":"uint256"}],"stateMutability":"view"},{"type":"function","name":"withdrawCoin","inputs":[{"name":"noOfCoins","type":"uint256","internalType":"uint256"}],"outputs":[],"stateMutability":"nonpayable"},{"type":"event","name":"Approval","inputs":[{"name":"owner","type":"address","indexed":true,"internalType":"address"},{"name":"spender","type":"address","indexed":true,"internalType":"address"},{"name":"value","type":"uint256","indexed":false,"internalType":"uint256"}],"anonymous":false},{"type":"event","name":"OwnershipTransferred","inputs":[{"name":"previousOwner","type":"address","indexed":true,"internalType":"address"},{"name":"newOwner","type":"address","indexed":true,"internalType":"address"}],"anonymous":false},{"type":"event","name":"Transfer","inputs":[{"name":"from","type":"address","indexed":true,"internalType":"address"},{"name":"to","type":"address","indexed":true,"internalType":"address"},{"name":"value","type":"uint256","indexed":false,"internalType":"uint256"}],"anonymous":false},{"type":"event","name":"coinsBought","inputs":[{"name":"recipient","type":"address","indexed":false,"internalType":"address"},{"name":"amount","type":"uint256","indexed":false,"internalType":"uint256"}],"anonymous":false},{"type":"event","name":"staked","inputs":[{"name":"user","type":"address","indexed":false,"internalType":"address"},{"name":"amount","type":"uint256","indexed":false,"internalType":"uint256"}],"anonymous":false},{"type":"event","name":"unStaked","inputs":[{"name":"user","type":"address","indexed":false,"internalType":"address"},{"name":"amount","type":"uint256","indexed":false,"internalType":"uint256"}],"anonymous":false},{"type":"event","name":"withdrawn","inputs":[{"name":"recipient","type":"address","indexed":false,"internalType":"address"},{"name":"amount","type":"uint256","indexed":false,"internalType":"uint256"}],"anonymous":false},{"type":"error","name":"ERC20InsufficientAllowance","inputs":[{"name":"spender","type":"address","internalType":"address"},{"name":"allowance","type":"uint256","internalType":"uint256"},{"name":"needed","type":"uint256","internalType":"uint256"}]},{"type":"error","name":"ERC20InsufficientBalance","inputs":[{"name":"sender","type":"address","internalType":"address"},{"name":"balance","type":"uint256","internalType":"uint256"},{"name":"needed","type":"uint256","internalType":"uint256"}]},{"type":"error","name":"ERC20InvalidApprover","inputs":[{"name":"approver","type":"address","internalType":"address"}]},{"type":"error","name":"ERC20InvalidReceiver","inputs":[{"name":"receiver","type":"address","internalType":"address"}]},{"type":"error","name":"ERC20InvalidSender","inputs":[{"name":"sender","type":"address","internalType":"address"}]},{"type":"error","name":"ERC20InvalidSpender","inputs":[{"name":"spender","type":"address","internalType":"address"}]},{"type":"error","name":"OwnableInvalidOwner","inputs":[{"name":"owner","type":"address","internalType":"address"}]},{"type":"error","name":"OwnableUnauthorizedAccount","inputs":[{"name":"account","type":"address","internalType":"address"}]}],"bytecode":{"object":"0x608060405234801561000f575f5ffd5b50336040518060400160405280600481526020017f434f494e000000000000000000000000000000000000000000000000000000008152506040518060400160405280600481526020017f434f494e00000000000000000000000000000000000000000000000000000000815250816003908161008c9190610531565b50806004908161009c9190610531565b5050505f73ffffffffffffffffffffffffffffffffffffffff168173ffffffffffffffffffffffffffffffffffffffff160361010f575f6040517f1e4fbdf7000000000000000000000000000000000000000000000000000000008152600401610106919061063f565b60405180910390fd5b61011e8161013360201b60201c565b5061012e306101f660201b60201c565b610685565b5f60055f9054906101000a900473ffffffffffffffffffffffffffffffffffffffff1690508160055f6101000a81548173ffffffffffffffffffffffffffffffffffffffff021916908373ffffffffffffffffffffffffffffffffffffffff1602179055508173ffffffffffffffffffffffffffffffffffffffff168173ffffffffffffffffffffffffffffffffffffffff167f8be0079c531659141344cd1fd0a4f28419497f9722a3daafe3b4186f6b6457e060405160405180910390a35050565b6102928160405160240161020a919061063f565b6040516020818303038152906040527f2c2ecbc2000000000000000000000000000000000000000000000000000000007bffffffffffffffffffffffffffffffffffffffffffffffffffffffff19166020820180517bffffffffffffffffffffffffffffffffffffffffffffffffffffffff838183161783525050505061029560201b60201c565b50565b6102b6816102b16102b960201b610952176102d860201b60201c565b60201c565b50565b5f6a636f6e736f6c652e6c6f6790505f5f835160208501845afa505050565b6102ea60201b61113d17819050919050565b6102f2610658565b565b5f81519050919050565b7f4e487b71000000000000000000000000000000000000000000000000000000005f52604160045260245ffd5b7f4e487b71000000000000000000000000000000000000000000000000000000005f52602260045260245ffd5b5f600282049050600182168061036f57607f821691505b6020821081036103825761038161032b565b5b50919050565b5f819050815f5260205f209050919050565b5f6020601f8301049050919050565b5f82821b905092915050565b5f600883026103e47fffffffffffffffffffffffffffffffffffffffffffffffffffffffffffffffff826103a9565b6103ee86836103a9565b95508019841693508086168417925050509392505050565b5f819050919050565b5f819050919050565b5f61043261042d61042884610406565b61040f565b610406565b9050919050565b5f819050919050565b61044b83610418565b61045f61045782610439565b8484546103b5565b825550505050565b5f5f905090565b610476610467565b610481818484610442565b505050565b5b818110156104a4576104995f8261046e565b600181019050610487565b5050565b601f8211156104e9576104ba81610388565b6104c38461039a565b810160208510156104d2578190505b6104e66104de8561039a565b830182610486565b50505b505050565b5f82821c905092915050565b5f6105095f19846008026104ee565b1980831691505092915050565b5f61052183836104fa565b9150826002028217905092915050565b61053a826102f4565b67ffffffffffffffff811115610553576105526102fe565b5b61055d8254610358565b6105688282856104a8565b5f60209050601f831160018114610599575f8415610587578287015190505b6105918582610516565b8655506105f8565b601f1984166105a786610388565b5f5b828110156105ce578489015182556001820191506020850194506020810190506105a9565b868310156105eb57848901516105e7601f8916826104fa565b8355505b6001600288020188555050505b505050505050565b5f73ffffffffffffffffffffffffffffffffffffffff82169050919050565b5f61062982610600565b9050919050565b6106398161061f565b82525050565b5f6020820190506106525f830184610630565b92915050565b7f4e487b71000000000000000000000000000000000000000000000000000000005f52605160045260245ffd5b6117e9806106925f395ff3fe60806040526004361061010c575f3560e01c806370a0823111610094578063a806f26011610063578063a806f26014610343578063a9059cbb1461036d578063ae1f60e5146103a9578063dd62ed3e146103d3578063f2fde38b1461040f5761010d565b806370a082311461029d578063715018a6146102d95780638da5cb5b146102ef57806395d89b41146103195761010d565b806318160ddd116100db57806318160ddd146101bb57806323b872dd146101e5578063313ce567146102215780633435835b1461024b5780634eb264e8146102755761010d565b806306fdde031461010f578063095ea7b31461013957806310c1c1031461017557806313c390ef146101b15761010d565b5b005b34801561011a575f5ffd5b50610123610437565b60405161013091906111b7565b60405180910390f35b348015610144575f5ffd5b5061015f600480360381019061015a9190611268565b6104c7565b60405161016c91906112c0565b60405180910390f35b348015610180575f5ffd5b5061019b600480360381019061019691906112d9565b6104e9565b6040516101a89190611313565b60405180910390f35b6101b96104fe565b005b3480156101c6575f5ffd5b506101cf610554565b6040516101dc9190611313565b60405180910390f35b3480156101f0575f5ffd5b5061020b6004803603810190610206919061132c565b61055d565b60405161021891906112c0565b60405180910390f35b34801561022c575f5ffd5b5061023561058b565b6040516102429190611397565b60405180910390f35b348015610256575f5ffd5b5061025f610593565b60405161026c9190611313565b60405180910390f35b348015610280575f5ffd5b5061029b600480360381019061029691906113b0565b610598565b005b3480156102a8575f5ffd5b506102c360048036038101906102be91906112d9565b61070f565b6040516102d09190611313565b60405180910390f35b3480156102e4575f5ffd5b506102ed610754565b005b3480156102fa575f5ffd5b50610303610767565b60405161031091906113ea565b60405180910390f35b348015610324575f5ffd5b5061032d61078f565b60405161033a91906111b7565b60405180910390f35b34801561034e575f5ffd5b5061035761081f565b6040516103649190611313565b60405180910390f35b348015610378575f5ffd5b50610393600480360381019061038e9190611268565b610825565b6040516103a091906112c0565b60405180910390f35b3480156103b4575f5ffd5b506103bd610847565b6040516103ca9190611313565b60405180910390f35b3480156103de575f5ffd5b506103f960048036038101906103f49190611403565b61084c565b6040516104069190611313565b60405180910390f35b34801561041a575f5ffd5b50610435600480360381019061043091906112d9565b6108ce565b005b6060600380546104469061146e565b80601f01602080910402602001604051908101604052809291908181526020018280546104729061146e565b80156104bd5780601f10610494576101008083540402835291602001916104bd565b820191905f5260205f20905b8154815290600101906020018083116104a057829003601f168201915b5050505050905090565b5f5f6104d1610971565b90506104de818585610978565b600191505092915050565b6006602052805f5260405f205f915090505481565b5f60033461050c91906114cb565b9050610518338261098a565b7f2f67ba4de0bf6711b41f163145e4e86e69c7111bceda998bc7cf59f6fc7d8551338260405161054992919061150c565b60405180910390a150565b5f600254905090565b5f5f610567610971565b9050610574858285610a09565b61057f858585610a9c565b60019150509392505050565b5f6012905090565b600481565b806105a23361070f565b10156105e3576040517f08c379a00000000000000000000000000000000000000000000000000000000081526004016105da9061157d565b60405180910390fd5b5f6004826105f191906115c8565b14610631576040517f08c379a000000000000000000000000000000000000000000000000000000000815260040161062890611668565b60405180910390fd5b5f60048261063f9190611686565b905080471015610684576040517f08c379a000000000000000000000000000000000000000000000000000000000815260040161067b90611700565b60405180910390fd5b61068e3383610b8c565b3373ffffffffffffffffffffffffffffffffffffffff166108fc8290811502906040515f60405180830381858888f193505050501580156106d1573d5f5f3e3d5ffd5b507f6fb24f3ad0678f9d138e80b17293be051d87911eb34e9e60f0d1b9c3805e885a338260405161070392919061150c565b60405180910390a15050565b5f5f5f8373ffffffffffffffffffffffffffffffffffffffff1673ffffffffffffffffffffffffffffffffffffffff1681526020019081526020015f20549050919050565b61075c610c0b565b6107655f610c92565b565b5f60055f9054906101000a900473ffffffffffffffffffffffffffffffffffffffff16905090565b60606004805461079e9061146e565b80601f01602080910402602001604051908101604052809291908181526020018280546107ca9061146e565b80156108155780601f106107ec57610100808354040283529160200191610815565b820191905f5260205f20905b8154815290600101906020018083116107f857829003601f168201915b5050505050905090565b6103e881565b5f5f61082f610971565b905061083c818585610a9c565b600191505092915050565b600381565b5f60015f8473ffffffffffffffffffffffffffffffffffffffff1673ffffffffffffffffffffffffffffffffffffffff1681526020019081526020015f205f8373ffffffffffffffffffffffffffffffffffffffff1673ffffffffffffffffffffffffffffffffffffffff1681526020019081526020015f2054905092915050565b6108d6610c0b565b5f73ffffffffffffffffffffffffffffffffffffffff168173ffffffffffffffffffffffffffffffffffffffff1603610946575f6040517f1e4fbdf700000000000000000000000000000000000000000000000000000000815260040161093d91906113ea565b60405180910390fd5b61094f81610c92565b50565b5f6a636f6e736f6c652e6c6f6790505f5f835160208501845afa505050565b5f33905090565b6109858383836001610d55565b505050565b5f73ffffffffffffffffffffffffffffffffffffffff168273ffffffffffffffffffffffffffffffffffffffff16036109fa575f6040517fec442f050000000000000000000000000000000000000000000000000000000081526004016109f191906113ea565b60405180910390fd5b610a055f8383610f24565b5050565b5f610a14848461084c565b90507fffffffffffffffffffffffffffffffffffffffffffffffffffffffffffffffff811015610a965781811015610a87578281836040517ffb8f41b2000000000000000000000000000000000000000000000000000000008152600401610a7e9392919061171e565b60405180910390fd5b610a9584848484035f610d55565b5b50505050565b5f73ffffffffffffffffffffffffffffffffffffffff168373ffffffffffffffffffffffffffffffffffffffff1603610b0c575f6040517f96c6fd1e000000000000000000000000000000000000000000000000000000008152600401610b0391906113ea565b60405180910390fd5b5f73ffffffffffffffffffffffffffffffffffffffff168273ffffffffffffffffffffffffffffffffffffffff1603610b7c575f6040517fec442f05000000000000000000000000000000000000000000000000000000008152600401610b7391906113ea565b60405180910390fd5b610b87838383610f24565b505050565b5f73ffffffffffffffffffffffffffffffffffffffff168273ffffffffffffffffffffffffffffffffffffffff1603610bfc575f6040517f96c6fd1e000000000000000000000000000000000000000000000000000000008152600401610bf391906113ea565b60405180910390fd5b610c07825f83610f24565b5050565b610c13610971565b73ffffffffffffffffffffffffffffffffffffffff16610c31610767565b73ffffffffffffffffffffffffffffffffffffffff1614610c9057610c54610971565b6040517f118cdaa7000000000000000000000000000000000000000000000000000000008152600401610c8791906113ea565b60405180910390fd5b565b5f60055f9054906101000a900473ffffffffffffffffffffffffffffffffffffffff1690508160055f6101000a81548173ffffffffffffffffffffffffffffffffffffffff021916908373ffffffffffffffffffffffffffffffffffffffff1602179055508173ffffffffffffffffffffffffffffffffffffffff168173ffffffffffffffffffffffffffffffffffffffff167f8be0079c531659141344cd1fd0a4f28419497f9722a3daafe3b4186f6b6457e060405160405180910390a35050565b5f73ffffffffffffffffffffffffffffffffffffffff168473ffffffffffffffffffffffffffffffffffffffff1603610dc5575f6040517fe602df05000000000000000000000000000000000000000000000000000000008152600401610dbc91906113ea565b60405180910390fd5b5f73ffffffffffffffffffffffffffffffffffffffff168373ffffffffffffffffffffffffffffffffffffffff1603610e35575f6040517f94280d62000000000000000000000000000000000000000000000000000000008152600401610e2c91906113ea565b60405180910390fd5b8160015f8673ffffffffffffffffffffffffffffffffffffffff1673ffffffffffffffffffffffffffffffffffffffff1681526020019081526020015f205f8573ffffffffffffffffffffffffffffffffffffffff1673ffffffffffffffffffffffffffffffffffffffff1681526020019081526020015f20819055508015610f1e578273ffffffffffffffffffffffffffffffffffffffff168473ffffffffffffffffffffffffffffffffffffffff167f8c5be1e5ebec7d5bd14f71427d1e84f3dd0314c0f7b2291e5b200ac8c7c3b92584604051610f159190611313565b60405180910390a35b50505050565b5f73ffffffffffffffffffffffffffffffffffffffff168373ffffffffffffffffffffffffffffffffffffffff1603610f74578060025f828254610f689190611753565b92505081905550611042565b5f5f5f8573ffffffffffffffffffffffffffffffffffffffff1673ffffffffffffffffffffffffffffffffffffffff1681526020019081526020015f2054905081811015610ffd578381836040517fe450d38c000000000000000000000000000000000000000000000000000000008152600401610ff49392919061171e565b60405180910390fd5b8181035f5f8673ffffffffffffffffffffffffffffffffffffffff1673ffffffffffffffffffffffffffffffffffffffff1681526020019081526020015f2081905550505b5f73ffffffffffffffffffffffffffffffffffffffff168273ffffffffffffffffffffffffffffffffffffffff1603611089578060025f82825403925050819055506110d3565b805f5f8473ffffffffffffffffffffffffffffffffffffffff1673ffffffffffffffffffffffffffffffffffffffff1681526020019081526020015f205f82825401925050819055505b8173ffffffffffffffffffffffffffffffffffffffff168373ffffffffffffffffffffffffffffffffffffffff167fddf252ad1be2c89b69c2b068fc378daa952ba7f163c4a11628f55a4df523b3ef836040516111309190611313565b60405180910390a3505050565b611145611786565b565b5f81519050919050565b5f82825260208201905092915050565b8281835e5f83830152505050565b5f601f19601f8301169050919050565b5f61118982611147565b6111938185611151565b93506111a3818560208601611161565b6111ac8161116f565b840191505092915050565b5f6020820190508181035f8301526111cf818461117f565b905092915050565b5f5ffd5b5f73ffffffffffffffffffffffffffffffffffffffff82169050919050565b5f611204826111db565b9050919050565b611214816111fa565b811461121e575f5ffd5b50565b5f8135905061122f8161120b565b92915050565b5f819050919050565b61124781611235565b8114611251575f5ffd5b50565b5f813590506112628161123e565b92915050565b5f5f6040838503121561127e5761127d6111d7565b5b5f61128b85828601611221565b925050602061129c85828601611254565b9150509250929050565b5f8115159050919050565b6112ba816112a6565b82525050565b5f6020820190506112d35f8301846112b1565b92915050565b5f602082840312156112ee576112ed6111d7565b5b5f6112fb84828501611221565b91505092915050565b61130d81611235565b82525050565b5f6020820190506113265f830184611304565b92915050565b5f5f5f60608486031215611343576113426111d7565b5b5f61135086828701611221565b935050602061136186828701611221565b925050604061137286828701611254565b9150509250925092565b5f60ff82169050919050565b6113918161137c565b82525050565b5f6020820190506113aa5f830184611388565b92915050565b5f602082840312156113c5576113c46111d7565b5b5f6113d284828501611254565b91505092915050565b6113e4816111fa565b82525050565b5f6020820190506113fd5f8301846113db565b92915050565b5f5f60408385031215611419576114186111d7565b5b5f61142685828601611221565b925050602061143785828601611221565b9150509250929050565b7f4e487b71000000000000000000000000000000000000000000000000000000005f52602260045260245ffd5b5f600282049050600182168061148557607f821691505b60208210810361149857611497611441565b5b50919050565b7f4e487b71000000000000000000000000000000000000000000000000000000005f52601160045260245ffd5b5f6114d582611235565b91506114e083611235565b92508282026114ee81611235565b915082820484148315176115055761150461149e565b5b5092915050565b5f60408201905061151f5f8301856113db565b61152c6020830184611304565b9392505050565b7f496e73756666696369656e7420746f6b656e73000000000000000000000000005f82015250565b5f611567601383611151565b915061157282611533565b602082019050919050565b5f6020820190508181035f8301526115948161155b565b9050919050565b7f4e487b71000000000000000000000000000000000000000000000000000000005f52601260045260245ffd5b5f6115d282611235565b91506115dd83611235565b9250826115ed576115ec61159b565b5b828206905092915050565b7f6f6e6c7920646976697369626c6520627920776569662063616e2062652077695f8201527f7468647261776e00000000000000000000000000000000000000000000000000602082015250565b5f611652602783611151565b915061165d826115f8565b604082019050919050565b5f6020820190508181035f83015261167f81611646565b9050919050565b5f61169082611235565b915061169b83611235565b9250826116ab576116aa61159b565b5b828204905092915050565b7f696e73756666696369656e7420457468657220696e20636f6e747261637400005f82015250565b5f6116ea601e83611151565b91506116f5826116b6565b602082019050919050565b5f6020820190508181035f830152611717816116de565b9050919050565b5f6060820190506117315f8301866113db565b61173e6020830185611304565b61174b6040830184611304565b949350505050565b5f61175d82611235565b915061176883611235565b92508282019050808211156117805761177f61149e565b5b92915050565b7f4e487b71000000000000000000000000000000000000000000000000000000005f52605160045260245ffdfea264697066735822122033ceea4edac29744441edb1add6ef98e446371d2ccc399545365323bde354dc664736f6c634300081e0033","linkReferences":{}},"methodIdentifiers":{"MINIMUM_STAKE_VALUE()":"a806f260","allowance(address,address)":"dd62ed3e","approve(address,uint256)":"095ea7b3","balanceOf(address)":"70a08231","decimals()":"313ce567","getCoins()":"13c390ef","name()":"06fdde03","owner()":"8da5cb5b","renounceOwnership()":"715018a6","stakedAmounts(address)":"10c1c103","symbol()":"95d89b41","totalSupply()":"18160ddd","transfer(address,uint256)":"a9059cbb","transferFrom(address,address,uint256)":"23b872dd","transferOwnership(address)":"f2fde38b","weif()":"3435835b","weii()":"ae1f60e5","withdrawCoin(uint256)":"4eb264e8"},"id":37}