{"abi":[{"type":"constructor","inputs":[{"name":"_tokenAddress","type":"address","internalType":"address"},{"name":"_bookAccess","type":"address","internalType":"address"}],"stateMutability":"nonpayable"},{"type":"function","name":"MINIMUM_STAKE","inputs":[],"outputs":[{"name":"","type":"uint256","internalType":"uint256"}],"stateMutability":"view"},{"type":"function","name":"assignNode","inputs":[{"name":"_tokenId","type":"uint256","internalType":"uint256"},{"name":"_nodeAddress","type":"address","internalType":"address"},{"name":"_fileSize","type":"uint256","internalType":"uint256"}],"outputs":[],"stateMutability":"nonpayable"},{"type":"function","name":"assignedTokenIds","inputs":[{"name":"","type":"uint256","internalType":"uint256"}],"outputs":[{"name":"","type":"uint256","internalType":"uint256"}],"stateMutability":"view"},{"type":"function","name":"bookAccess","inputs":[],"outputs":[{"name":"","type":"address","internalType":"contract BookAccess"}],"stateMutability":"view"},{"type":"function","name":"coins","inputs":[],"outputs":[{"name":"","type":"address","internalType":"contract IERC20"}],"stateMutability":"view"},{"type":"function","name":"confirmFile","inputs":[{"name":"_tokenId","type":"uint256","internalType":"uint256"}],"outputs":[],"stateMutability":"nonpayable"},{"type":"function","name":"fileLocation","inputs":[{"name":"","type":"uint256","internalType":"uint256"}],"outputs":[{"name":"nodeAddress","type":"address","internalType":"address"},{"name":"url","type":"string","internalType":"string"},{"name":"cid","type":"string","internalType":"string"},{"name":"fileSize","type":"uint256","internalType":"uint256"}],"stateMutability":"view"},{"type":"function","name":"getAllBooks","inputs":[],"outputs":[{"name":"","type":"uint256[]","internalType":"uint256[]"},{"name":"","type":"tuple[]","internalType":"struct StorageRegistry.FileLocation[]","components":[{"name":"nodeAddress","type":"address","internalType":"address"},{"name":"url","type":"string","internalType":"string"},{"name":"cid","type":"string","internalType":"string"},{"name":"fileSize","type":"uint256","internalType":"uint256"}]}],"stateMutability":"view"},{"type":"function","name":"getAllNodes","inputs":[],"outputs":[{"name":"","type":"tuple[]","internalType":"struct StorageRegistry.StorageNode[]","components":[{"name":"nodeAddress","type":"address","internalType":"address"},{"name":"url","type":"string","internalType":"string"},{"name":"maxStorage","type":"uint256","internalType":"uint256"},{"name":"stakedAmount","type":"uint256","internalType":"uint256"},{"name":"isActive","type":"bool","internalType":"bool"}]}],"stateMutability":"view"},{"type":"function","name":"getFileLocation","inputs":[{"name":"_tokenId","type":"uint256","internalType":"uint256"}],"outputs":[{"name":"","type":"tuple","internalType":"struct StorageRegistry.FileLocation","components":[{"name":"nodeAddress","type":"address","internalType":"address"},{"name":"url","type":"string","internalType":"string"},{"name":"cid","type":"string","internalType":"string"},{"name":"fileSize","type":"uint256","internalType":"uint256"}]}],"stateMutability":"view"},{"type":"function","name":"getFilesForNode","inputs":[],"outputs":[{"name":"","type":"uint256[]","internalType":"uint256[]"}],"stateMutability":"view"},{"type":"function","name":"isFileConfirmed","inputs":[{"name":"_tokenId","type":"uint256","internalType":"uint256"},{"name":"_user","type":"address","internalType":"address"}],"outputs":[{"name":"","type":"bool","internalType":"bool"}],"stateMutability":"view"},{"type":"function","name":"nodeAddresses","inputs":[{"name":"","type":"uint256","internalType":"uint256"}],"outputs":[{"name":"","type":"address","internalType":"address"}],"stateMutability":"view"},{"type":"function","name":"nodeToFiles","inputs":[{"name":"","type":"address","internalType":"address"},{"name":"","type":"uint256","internalType":"uint256"}],"outputs":[{"name":"","type":"uint256","internalType":"uint256"}],"stateMutability":"view"},{"type":"function","name":"nodeWork","inputs":[{"name":"","type":"address","internalType":"address"}],"outputs":[{"name":"","type":"uint256","internalType":"uint256"}],"stateMutability":"view"},{"type":"function","name":"nodes","inputs":[{"name":"","type":"address","internalType":"address"}],"outputs":[{"name":"nodeAddress","type":"address","internalType":"address"},{"name":"url","type":"string","internalType":"string"},{"name":"maxStorage","type":"uint256","internalType":"uint256"},{"name":"stakedAmount","type":"uint256","internalType":"uint256"},{"name":"isActive","type":"bool","internalType":"bool"}],"stateMutability":"view"},{"type":"function","name":"owner","inputs":[],"outputs":[{"name":"","type":"address","internalType":"address"}],"stateMutability":"view"},{"type":"function","name":"registerNode","inputs":[{"name":"_url","type":"string","internalType":"string"},{"name":"_maxStorage","type":"uint256","internalType":"uint256"}],"outputs":[],"stateMutability":"nonpayable"},{"type":"function","name":"renounceOwnership","inputs":[],"outputs":[],"stateMutability":"nonpayable"},{"type":"function","name":"serveFile","inputs":[{"name":"_tokenId","type":"uint256","internalType":"uint256"},{"name":"_user","type":"address","internalType":"address"}],"outputs":[{"name":"","type":"bool","internalType":"bool"}],"stateMutability":"nonpayable"},{"type":"function","name":"storeFile","inputs":[{"name":"_tokenId","type":"uint256","internalType":"uint256"},{"name":"_cid","type":"string","internalType":"string"}],"outputs":[{"name":"","type":"bool","internalType":"bool"}],"stateMutability":"nonpayable"},{"type":"function","name":"totalRewardableWork","inputs":[],"outputs":[{"name":"","type":"uint256","internalType":"uint256"}],"stateMutability":"view"},{"type":"function","name":"transferOwnership","inputs":[{"name":"newOwner","type":"address","internalType":"address"}],"outputs":[],"stateMutability":"nonpayable"},{"type":"function","name":"transmissions","inputs":[{"name":"","type":"uint256","internalType":"uint256"}],"outputs":[{"name":"user","type":"address","internalType":"address"},{"name":"isRequested","type":"bool","internalType":"bool"},{"name":"isConfirmed","type":"bool","internalType":"bool"}],"stateMutability":"view"},{"type":"event","name":"FileAssigned","inputs":[{"name":"tokenId","type":"uint256","indexed":true,"internalType":"uint256"},{"name":"user","type":"address","indexed":true,"internalType":"address"},{"name":"nodeAddress","type":"address","indexed":true,"internalType":"address"},{"name":"url","type":"string","indexed":false,"internalType":"string"}],"anonymous":false},{"type":"event","name":"FileConfirmed","inputs":[{"name":"tokenId","type":"uint256","indexed":true,"internalType":"uint256"},{"name":"user","type":"address","indexed":true,"internalType":"address"}],"anonymous":false},{"type":"event","name":"FileServed","inputs":[{"name":"tokenId","type":"uint256","indexed":true,"internalType":"uint256"},{"name":"user","type":"address","indexed":true,"internalType":"address"},{"name":"nodeAddress","type":"address","indexed":true,"internalType":"address"}],"anonymous":false},{"type":"event","name":"FileVerified","inputs":[{"name":"tokenId","type":"uint256","indexed":true,"internalType":"uint256"},{"name":"cid","type":"string","indexed":false,"internalType":"string"}],"anonymous":false},{"type":"event","name":"NodeRegistered","inputs":[{"name":"nodeAddress","type":"address","indexed":true,"internalType":"address"},{"name":"url","type":"string","indexed":false,"internalType":"string"},{"name":"maxStorage","type":"uint256","indexed":false,"internalType":"uint256"},{"name":"stakedAmount","type":"uint256","indexed":false,"internalType":"uint256"}],"anonymous":false},{"type":"event","name":"OwnershipTransferred","inputs":[{"name":"previousOwner","type":"address","indexed":true,"internalType":"address"},{"name":"newOwner","type":"address","indexed":true,"internalType":"address"}],"anonymous":false},{"type":"error","name":"OwnableInvalidOwner","inputs":[{"name":"owner","type":"address","internalType":"address"}]},{"type":"error","name":"OwnableUnauthorizedAccount","inputs":[{"name":"account","type":"address","internalType":"address"}]}],"bytecode":{"object":"0x608060405234801561000f575f5ffd5b50604051613c25380380613c2583398181016040528101906100319190610258565b335f73ffffffffffffffffffffffffffffffffffffffff168173ffffffffffffffffffffffffffffffffffffffff16036100a2575f6040517f1e4fbdf700000000000000000000000000000000000000000000000000000000815260040161009991906102a5565b60405180910390fd5b6100b18161013960201b60201c565b508160015f6101000a81548173ffffffffffffffffffffffffffffffffffffffff021916908373ffffffffffffffffffffffffffffffffffffffff1602179055508060025f6101000a81548173ffffffffffffffffffffffffffffffffffffffff021916908373ffffffffffffffffffffffffffffffffffffffff16021790555050506102be565b5f5f5f9054906101000a900473ffffffffffffffffffffffffffffffffffffffff169050815f5f6101000a81548173ffffffffffffffffffffffffffffffffffffffff021916908373ffffffffffffffffffffffffffffffffffffffff1602179055508173ffffffffffffffffffffffffffffffffffffffff168173ffffffffffffffffffffffffffffffffffffffff167f8be0079c531659141344cd1fd0a4f28419497f9722a3daafe3b4186f6b6457e060405160405180910390a35050565b5f5ffd5b5f73ffffffffffffffffffffffffffffffffffffffff82169050919050565b5f610227826101fe565b9050919050565b6102378161021d565b8114610241575f5ffd5b50565b5f815190506102528161022e565b92915050565b5f5f6040838503121561026e5761026d6101fa565b5b5f61027b85828601610244565b925050602061028c85828601610244565b9150509250929050565b61029f8161021d565b82525050565b5f6020820190506102b85f830184610296565b92915050565b61395a806102cb5f395ff3fe608060405234801561000f575f5ffd5b5060043610610156575f3560e01c80636a42a316116100c1578063a1174e7d1161007a578063a1174e7d146103f8578063c4d7709014610416578063d6297a6914610446578063db95f25914610476578063f2fde38b146104a6578063f3ef747f146104c257610156565b80636a42a31614610332578063715018a6146103505780637b5443d31461035a5780637c397ea31461038a57806380af461d146103bc5780638da5cb5b146103da57610156565b806322fcefbe1161011357806322fcefbe146102445780632ec0523714610262578063354528e814610280578063371c93b41461029f57806341104f93146102cf578063626257eb146102ff57610156565b806308dbbb031461015a57806309474eef14610178578063099a82541461019457806310116338146101c4578063189a5a17146101e0578063201ac29c14610214575b5f5ffd5b6101626104de565b60405161016f9190612295565b60405180910390f35b610192600480360381019061018d91906122e9565b6104e4565b005b6101ae60048036038101906101a9919061236e565b610778565b6040516101bb9190612295565b60405180910390f35b6101de60048036038101906101d99190612399565b61078d565b005b6101fa60048036038101906101f5919061236e565b610ba9565b60405161020b959493929190612482565b60405180910390f35b61022e60048036038101906102299190612606565b610c8c565b60405161023b9190612660565b60405180910390f35b61024c610ecf565b60405161025991906126d4565b60405180910390f35b61026a610ef4565b604051610277919061270d565b60405180910390f35b610288610f19565b604051610296929190612956565b60405180910390f35b6102b960048036038101906102b491906122e9565b6111c8565b6040516102c691906129f2565b60405180910390f35b6102e960048036038101906102e49190612a12565b611371565b6040516102f69190612295565b60405180910390f35b610319600480360381019061031491906122e9565b61139c565b6040516103299493929190612a50565b60405180910390f35b61033a6114f3565b6040516103479190612295565b60405180910390f35b6103586114f9565b005b610374600480360381019061036f9190612aa1565b61150c565b6040516103819190612660565b60405180910390f35b6103a4600480360381019061039f91906122e9565b6117e8565b6040516103b393929190612adf565b60405180910390f35b6103c4611845565b6040516103d19190612b14565b60405180910390f35b6103e26118d6565b6040516103ef9190612b34565b60405180910390f35b6104006118fd565b60405161040d9190612c8a565b60405180910390f35b610430600480360381019061042b91906122e9565b611b35565b60405161043d9190612b34565b60405180910390f35b610460600480360381019061045b91906122e9565b611b70565b60405161046d9190612295565b60405180910390f35b610490600480360381019061048b9190612aa1565b611b90565b60405161049d9190612660565b60405180910390f35b6104c060048036038101906104bb919061236e565b611c23565b005b6104dc60048036038101906104d79190612caa565b611ca7565b005b6103e881565b60065f8281526020019081526020015f205f0160149054906101000a900460ff16610544576040517f08c379a000000000000000000000000000000000000000000000000000000000815260040161053b90612d4e565b60405180910390fd5b60065f8281526020019081526020015f205f015f9054906101000a900473ffffffffffffffffffffffffffffffffffffffff1673ffffffffffffffffffffffffffffffffffffffff163373ffffffffffffffffffffffffffffffffffffffff16146105e4576040517f08c379a00000000000000000000000000000000000000000000000000000000081526004016105db90612db6565b60405180910390fd5b60065f8281526020019081526020015f205f0160159054906101000a900460ff1615610645576040517f08c379a000000000000000000000000000000000000000000000000000000000815260040161063c90612e1e565b60405180910390fd5b600160065f8381526020019081526020015f205f0160156101000a81548160ff0219169083151502179055505f60055f8381526020019081526020015f205f015f9054906101000a900473ffffffffffffffffffffffffffffffffffffffff1690505f60055f8481526020019081526020015f206003015490505f8190508060075f8573ffffffffffffffffffffffffffffffffffffffff1673ffffffffffffffffffffffffffffffffffffffff1681526020019081526020015f205f82825461070f9190612e69565b925050819055508060035f8282546107279190612e69565b925050819055503373ffffffffffffffffffffffffffffffffffffffff16847fdc1f3d8a24103cac00e74b5b26aae4db0eb55eb6af7115785b4b356e41cb476060405160405180910390a350505050565b6007602052805f5260405f205f915090505481565b60045f8373ffffffffffffffffffffffffffffffffffffffff1673ffffffffffffffffffffffffffffffffffffffff1681526020019081526020015f206004015f9054906101000a900460ff16610819576040517f08c379a000000000000000000000000000000000000000000000000000000000815260040161081090612f0c565b60405180910390fd5b5f811161085b576040517f08c379a000000000000000000000000000000000000000000000000000000000815260040161085290612f9a565b60405180910390fd5b8060045f8473ffffffffffffffffffffffffffffffffffffffff1673ffffffffffffffffffffffffffffffffffffffff1681526020019081526020015f206002015410156108de576040517f08c379a00000000000000000000000000000000000000000000000000000000081526004016108d590613002565b60405180910390fd5b5f60055f8581526020019081526020015f2060010180546108fe9061304d565b905014610940576040517f08c379a0000000000000000000000000000000000000000000000000000000008152600401610937906130c7565b60405180910390fd5b60405180608001604052808373ffffffffffffffffffffffffffffffffffffffff16815260200160045f8573ffffffffffffffffffffffffffffffffffffffff1673ffffffffffffffffffffffffffffffffffffffff1681526020019081526020015f2060010180546109b29061304d565b80601f01602080910402602001604051908101604052809291908181526020018280546109de9061304d565b8015610a295780601f10610a0057610100808354040283529160200191610a29565b820191905f5260205f20905b815481529060010190602001808311610a0c57829003601f168201915b5050505050815260200160405180602001604052805f81525081526020018281525060055f8581526020019081526020015f205f820151815f015f6101000a81548173ffffffffffffffffffffffffffffffffffffffff021916908373ffffffffffffffffffffffffffffffffffffffff1602179055506020820151816001019081610ab5919061327c565b506040820151816002019081610acb919061327c565b5060608201518160030155905050600a83908060018154018082558091505060019003905f5260205f20015f90919091909150558173ffffffffffffffffffffffffffffffffffffffff163373ffffffffffffffffffffffffffffffffffffffff16847fd0975a048e0b474a2a96b1fa3643ac554b4ff0cce90474ae8d12480c10e0717d60045f8773ffffffffffffffffffffffffffffffffffffffff1673ffffffffffffffffffffffffffffffffffffffff1681526020019081526020015f20600101604051610b9c91906133cc565b60405180910390a4505050565b6004602052805f5260405f205f91509050805f015f9054906101000a900473ffffffffffffffffffffffffffffffffffffffff1690806001018054610bed9061304d565b80601f0160208091040260200160405190810160405280929190818152602001828054610c199061304d565b8015610c645780601f10610c3b57610100808354040283529160200191610c64565b820191905f5260205f20905b815481529060010190602001808311610c4757829003601f168201915b505050505090806002015490806003015490806004015f9054906101000a900460ff16905085565b5f5f60055f8581526020019081526020015f206001018054610cad9061304d565b905003610cbc575f9050610ec9565b60055f8481526020019081526020015f205f015f9054906101000a900473ffffffffffffffffffffffffffffffffffffffff1673ffffffffffffffffffffffffffffffffffffffff163373ffffffffffffffffffffffffffffffffffffffff1614610d5c576040517f08c379a0000000000000000000000000000000000000000000000000000000008152600401610d5390613436565b60405180910390fd5b5f825111610d9f576040517f08c379a0000000000000000000000000000000000000000000000000000000008152600401610d969061349e565b60405180910390fd5b8160055f8581526020019081526020015f206002019081610dc0919061327c565b5060055f8481526020019081526020015f206003015460045f3373ffffffffffffffffffffffffffffffffffffffff1673ffffffffffffffffffffffffffffffffffffffff1681526020019081526020015f206002015f828254610e2491906134bc565b9250508190555060085f3373ffffffffffffffffffffffffffffffffffffffff1673ffffffffffffffffffffffffffffffffffffffff1681526020019081526020015f2083908060018154018082558091505060019003905f5260205f20015f9091909190915055827f4b0d40093f78bcbc6f55e88e09d839118a2c635d0c77afdd87b000f989f4184f83604051610ebc91906134ef565b60405180910390a2600190505b92915050565b60015f9054906101000a900473ffffffffffffffffffffffffffffffffffffffff1681565b60025f9054906101000a900473ffffffffffffffffffffffffffffffffffffffff1681565b6060805f600a8054905090505f8167ffffffffffffffff811115610f4057610f3f6124e2565b5b604051908082528060200260200182016040528015610f7957816020015b610f666121fe565b815260200190600190039081610f5e5790505b5090505f5f90505b8281101561116a5760055f600a8381548110610fa057610f9f61350f565b5b905f5260205f20015481526020019081526020015f206040518060800160405290815f82015f9054906101000a900473ffffffffffffffffffffffffffffffffffffffff1673ffffffffffffffffffffffffffffffffffffffff1673ffffffffffffffffffffffffffffffffffffffff1681526020016001820180546110259061304d565b80601f01602080910402602001604051908101604052809291908181526020018280546110519061304d565b801561109c5780601f106110735761010080835404028352916020019161109c565b820191905f5260205f20905b81548152906001019060200180831161107f57829003601f168201915b505050505081526020016002820180546110b59061304d565b80601f01602080910402602001604051908101604052809291908181526020018280546110e19061304d565b801561112c5780601f106111035761010080835404028352916020019161112c565b820191905f5260205f20905b81548152906001019060200180831161110f57829003601f168201915b505050505081526020016003820154815250508282815181106111525761115161350f565b5b60200260200101819052508080600101915050610f81565b50600a81818054806020026020016040519081016040528092919081815260200182805480156111b757602002820191905f5260205f20905b8154815260200190600101908083116111a3575b505050505091509350935050509091565b6111d06121fe565b60055f8381526020019081526020015f206040518060800160405290815f82015f9054906101000a900473ffffffffffffffffffffffffffffffffffffffff1673ffffffffffffffffffffffffffffffffffffffff1673ffffffffffffffffffffffffffffffffffffffff1681526020016001820180546112509061304d565b80601f016020809104026020016040519081016040528092919081815260200182805461127c9061304d565b80156112c75780601f1061129e576101008083540402835291602001916112c7565b820191905f5260205f20905b8154815290600101906020018083116112aa57829003601f168201915b505050505081526020016002820180546112e09061304d565b80601f016020809104026020016040519081016040528092919081815260200182805461130c9061304d565b80156113575780601f1061132e57610100808354040283529160200191611357565b820191905f5260205f20905b81548152906001019060200180831161133a57829003601f168201915b505050505081526020016003820154815250509050919050565b6008602052815f5260405f20818154811061138a575f80fd5b905f5260205f20015f91509150505481565b6005602052805f5260405f205f91509050805f015f9054906101000a900473ffffffffffffffffffffffffffffffffffffffff16908060010180546113e09061304d565b80601f016020809104026020016040519081016040528092919081815260200182805461140c9061304d565b80156114575780601f1061142e57610100808354040283529160200191611457565b820191905f5260205f20905b81548152906001019060200180831161143a57829003601f168201915b50505050509080600201805461146c9061304d565b80601f01602080910402602001604051908101604052809291908181526020018280546114989061304d565b80156114e35780601f106114ba576101008083540402835291602001916114e3565b820191905f5260205f20905b8154815290600101906020018083116114c657829003601f168201915b5050505050908060030154905084565b60035481565b6115016120af565b61150a5f612136565b565b5f5f60055f8581526020019081526020015f20600201805461152d9061304d565b90501161156f576040517f08c379a000000000000000000000000000000000000000000000000000000000815260040161156690613586565b60405180910390fd5b60055f8481526020019081526020015f205f015f9054906101000a900473ffffffffffffffffffffffffffffffffffffffff1673ffffffffffffffffffffffffffffffffffffffff163373ffffffffffffffffffffffffffffffffffffffff161461160f576040517f08c379a0000000000000000000000000000000000000000000000000000000008152600401611606906135ee565b60405180910390fd5b60025f9054906101000a900473ffffffffffffffffffffffffffffffffffffffff1673ffffffffffffffffffffffffffffffffffffffff1663f8350ed083856040518363ffffffff1660e01b815260040161166b92919061360c565b602060405180830381865afa158015611686573d5f5f3e3d5ffd5b505050506040513d601f19601f820116820180604052508101906116aa919061365d565b6116b6575f90506117e2565b60405180606001604052808373ffffffffffffffffffffffffffffffffffffffff1681526020016001151581526020015f151581525060065f8581526020019081526020015f205f820151815f015f6101000a81548173ffffffffffffffffffffffffffffffffffffffff021916908373ffffffffffffffffffffffffffffffffffffffff1602179055506020820151815f0160146101000a81548160ff0219169083151502179055506040820151815f0160156101000a81548160ff0219169083151502179055509050503373ffffffffffffffffffffffffffffffffffffffff168273ffffffffffffffffffffffffffffffffffffffff16847ff13f1673de073caf4583519877232357c01a6cf4ca4198faf688c1e130e90e8560405160405180910390a4600190505b92915050565b6006602052805f5260405f205f91509050805f015f9054906101000a900473ffffffffffffffffffffffffffffffffffffffff1690805f0160149054906101000a900460ff1690805f0160159054906101000a900460ff16905083565b606060085f3373ffffffffffffffffffffffffffffffffffffffff1673ffffffffffffffffffffffffffffffffffffffff1681526020019081526020015f208054806020026020016040519081016040528092919081815260200182805480156118cc57602002820191905f5260205f20905b8154815260200190600101908083116118b8575b5050505050905090565b5f5f5f9054906101000a900473ffffffffffffffffffffffffffffffffffffffff16905090565b60605f60098054905090505f8167ffffffffffffffff811115611923576119226124e2565b5b60405190808252806020026020018201604052801561195c57816020015b61194961223a565b8152602001906001900390816119415790505b5090505f5f90505b82811015611b2c5760045f600983815481106119835761198261350f565b5b905f5260205f20015f9054906101000a900473ffffffffffffffffffffffffffffffffffffffff1673ffffffffffffffffffffffffffffffffffffffff1673ffffffffffffffffffffffffffffffffffffffff1681526020019081526020015f206040518060a00160405290815f82015f9054906101000a900473ffffffffffffffffffffffffffffffffffffffff1673ffffffffffffffffffffffffffffffffffffffff1673ffffffffffffffffffffffffffffffffffffffff168152602001600182018054611a539061304d565b80601f0160208091040260200160405190810160405280929190818152602001828054611a7f9061304d565b8015611aca5780601f10611aa157610100808354040283529160200191611aca565b820191905f5260205f20905b815481529060010190602001808311611aad57829003601f168201915b505050505081526020016002820154815260200160038201548152602001600482015f9054906101000a900460ff161515151581525050828281518110611b1457611b1361350f565b5b60200260200101819052508080600101915050611964565b50809250505090565b60098181548110611b44575f80fd5b905f5260205f20015f915054906101000a900473ffffffffffffffffffffffffffffffffffffffff1681565b600a8181548110611b7f575f80fd5b905f5260205f20015f915090505481565b5f60065f8481526020019081526020015f205f0160159054906101000a900460ff168015611c1b57508173ffffffffffffffffffffffffffffffffffffffff1660065f8581526020019081526020015f205f015f9054906101000a900473ffffffffffffffffffffffffffffffffffffffff1673ffffffffffffffffffffffffffffffffffffffff16145b905092915050565b611c2b6120af565b5f73ffffffffffffffffffffffffffffffffffffffff168173ffffffffffffffffffffffffffffffffffffffff1603611c9b575f6040517f1e4fbdf7000000000000000000000000000000000000000000000000000000008152600401611c929190612b34565b60405180910390fd5b611ca481612136565b50565b5f825111611cea576040517f08c379a0000000000000000000000000000000000000000000000000000000008152600401611ce1906136d2565b60405180910390fd5b5f8111611d2c576040517f08c379a0000000000000000000000000000000000000000000000000000000008152600401611d2390613760565b60405180910390fd5b6103e860015f9054906101000a900473ffffffffffffffffffffffffffffffffffffffff1673ffffffffffffffffffffffffffffffffffffffff166370a08231336040518263ffffffff1660e01b8152600401611d899190612b34565b602060405180830381865afa158015611da4573d5f5f3e3d5ffd5b505050506040513d601f19601f82011682018060405250810190611dc89190613792565b1015611e09576040517f08c379a0000000000000000000000000000000000000000000000000000000008152600401611e009061382d565b60405180910390fd5b60015f9054906101000a900473ffffffffffffffffffffffffffffffffffffffff1673ffffffffffffffffffffffffffffffffffffffff166323b872dd33306103e86040518463ffffffff1660e01b8152600401611e699392919061384b565b6020604051808303815f875af1158015611e85573d5f5f3e3d5ffd5b505050506040513d601f19601f82011682018060405250810190611ea9919061365d565b611ee8576040517f08c379a0000000000000000000000000000000000000000000000000000000008152600401611edf906138ca565b60405180910390fd5b6040518060a001604052803373ffffffffffffffffffffffffffffffffffffffff1681526020018381526020018281526020016103e881526020016001151581525060045f3373ffffffffffffffffffffffffffffffffffffffff1673ffffffffffffffffffffffffffffffffffffffff1681526020019081526020015f205f820151815f015f6101000a81548173ffffffffffffffffffffffffffffffffffffffff021916908373ffffffffffffffffffffffffffffffffffffffff1602179055506020820151816001019081611fc0919061327c565b5060408201518160020155606082015181600301556080820151816004015f6101000a81548160ff021916908315150217905550905050600933908060018154018082558091505060019003905f5260205f20015f9091909190916101000a81548173ffffffffffffffffffffffffffffffffffffffff021916908373ffffffffffffffffffffffffffffffffffffffff1602179055503373ffffffffffffffffffffffffffffffffffffffff167ff848331a8f5de76ec7a3fa83294f97f5113b398a6898b2d62529a8d513c8167383836103e86040516120a3939291906138e8565b60405180910390a25050565b6120b76121f7565b73ffffffffffffffffffffffffffffffffffffffff166120d56118d6565b73ffffffffffffffffffffffffffffffffffffffff1614612134576120f86121f7565b6040517f118cdaa700000000000000000000000000000000000000000000000000000000815260040161212b9190612b34565b60405180910390fd5b565b5f5f5f9054906101000a900473ffffffffffffffffffffffffffffffffffffffff169050815f5f6101000a81548173ffffffffffffffffffffffffffffffffffffffff021916908373ffffffffffffffffffffffffffffffffffffffff1602179055508173ffffffffffffffffffffffffffffffffffffffff168173ffffffffffffffffffffffffffffffffffffffff167f8be0079c531659141344cd1fd0a4f28419497f9722a3daafe3b4186f6b6457e060405160405180910390a35050565b5f33905090565b60405180608001604052805f73ffffffffffffffffffffffffffffffffffffffff16815260200160608152602001606081526020015f81525090565b6040518060a001604052805f73ffffffffffffffffffffffffffffffffffffffff168152602001606081526020015f81526020015f81526020015f151581525090565b5f819050919050565b61228f8161227d565b82525050565b5f6020820190506122a85f830184612286565b92915050565b5f604051905090565b5f5ffd5b5f5ffd5b6122c88161227d565b81146122d2575f5ffd5b50565b5f813590506122e3816122bf565b92915050565b5f602082840312156122fe576122fd6122b7565b5b5f61230b848285016122d5565b91505092915050565b5f73ffffffffffffffffffffffffffffffffffffffff82169050919050565b5f61233d82612314565b9050919050565b61234d81612333565b8114612357575f5ffd5b50565b5f8135905061236881612344565b92915050565b5f60208284031215612383576123826122b7565b5b5f6123908482850161235a565b91505092915050565b5f5f5f606084860312156123b0576123af6122b7565b5b5f6123bd868287016122d5565b93505060206123ce8682870161235a565b92505060406123df868287016122d5565b9150509250925092565b6123f281612333565b82525050565b5f81519050919050565b5f82825260208201905092915050565b8281835e5f83830152505050565b5f601f19601f8301169050919050565b5f61243a826123f8565b6124448185612402565b9350612454818560208601612412565b61245d81612420565b840191505092915050565b5f8115159050919050565b61247c81612468565b82525050565b5f60a0820190506124955f8301886123e9565b81810360208301526124a78187612430565b90506124b66040830186612286565b6124c36060830185612286565b6124d06080830184612473565b9695505050505050565b5f5ffd5b5f5ffd5b7f4e487b71000000000000000000000000000000000000000000000000000000005f52604160045260245ffd5b61251882612420565b810181811067ffffffffffffffff82111715612537576125366124e2565b5b80604052505050565b5f6125496122ae565b9050612555828261250f565b919050565b5f67ffffffffffffffff821115612574576125736124e2565b5b61257d82612420565b9050602081019050919050565b828183375f83830152505050565b5f6125aa6125a58461255a565b612540565b9050828152602081018484840111156125c6576125c56124de565b5b6125d184828561258a565b509392505050565b5f82601f8301126125ed576125ec6124da565b5b81356125fd848260208601612598565b91505092915050565b5f5f6040838503121561261c5761261b6122b7565b5b5f612629858286016122d5565b925050602083013567ffffffffffffffff81111561264a576126496122bb565b5b612656858286016125d9565b9150509250929050565b5f6020820190506126735f830184612473565b92915050565b5f819050919050565b5f61269c61269761269284612314565b612679565b612314565b9050919050565b5f6126ad82612682565b9050919050565b5f6126be826126a3565b9050919050565b6126ce816126b4565b82525050565b5f6020820190506126e75f8301846126c5565b92915050565b5f6126f7826126a3565b9050919050565b612707816126ed565b82525050565b5f6020820190506127205f8301846126fe565b92915050565b5f81519050919050565b5f82825260208201905092915050565b5f819050602082019050919050565b6127588161227d565b82525050565b5f612769838361274f565b60208301905092915050565b5f602082019050919050565b5f61278b82612726565b6127958185612730565b93506127a083612740565b805f5b838110156127d05781516127b7888261275e565b97506127c283612775565b9250506001810190506127a3565b5085935050505092915050565b5f81519050919050565b5f82825260208201905092915050565b5f819050602082019050919050565b61280f81612333565b82525050565b5f82825260208201905092915050565b5f61282f826123f8565b6128398185612815565b9350612849818560208601612412565b61285281612420565b840191505092915050565b5f608083015f8301516128725f860182612806565b506020830151848203602086015261288a8282612825565b915050604083015184820360408601526128a48282612825565b91505060608301516128b9606086018261274f565b508091505092915050565b5f6128cf838361285d565b905092915050565b5f602082019050919050565b5f6128ed826127dd565b6128f781856127e7565b935083602082028501612909856127f7565b805f5b85811015612944578484038952815161292585826128c4565b9450612930836128d7565b925060208a0199505060018101905061290c565b50829750879550505050505092915050565b5f6040820190508181035f83015261296e8185612781565b9050818103602083015261298281846128e3565b90509392505050565b5f608083015f8301516129a05f860182612806565b50602083015184820360208601526129b88282612825565b915050604083015184820360408601526129d28282612825565b91505060608301516129e7606086018261274f565b508091505092915050565b5f6020820190508181035f830152612a0a818461298b565b905092915050565b5f5f60408385031215612a2857612a276122b7565b5b5f612a358582860161235a565b9250506020612a46858286016122d5565b9150509250929050565b5f608082019050612a635f8301876123e9565b8181036020830152612a758186612430565b90508181036040830152612a898185612430565b9050612a986060830184612286565b95945050505050565b5f5f60408385031215612ab757612ab66122b7565b5b5f612ac4858286016122d5565b9250506020612ad58582860161235a565b9150509250929050565b5f606082019050612af25f8301866123e9565b612aff6020830185612473565b612b0c6040830184612473565b949350505050565b5f6020820190508181035f830152612b2c8184612781565b905092915050565b5f602082019050612b475f8301846123e9565b92915050565b5f81519050919050565b5f82825260208201905092915050565b5f819050602082019050919050565b612b7f81612468565b82525050565b5f60a083015f830151612b9a5f860182612806565b5060208301518482036020860152612bb28282612825565b9150506040830151612bc7604086018261274f565b506060830151612bda606086018261274f565b506080830151612bed6080860182612b76565b508091505092915050565b5f612c038383612b85565b905092915050565b5f602082019050919050565b5f612c2182612b4d565b612c2b8185612b57565b935083602082028501612c3d85612b67565b805f5b85811015612c785784840389528151612c598582612bf8565b9450612c6483612c0b565b925060208a01995050600181019050612c40565b50829750879550505050505092915050565b5f6020820190508181035f830152612ca28184612c17565b905092915050565b5f5f60408385031215612cc057612cbf6122b7565b5b5f83013567ffffffffffffffff811115612cdd57612cdc6122bb565b5b612ce9858286016125d9565b9250506020612cfa858286016122d5565b9150509250929050565b7f4e6f207472616e736d697373696f6e20726571756573746564000000000000005f82015250565b5f612d38601983612402565b9150612d4382612d04565b602082019050919050565b5f6020820190508181035f830152612d6581612d2c565b9050919050565b7f4f6e6c792072657175657374656420757365722063616e20636f6e6669726d005f82015250565b5f612da0601f83612402565b9150612dab82612d6c565b602082019050919050565b5f6020820190508181035f830152612dcd81612d94565b9050919050565b7f416c726561647920636f6e6669726d65640000000000000000000000000000005f82015250565b5f612e08601183612402565b9150612e1382612dd4565b602082019050919050565b5f6020820190508181035f830152612e3581612dfc565b9050919050565b7f4e487b71000000000000000000000000000000000000000000000000000000005f52601160045260245ffd5b5f612e738261227d565b9150612e7e8361227d565b9250828201905080821115612e9657612e95612e3c565b5b92915050565b7f4e6f6465206973206e6f7420616374697665206f7220646f6573206e6f7420655f8201527f7869737400000000000000000000000000000000000000000000000000000000602082015250565b5f612ef6602483612402565b9150612f0182612e9c565b604082019050919050565b5f6020820190508181035f830152612f2381612eea565b9050919050565b7f46696c652073697a65206d7573742062652067726561746572207468616e207a5f8201527f65726f0000000000000000000000000000000000000000000000000000000000602082015250565b5f612f84602383612402565b9150612f8f82612f2a565b604082019050919050565b5f6020820190508181035f830152612fb181612f78565b9050919050565b7f496e73756666696369656e742073746f726167652063617061636974790000005f82015250565b5f612fec601d83612402565b9150612ff782612fb8565b602082019050919050565b5f6020820190508181035f83015261301981612fe0565b9050919050565b7f4e487b71000000000000000000000000000000000000000000000000000000005f52602260045260245ffd5b5f600282049050600182168061306457607f821691505b60208210810361307757613076613020565b5b50919050565b7f546f6b656e20616c72656164792061737369676e6564000000000000000000005f82015250565b5f6130b1601683612402565b91506130bc8261307d565b602082019050919050565b5f6020820190508181035f8301526130de816130a5565b9050919050565b5f819050815f5260205f209050919050565b5f6020601f8301049050919050565b5f82821b905092915050565b5f600883026131417fffffffffffffffffffffffffffffffffffffffffffffffffffffffffffffffff82613106565b61314b8683613106565b95508019841693508086168417925050509392505050565b5f61317d6131786131738461227d565b612679565b61227d565b9050919050565b5f819050919050565b61319683613163565b6131aa6131a282613184565b848454613112565b825550505050565b5f5f905090565b6131c16131b2565b6131cc81848461318d565b505050565b5b818110156131ef576131e45f826131b9565b6001810190506131d2565b5050565b601f82111561323457613205816130e5565b61320e846130f7565b8101602085101561321d578190505b613231613229856130f7565b8301826131d1565b50505b505050565b5f82821c905092915050565b5f6132545f1984600802613239565b1980831691505092915050565b5f61326c8383613245565b9150826002028217905092915050565b613285826123f8565b67ffffffffffffffff81111561329e5761329d6124e2565b5b6132a8825461304d565b6132b38282856131f3565b5f60209050601f8311600181146132e4575f84156132d2578287015190505b6132dc8582613261565b865550613343565b601f1984166132f2866130e5565b5f5b82811015613319578489015182556001820191506020850194506020810190506132f4565b868310156133365784890151613332601f891682613245565b8355505b6001600288020188555050505b505050505050565b5f81546133578161304d565b6133618186612402565b9450600182165f811461337b5760018114613391576133c3565b60ff1983168652811515602002860193506133c3565b61339a856130e5565b5f5b838110156133bb5781548189015260018201915060208101905061339c565b808801955050505b50505092915050565b5f6020820190508181035f8301526133e4818461334b565b905092915050565b7f4f6e6c792061737369676e6564206e6f64652063616e207665726966790000005f82015250565b5f613420601d83612402565b915061342b826133ec565b602082019050919050565b5f6020820190508181035f83015261344d81613414565b9050919050565b7f4349442063616e6e6f7420626520656d707479000000000000000000000000005f82015250565b5f613488601383612402565b915061349382613454565b602082019050919050565b5f6020820190508181035f8301526134b58161347c565b9050919050565b5f6134c68261227d565b91506134d18361227d565b92508282039050818111156134e9576134e8612e3c565b5b92915050565b5f6020820190508181035f8301526135078184612430565b905092915050565b7f4e487b71000000000000000000000000000000000000000000000000000000005f52603260045260245ffd5b7f46696c65206e6f742073746f72656400000000000000000000000000000000005f82015250565b5f613570600f83612402565b915061357b8261353c565b602082019050919050565b5f6020820190508181035f83015261359d81613564565b9050919050565b7f4f6e6c792061737369676e6564206e6f64652063616e207365727665000000005f82015250565b5f6135d8601c83612402565b91506135e3826135a4565b602082019050919050565b5f6020820190508181035f830152613605816135cc565b9050919050565b5f60408201905061361f5f8301856123e9565b61362c6020830184612286565b9392505050565b61363c81612468565b8114613646575f5ffd5b50565b5f8151905061365781613633565b92915050565b5f60208284031215613672576136716122b7565b5b5f61367f84828501613649565b91505092915050565b7f55524c2063616e6e6f7420626520656d707479000000000000000000000000005f82015250565b5f6136bc601383612402565b91506136c782613688565b602082019050919050565b5f6020820190508181035f8301526136e9816136b0565b9050919050565b7f4d61782073746f72616765206d7573742062652067726561746572207468616e5f8201527f207a65726f000000000000000000000000000000000000000000000000000000602082015250565b5f61374a602583612402565b9150613755826136f0565b604082019050919050565b5f6020820190508181035f8301526137778161373e565b9050919050565b5f8151905061378c816122bf565b92915050565b5f602082840312156137a7576137a66122b7565b5b5f6137b48482850161377e565b91505092915050565b7f496e73756666696369656e7420746f6b656e2062616c616e636520666f7220735f8201527f74616b6500000000000000000000000000000000000000000000000000000000602082015250565b5f613817602483612402565b9150613822826137bd565b604082019050919050565b5f6020820190508181035f8301526138448161380b565b9050919050565b5f60608201905061385e5f8301866123e9565b61386b60208301856123e9565b6138786040830184612286565b949350505050565b7f5374616b65207472616e73666572206661696c656400000000000000000000005f82015250565b5f6138b4601583612402565b91506138bf82613880565b602082019050919050565b5f6020820190508181035f8301526138e1816138a8565b9050919050565b5f6060820190508181035f8301526139008186612430565b905061390f6020830185612286565b61391c6040830184612286565b94935050505056fea2646970667358221220b6937eb7927d93559f53b18b6f2e74529e4c528347853ca15b7873d7abed5c0064736f6c634300081e0033","linkReferences":{}},"methodIdentifiers":{"MINIMUM_STAKE()":"08dbbb03","assignNode(uint256,address,uint256)":"10116338","assignedTokenIds(uint256)":"d6297a69","bookAccess()":"2ec05237","coins()":"22fcefbe","confirmFile(uint256)":"09474eef","fileLocation(uint256)":"626257eb","getAllBooks()":"354528e8","getAllNodes()":"a1174e7d","getFileLocation(uint256)":"371c93b4","getFilesForNode()":"80af461d","isFileConfirmed(uint256,address)":"db95f259","nodeAddresses(uint256)":"c4d77090","nodeToFiles(address,uint256)":"41104f93","nodeWork(address)":"099a8254","nodes(address)":"189a5a17","owner()":"8da5cb5b","registerNode(string,uint256)":"f3ef747f","renounceOwnership()":"715018a6","serveFile(uint256,address)":"7b5443d3","storeFile(uint256,string)":"201ac29c","totalRewardableWork()":"6a42a316","transferOwnership(address)":"f2fde38b","transmissions(uint256)":"7c397ea3"},"id":38}